{
	"contracts/RegistroMedico.sol": {
		"HealthcareRegistro": {
			"abi": [
				{
					"inputs": [],
					"stateMutability": "nonpayable",
					"type": "constructor"
				},
				{
					"inputs": [
						{
							"internalType": "uint256",
							"name": "pacienteID",
							"type": "uint256"
						},
						{
							"internalType": "string",
							"name": "pacienteNome",
							"type": "string"
						},
						{
							"internalType": "string",
							"name": "diagnostico",
							"type": "string"
						},
						{
							"internalType": "string",
							"name": "tratamento",
							"type": "string"
						}
					],
					"name": "addRegistro",
					"outputs": [],
					"stateMutability": "nonpayable",
					"type": "function"
				},
				{
					"inputs": [
						{
							"internalType": "address",
							"name": "provider",
							"type": "address"
						}
					],
					"name": "autorizarProvedor",
					"outputs": [],
					"stateMutability": "nonpayable",
					"type": "function"
				},
				{
					"inputs": [],
					"name": "getProprietario",
					"outputs": [
						{
							"internalType": "address",
							"name": "",
							"type": "address"
						}
					],
					"stateMutability": "view",
					"type": "function"
				},
				{
					"inputs": [
						{
							"internalType": "uint256",
							"name": "pacienteID",
							"type": "uint256"
						}
					],
					"name": "getRegistroPaciente",
					"outputs": [
						{
							"components": [
								{
									"internalType": "uint256",
									"name": "registroID",
									"type": "uint256"
								},
								{
									"internalType": "string",
									"name": "pacienteNome",
									"type": "string"
								},
								{
									"internalType": "string",
									"name": "diagnostico",
									"type": "string"
								},
								{
									"internalType": "string",
									"name": "tratamento",
									"type": "string"
								},
								{
									"internalType": "uint256",
									"name": "timestamp",
									"type": "uint256"
								}
							],
							"internalType": "struct HealthcareRegistro.Registro[]",
							"name": "",
							"type": "tuple[]"
						}
					],
					"stateMutability": "view",
					"type": "function"
				}
			],
			"devdoc": {
				"kind": "dev",
				"methods": {},
				"version": 1
			},
			"evm": {
				"assembly": "    /* \"contracts/RegistroMedico.sol\":63:1566  contract HealthcareRegistro {... */\n  mstore(0x40, 0x80)\n    /* \"contracts/RegistroMedico.sol\":730:788  constructor() {... */\n  callvalue\n  dup1\n  iszero\n  tag_1\n  jumpi\n  0x00\n  dup1\n  revert\ntag_1:\n  pop\n    /* \"contracts/RegistroMedico.sol\":770:780  msg.sender */\n  caller\n    /* \"contracts/RegistroMedico.sol\":755:767  proprietario */\n  0x00\n  dup1\n    /* \"contracts/RegistroMedico.sol\":755:780  proprietario = msg.sender */\n  0x0100\n  exp\n  dup2\n  sload\n  dup2\n  0xffffffffffffffffffffffffffffffffffffffff\n  mul\n  not\n  and\n  swap1\n  dup4\n  0xffffffffffffffffffffffffffffffffffffffff\n  and\n  mul\n  or\n  swap1\n  sstore\n  pop\n    /* \"contracts/RegistroMedico.sol\":63:1566  contract HealthcareRegistro {... */\n  dataSize(sub_0)\n  dup1\n  dataOffset(sub_0)\n  0x00\n  codecopy\n  0x00\n  return\nstop\n\nsub_0: assembly {\n        /* \"contracts/RegistroMedico.sol\":63:1566  contract HealthcareRegistro {... */\n      mstore(0x40, 0x80)\n      callvalue\n      dup1\n      iszero\n      tag_1\n      jumpi\n      0x00\n      dup1\n      revert\n    tag_1:\n      pop\n      jumpi(tag_2, lt(calldatasize, 0x04))\n      shr(0xe0, calldataload(0x00))\n      dup1\n      0x0617b2f7\n      eq\n      tag_3\n      jumpi\n      dup1\n      0x5bcf68fe\n      eq\n      tag_4\n      jumpi\n      dup1\n      0xa2c0f874\n      eq\n      tag_5\n      jumpi\n      dup1\n      0xddcc2dfa\n      eq\n      tag_6\n      jumpi\n    tag_2:\n      0x00\n      dup1\n      revert\n        /* \"contracts/RegistroMedico.sol\":797:892  function getProprietario() public view returns (address) {... */\n    tag_3:\n      tag_7\n      tag_8\n      jump\t// in\n    tag_7:\n      mload(0x40)\n      tag_9\n      swap2\n      swap1\n      tag_10\n      jump\t// in\n    tag_9:\n      mload(0x40)\n      dup1\n      swap2\n      sub\n      swap1\n      return\n        /* \"contracts/RegistroMedico.sol\":1036:1384  function addRegistro(uint256 pacienteID, string memory pacienteNome, string memory diagnostico, string memory tratamento) public somenteProprietario{... */\n    tag_4:\n      tag_11\n      0x04\n      dup1\n      calldatasize\n      sub\n      dup2\n      add\n      swap1\n      tag_12\n      swap2\n      swap1\n      tag_13\n      jump\t// in\n    tag_12:\n      tag_14\n      jump\t// in\n    tag_11:\n      stop\n        /* \"contracts/RegistroMedico.sol\":1392:1561  function getRegistroPaciente(uint256 pacienteID) public view somenteProvedorAutorizado returns (Registro[] memory) {... */\n    tag_5:\n      tag_15\n      0x04\n      dup1\n      calldatasize\n      sub\n      dup2\n      add\n      swap1\n      tag_16\n      swap2\n      swap1\n      tag_17\n      jump\t// in\n    tag_16:\n      tag_18\n      jump\t// in\n    tag_15:\n      mload(0x40)\n      tag_19\n      swap2\n      swap1\n      tag_20\n      jump\t// in\n    tag_19:\n      mload(0x40)\n      dup1\n      swap2\n      sub\n      swap1\n      return\n        /* \"contracts/RegistroMedico.sol\":900:1026  function autorizarProvedor(address provider) public somenteProprietario {... */\n    tag_6:\n      tag_21\n      0x04\n      dup1\n      calldatasize\n      sub\n      dup2\n      add\n      swap1\n      tag_22\n      swap2\n      swap1\n      tag_23\n      jump\t// in\n    tag_22:\n      tag_24\n      jump\t// in\n    tag_21:\n      stop\n        /* \"contracts/RegistroMedico.sol\":797:892  function getProprietario() public view returns (address) {... */\n    tag_8:\n        /* \"contracts/RegistroMedico.sol\":845:852  address */\n      0x00\n        /* \"contracts/RegistroMedico.sol\":872:884  proprietario */\n      dup1\n      0x00\n      swap1\n      sload\n      swap1\n      0x0100\n      exp\n      swap1\n      div\n      0xffffffffffffffffffffffffffffffffffffffff\n      and\n        /* \"contracts/RegistroMedico.sol\":865:884  return proprietario */\n      swap1\n      pop\n        /* \"contracts/RegistroMedico.sol\":797:892  function getProprietario() public view returns (address) {... */\n      swap1\n      jump\t// out\n        /* \"contracts/RegistroMedico.sol\":1036:1384  function addRegistro(uint256 pacienteID, string memory pacienteNome, string memory diagnostico, string memory tratamento) public somenteProprietario{... */\n    tag_14:\n        /* \"contracts/RegistroMedico.sol\":495:507  proprietario */\n      0x00\n      dup1\n      sload\n      swap1\n      0x0100\n      exp\n      swap1\n      div\n      0xffffffffffffffffffffffffffffffffffffffff\n      and\n        /* \"contracts/RegistroMedico.sol\":481:507  msg.sender == proprietario */\n      0xffffffffffffffffffffffffffffffffffffffff\n      and\n        /* \"contracts/RegistroMedico.sol\":481:491  msg.sender */\n      caller\n        /* \"contracts/RegistroMedico.sol\":481:507  msg.sender == proprietario */\n      0xffffffffffffffffffffffffffffffffffffffff\n      and\n      eq\n        /* \"contracts/RegistroMedico.sol\":473:560  require(msg.sender == proprietario, \"Somente o proprietario pode utilizar essa funcao\") */\n      tag_27\n      jumpi\n      mload(0x40)\n      0x08c379a000000000000000000000000000000000000000000000000000000000\n      dup2\n      mstore\n      0x04\n      add\n      tag_28\n      swap1\n      tag_29\n      jump\t// in\n    tag_28:\n      mload(0x40)\n      dup1\n      swap2\n      sub\n      swap1\n      revert\n    tag_27:\n        /* \"contracts/RegistroMedico.sol\":1195:1213  uint256 registroID */\n      0x00\n        /* \"contracts/RegistroMedico.sol\":1253:1254  1 */\n      0x01\n        /* \"contracts/RegistroMedico.sol\":1216:1232  registroPaciente */\n      dup1\n        /* \"contracts/RegistroMedico.sol\":1216:1244  registroPaciente[pacienteID] */\n      0x00\n        /* \"contracts/RegistroMedico.sol\":1233:1243  pacienteID */\n      dup8\n        /* \"contracts/RegistroMedico.sol\":1216:1244  registroPaciente[pacienteID] */\n      dup2\n      mstore\n      0x20\n      add\n      swap1\n      dup2\n      mstore\n      0x20\n      add\n      0x00\n      keccak256\n        /* \"contracts/RegistroMedico.sol\":1216:1251  registroPaciente[pacienteID].length */\n      dup1\n      sload\n      swap1\n      pop\n        /* \"contracts/RegistroMedico.sol\":1216:1254  registroPaciente[pacienteID].length +1 */\n      tag_31\n      swap2\n      swap1\n      tag_32\n      jump\t// in\n    tag_31:\n        /* \"contracts/RegistroMedico.sol\":1195:1254  uint256 registroID = registroPaciente[pacienteID].length +1 */\n      swap1\n      pop\n        /* \"contracts/RegistroMedico.sol\":1265:1281  registroPaciente */\n      0x01\n        /* \"contracts/RegistroMedico.sol\":1265:1293  registroPaciente[pacienteID] */\n      0x00\n        /* \"contracts/RegistroMedico.sol\":1282:1292  pacienteID */\n      dup7\n        /* \"contracts/RegistroMedico.sol\":1265:1293  registroPaciente[pacienteID] */\n      dup2\n      mstore\n      0x20\n      add\n      swap1\n      dup2\n      mstore\n      0x20\n      add\n      0x00\n      keccak256\n        /* \"contracts/RegistroMedico.sol\":1299:1375  Registro(registroID, pacienteNome, diagnostico, tratamento, block.timestamp) */\n      mload(0x40)\n      dup1\n      0xa0\n      add\n      0x40\n      mstore\n      dup1\n        /* \"contracts/RegistroMedico.sol\":1308:1318  registroID */\n      dup4\n        /* \"contracts/RegistroMedico.sol\":1299:1375  Registro(registroID, pacienteNome, diagnostico, tratamento, block.timestamp) */\n      dup2\n      mstore\n      0x20\n      add\n        /* \"contracts/RegistroMedico.sol\":1320:1332  pacienteNome */\n      dup7\n        /* \"contracts/RegistroMedico.sol\":1299:1375  Registro(registroID, pacienteNome, diagnostico, tratamento, block.timestamp) */\n      dup2\n      mstore\n      0x20\n      add\n        /* \"contracts/RegistroMedico.sol\":1334:1345  diagnostico */\n      dup6\n        /* \"contracts/RegistroMedico.sol\":1299:1375  Registro(registroID, pacienteNome, diagnostico, tratamento, block.timestamp) */\n      dup2\n      mstore\n      0x20\n      add\n        /* \"contracts/RegistroMedico.sol\":1347:1357  tratamento */\n      dup5\n        /* \"contracts/RegistroMedico.sol\":1299:1375  Registro(registroID, pacienteNome, diagnostico, tratamento, block.timestamp) */\n      dup2\n      mstore\n      0x20\n      add\n        /* \"contracts/RegistroMedico.sol\":1359:1374  block.timestamp */\n      timestamp\n        /* \"contracts/RegistroMedico.sol\":1299:1375  Registro(registroID, pacienteNome, diagnostico, tratamento, block.timestamp) */\n      dup2\n      mstore\n      pop\n        /* \"contracts/RegistroMedico.sol\":1265:1376  registroPaciente[pacienteID].push(Registro(registroID, pacienteNome, diagnostico, tratamento, block.timestamp)) */\n      swap1\n      dup1\n      0x01\n      dup2\n      sload\n      add\n      dup1\n      dup3\n      sstore\n      dup1\n      swap2\n      pop\n      pop\n      0x01\n      swap1\n      sub\n      swap1\n      0x00\n      mstore\n      keccak256(0x00, 0x20)\n      swap1\n      0x05\n      mul\n      add\n      0x00\n      swap1\n      swap2\n      swap1\n      swap2\n      swap1\n      swap2\n      pop\n      0x00\n      dup3\n      add\n      mload\n      dup2\n      0x00\n      add\n      sstore\n      0x20\n      dup3\n      add\n      mload\n      dup2\n      0x01\n      add\n      swap1\n      dup2\n      tag_34\n      swap2\n      swap1\n      tag_35\n      jump\t// in\n    tag_34:\n      pop\n      0x40\n      dup3\n      add\n      mload\n      dup2\n      0x02\n      add\n      swap1\n      dup2\n      tag_36\n      swap2\n      swap1\n      tag_35\n      jump\t// in\n    tag_36:\n      pop\n      0x60\n      dup3\n      add\n      mload\n      dup2\n      0x03\n      add\n      swap1\n      dup2\n      tag_37\n      swap2\n      swap1\n      tag_35\n      jump\t// in\n    tag_37:\n      pop\n      0x80\n      dup3\n      add\n      mload\n      dup2\n      0x04\n      add\n      sstore\n      pop\n      pop\n        /* \"contracts/RegistroMedico.sol\":1184:1384  {... */\n      pop\n        /* \"contracts/RegistroMedico.sol\":1036:1384  function addRegistro(uint256 pacienteID, string memory pacienteNome, string memory diagnostico, string memory tratamento) public somenteProprietario{... */\n      pop\n      pop\n      pop\n      pop\n      jump\t// out\n        /* \"contracts/RegistroMedico.sol\":1392:1561  function getRegistroPaciente(uint256 pacienteID) public view somenteProvedorAutorizado returns (Registro[] memory) {... */\n    tag_18:\n        /* \"contracts/RegistroMedico.sol\":1488:1505  Registro[] memory */\n      0x60\n        /* \"contracts/RegistroMedico.sol\":644:662  provedorAutorizado */\n      0x02\n        /* \"contracts/RegistroMedico.sol\":644:674  provedorAutorizado[msg.sender] */\n      0x00\n        /* \"contracts/RegistroMedico.sol\":663:673  msg.sender */\n      caller\n        /* \"contracts/RegistroMedico.sol\":644:674  provedorAutorizado[msg.sender] */\n      0xffffffffffffffffffffffffffffffffffffffff\n      and\n      0xffffffffffffffffffffffffffffffffffffffff\n      and\n      dup2\n      mstore\n      0x20\n      add\n      swap1\n      dup2\n      mstore\n      0x20\n      add\n      0x00\n      keccak256\n      0x00\n      swap1\n      sload\n      swap1\n      0x0100\n      exp\n      swap1\n      div\n      0xff\n      and\n        /* \"contracts/RegistroMedico.sol\":636:702  require(provedorAutorizado[msg.sender], \"Provedor nao autorizado\") */\n      tag_39\n      jumpi\n      mload(0x40)\n      0x08c379a000000000000000000000000000000000000000000000000000000000\n      dup2\n      mstore\n      0x04\n      add\n      tag_40\n      swap1\n      tag_41\n      jump\t// in\n    tag_40:\n      mload(0x40)\n      dup1\n      swap2\n      sub\n      swap1\n      revert\n    tag_39:\n        /* \"contracts/RegistroMedico.sol\":1525:1541  registroPaciente */\n      0x01\n        /* \"contracts/RegistroMedico.sol\":1525:1553  registroPaciente[pacienteID] */\n      0x00\n        /* \"contracts/RegistroMedico.sol\":1542:1552  pacienteID */\n      dup4\n        /* \"contracts/RegistroMedico.sol\":1525:1553  registroPaciente[pacienteID] */\n      dup2\n      mstore\n      0x20\n      add\n      swap1\n      dup2\n      mstore\n      0x20\n      add\n      0x00\n      keccak256\n        /* \"contracts/RegistroMedico.sol\":1518:1553  return registroPaciente[pacienteID] */\n      dup1\n      sload\n      dup1\n      0x20\n      mul\n      0x20\n      add\n      mload(0x40)\n      swap1\n      dup2\n      add\n      0x40\n      mstore\n      dup1\n      swap3\n      swap2\n      swap1\n      dup2\n      dup2\n      mstore\n      0x20\n      add\n      0x00\n      swap1\n    tag_43:\n      dup3\n      dup3\n      lt\n      iszero\n      tag_44\n      jumpi\n      dup4\n      dup3\n      swap1\n      0x00\n      mstore\n      keccak256(0x00, 0x20)\n      swap1\n      0x05\n      mul\n      add\n      mload(0x40)\n      dup1\n      0xa0\n      add\n      0x40\n      mstore\n      swap1\n      dup2\n      0x00\n      dup3\n      add\n      sload\n      dup2\n      mstore\n      0x20\n      add\n      0x01\n      dup3\n      add\n      dup1\n      sload\n      tag_46\n      swap1\n      tag_47\n      jump\t// in\n    tag_46:\n      dup1\n      0x1f\n      add\n      0x20\n      dup1\n      swap2\n      div\n      mul\n      0x20\n      add\n      mload(0x40)\n      swap1\n      dup2\n      add\n      0x40\n      mstore\n      dup1\n      swap3\n      swap2\n      swap1\n      dup2\n      dup2\n      mstore\n      0x20\n      add\n      dup3\n      dup1\n      sload\n      tag_48\n      swap1\n      tag_47\n      jump\t// in\n    tag_48:\n      dup1\n      iszero\n      tag_49\n      jumpi\n      dup1\n      0x1f\n      lt\n      tag_50\n      jumpi\n      0x0100\n      dup1\n      dup4\n      sload\n      div\n      mul\n      dup4\n      mstore\n      swap2\n      0x20\n      add\n      swap2\n      jump(tag_49)\n    tag_50:\n      dup3\n      add\n      swap2\n      swap1\n      0x00\n      mstore\n      keccak256(0x00, 0x20)\n      swap1\n    tag_51:\n      dup2\n      sload\n      dup2\n      mstore\n      swap1\n      0x01\n      add\n      swap1\n      0x20\n      add\n      dup1\n      dup4\n      gt\n      tag_51\n      jumpi\n      dup3\n      swap1\n      sub\n      0x1f\n      and\n      dup3\n      add\n      swap2\n    tag_49:\n      pop\n      pop\n      pop\n      pop\n      pop\n      dup2\n      mstore\n      0x20\n      add\n      0x02\n      dup3\n      add\n      dup1\n      sload\n      tag_52\n      swap1\n      tag_47\n      jump\t// in\n    tag_52:\n      dup1\n      0x1f\n      add\n      0x20\n      dup1\n      swap2\n      div\n      mul\n      0x20\n      add\n      mload(0x40)\n      swap1\n      dup2\n      add\n      0x40\n      mstore\n      dup1\n      swap3\n      swap2\n      swap1\n      dup2\n      dup2\n      mstore\n      0x20\n      add\n      dup3\n      dup1\n      sload\n      tag_53\n      swap1\n      tag_47\n      jump\t// in\n    tag_53:\n      dup1\n      iszero\n      tag_54\n      jumpi\n      dup1\n      0x1f\n      lt\n      tag_55\n      jumpi\n      0x0100\n      dup1\n      dup4\n      sload\n      div\n      mul\n      dup4\n      mstore\n      swap2\n      0x20\n      add\n      swap2\n      jump(tag_54)\n    tag_55:\n      dup3\n      add\n      swap2\n      swap1\n      0x00\n      mstore\n      keccak256(0x00, 0x20)\n      swap1\n    tag_56:\n      dup2\n      sload\n      dup2\n      mstore\n      swap1\n      0x01\n      add\n      swap1\n      0x20\n      add\n      dup1\n      dup4\n      gt\n      tag_56\n      jumpi\n      dup3\n      swap1\n      sub\n      0x1f\n      and\n      dup3\n      add\n      swap2\n    tag_54:\n      pop\n      pop\n      pop\n      pop\n      pop\n      dup2\n      mstore\n      0x20\n      add\n      0x03\n      dup3\n      add\n      dup1\n      sload\n      tag_57\n      swap1\n      tag_47\n      jump\t// in\n    tag_57:\n      dup1\n      0x1f\n      add\n      0x20\n      dup1\n      swap2\n      div\n      mul\n      0x20\n      add\n      mload(0x40)\n      swap1\n      dup2\n      add\n      0x40\n      mstore\n      dup1\n      swap3\n      swap2\n      swap1\n      dup2\n      dup2\n      mstore\n      0x20\n      add\n      dup3\n      dup1\n      sload\n      tag_58\n      swap1\n      tag_47\n      jump\t// in\n    tag_58:\n      dup1\n      iszero\n      tag_59\n      jumpi\n      dup1\n      0x1f\n      lt\n      tag_60\n      jumpi\n      0x0100\n      dup1\n      dup4\n      sload\n      div\n      mul\n      dup4\n      mstore\n      swap2\n      0x20\n      add\n      swap2\n      jump(tag_59)\n    tag_60:\n      dup3\n      add\n      swap2\n      swap1\n      0x00\n      mstore\n      keccak256(0x00, 0x20)\n      swap1\n    tag_61:\n      dup2\n      sload\n      dup2\n      mstore\n      swap1\n      0x01\n      add\n      swap1\n      0x20\n      add\n      dup1\n      dup4\n      gt\n      tag_61\n      jumpi\n      dup3\n      swap1\n      sub\n      0x1f\n      and\n      dup3\n      add\n      swap2\n    tag_59:\n      pop\n      pop\n      pop\n      pop\n      pop\n      dup2\n      mstore\n      0x20\n      add\n      0x04\n      dup3\n      add\n      sload\n      dup2\n      mstore\n      pop\n      pop\n      dup2\n      mstore\n      0x20\n      add\n      swap1\n      0x01\n      add\n      swap1\n      jump(tag_43)\n    tag_44:\n      pop\n      pop\n      pop\n      pop\n      swap1\n      pop\n        /* \"contracts/RegistroMedico.sol\":1392:1561  function getRegistroPaciente(uint256 pacienteID) public view somenteProvedorAutorizado returns (Registro[] memory) {... */\n      swap2\n      swap1\n      pop\n      jump\t// out\n        /* \"contracts/RegistroMedico.sol\":900:1026  function autorizarProvedor(address provider) public somenteProprietario {... */\n    tag_24:\n        /* \"contracts/RegistroMedico.sol\":495:507  proprietario */\n      0x00\n      dup1\n      sload\n      swap1\n      0x0100\n      exp\n      swap1\n      div\n      0xffffffffffffffffffffffffffffffffffffffff\n      and\n        /* \"contracts/RegistroMedico.sol\":481:507  msg.sender == proprietario */\n      0xffffffffffffffffffffffffffffffffffffffff\n      and\n        /* \"contracts/RegistroMedico.sol\":481:491  msg.sender */\n      caller\n        /* \"contracts/RegistroMedico.sol\":481:507  msg.sender == proprietario */\n      0xffffffffffffffffffffffffffffffffffffffff\n      and\n      eq\n        /* \"contracts/RegistroMedico.sol\":473:560  require(msg.sender == proprietario, \"Somente o proprietario pode utilizar essa funcao\") */\n      tag_63\n      jumpi\n      mload(0x40)\n      0x08c379a000000000000000000000000000000000000000000000000000000000\n      dup2\n      mstore\n      0x04\n      add\n      tag_64\n      swap1\n      tag_29\n      jump\t// in\n    tag_64:\n      mload(0x40)\n      dup1\n      swap2\n      sub\n      swap1\n      revert\n    tag_63:\n        /* \"contracts/RegistroMedico.sol\":1014:1018  true */\n      0x01\n        /* \"contracts/RegistroMedico.sol\":983:1001  provedorAutorizado */\n      0x02\n        /* \"contracts/RegistroMedico.sol\":983:1011  provedorAutorizado[provider] */\n      0x00\n        /* \"contracts/RegistroMedico.sol\":1002:1010  provider */\n      dup4\n        /* \"contracts/RegistroMedico.sol\":983:1011  provedorAutorizado[provider] */\n      0xffffffffffffffffffffffffffffffffffffffff\n      and\n      0xffffffffffffffffffffffffffffffffffffffff\n      and\n      dup2\n      mstore\n      0x20\n      add\n      swap1\n      dup2\n      mstore\n      0x20\n      add\n      0x00\n      keccak256\n      0x00\n        /* \"contracts/RegistroMedico.sol\":983:1018  provedorAutorizado[provider] = true */\n      0x0100\n      exp\n      dup2\n      sload\n      dup2\n      0xff\n      mul\n      not\n      and\n      swap1\n      dup4\n      iszero\n      iszero\n      mul\n      or\n      swap1\n      sstore\n      pop\n        /* \"contracts/RegistroMedico.sol\":900:1026  function autorizarProvedor(address provider) public somenteProprietario {... */\n      pop\n      jump\t// out\n        /* \"#utility.yul\":7:133   */\n    tag_66:\n        /* \"#utility.yul\":44:51   */\n      0x00\n        /* \"#utility.yul\":84:126   */\n      0xffffffffffffffffffffffffffffffffffffffff\n        /* \"#utility.yul\":77:82   */\n      dup3\n        /* \"#utility.yul\":73:127   */\n      and\n        /* \"#utility.yul\":62:127   */\n      swap1\n      pop\n        /* \"#utility.yul\":7:133   */\n      swap2\n      swap1\n      pop\n      jump\t// out\n        /* \"#utility.yul\":139:235   */\n    tag_67:\n        /* \"#utility.yul\":176:183   */\n      0x00\n        /* \"#utility.yul\":205:229   */\n      tag_124\n        /* \"#utility.yul\":223:228   */\n      dup3\n        /* \"#utility.yul\":205:229   */\n      tag_66\n      jump\t// in\n    tag_124:\n        /* \"#utility.yul\":194:229   */\n      swap1\n      pop\n        /* \"#utility.yul\":139:235   */\n      swap2\n      swap1\n      pop\n      jump\t// out\n        /* \"#utility.yul\":241:359   */\n    tag_68:\n        /* \"#utility.yul\":328:352   */\n      tag_126\n        /* \"#utility.yul\":346:351   */\n      dup2\n        /* \"#utility.yul\":328:352   */\n      tag_67\n      jump\t// in\n    tag_126:\n        /* \"#utility.yul\":323:326   */\n      dup3\n        /* \"#utility.yul\":316:353   */\n      mstore\n        /* \"#utility.yul\":241:359   */\n      pop\n      pop\n      jump\t// out\n        /* \"#utility.yul\":365:587   */\n    tag_10:\n        /* \"#utility.yul\":458:462   */\n      0x00\n        /* \"#utility.yul\":496:498   */\n      0x20\n        /* \"#utility.yul\":485:494   */\n      dup3\n        /* \"#utility.yul\":481:499   */\n      add\n        /* \"#utility.yul\":473:499   */\n      swap1\n      pop\n        /* \"#utility.yul\":509:580   */\n      tag_128\n        /* \"#utility.yul\":577:578   */\n      0x00\n        /* \"#utility.yul\":566:575   */\n      dup4\n        /* \"#utility.yul\":562:579   */\n      add\n        /* \"#utility.yul\":553:559   */\n      dup5\n        /* \"#utility.yul\":509:580   */\n      tag_68\n      jump\t// in\n    tag_128:\n        /* \"#utility.yul\":365:587   */\n      swap3\n      swap2\n      pop\n      pop\n      jump\t// out\n        /* \"#utility.yul\":593:668   */\n    tag_69:\n        /* \"#utility.yul\":626:632   */\n      0x00\n        /* \"#utility.yul\":659:661   */\n      0x40\n        /* \"#utility.yul\":653:662   */\n      mload\n        /* \"#utility.yul\":643:662   */\n      swap1\n      pop\n        /* \"#utility.yul\":593:668   */\n      swap1\n      jump\t// out\n        /* \"#utility.yul\":674:791   */\n    tag_70:\n        /* \"#utility.yul\":783:784   */\n      0x00\n        /* \"#utility.yul\":780:781   */\n      dup1\n        /* \"#utility.yul\":773:785   */\n      revert\n        /* \"#utility.yul\":797:914   */\n    tag_71:\n        /* \"#utility.yul\":906:907   */\n      0x00\n        /* \"#utility.yul\":903:904   */\n      dup1\n        /* \"#utility.yul\":896:908   */\n      revert\n        /* \"#utility.yul\":920:997   */\n    tag_72:\n        /* \"#utility.yul\":957:964   */\n      0x00\n        /* \"#utility.yul\":986:991   */\n      dup2\n        /* \"#utility.yul\":975:991   */\n      swap1\n      pop\n        /* \"#utility.yul\":920:997   */\n      swap2\n      swap1\n      pop\n      jump\t// out\n        /* \"#utility.yul\":1003:1125   */\n    tag_73:\n        /* \"#utility.yul\":1076:1100   */\n      tag_134\n        /* \"#utility.yul\":1094:1099   */\n      dup2\n        /* \"#utility.yul\":1076:1100   */\n      tag_72\n      jump\t// in\n    tag_134:\n        /* \"#utility.yul\":1069:1074   */\n      dup2\n        /* \"#utility.yul\":1066:1101   */\n      eq\n        /* \"#utility.yul\":1056:1119   */\n      tag_135\n      jumpi\n        /* \"#utility.yul\":1115:1116   */\n      0x00\n        /* \"#utility.yul\":1112:1113   */\n      dup1\n        /* \"#utility.yul\":1105:1117   */\n      revert\n        /* \"#utility.yul\":1056:1119   */\n    tag_135:\n        /* \"#utility.yul\":1003:1125   */\n      pop\n      jump\t// out\n        /* \"#utility.yul\":1131:1270   */\n    tag_74:\n        /* \"#utility.yul\":1177:1182   */\n      0x00\n        /* \"#utility.yul\":1215:1221   */\n      dup2\n        /* \"#utility.yul\":1202:1222   */\n      calldataload\n        /* \"#utility.yul\":1193:1222   */\n      swap1\n      pop\n        /* \"#utility.yul\":1231:1264   */\n      tag_137\n        /* \"#utility.yul\":1258:1263   */\n      dup2\n        /* \"#utility.yul\":1231:1264   */\n      tag_73\n      jump\t// in\n    tag_137:\n        /* \"#utility.yul\":1131:1270   */\n      swap3\n      swap2\n      pop\n      pop\n      jump\t// out\n        /* \"#utility.yul\":1276:1393   */\n    tag_75:\n        /* \"#utility.yul\":1385:1386   */\n      0x00\n        /* \"#utility.yul\":1382:1383   */\n      dup1\n        /* \"#utility.yul\":1375:1387   */\n      revert\n        /* \"#utility.yul\":1399:1516   */\n    tag_76:\n        /* \"#utility.yul\":1508:1509   */\n      0x00\n        /* \"#utility.yul\":1505:1506   */\n      dup1\n        /* \"#utility.yul\":1498:1510   */\n      revert\n        /* \"#utility.yul\":1522:1624   */\n    tag_77:\n        /* \"#utility.yul\":1563:1569   */\n      0x00\n        /* \"#utility.yul\":1614:1616   */\n      0x1f\n        /* \"#utility.yul\":1610:1617   */\n      not\n        /* \"#utility.yul\":1605:1607   */\n      0x1f\n        /* \"#utility.yul\":1598:1603   */\n      dup4\n        /* \"#utility.yul\":1594:1608   */\n      add\n        /* \"#utility.yul\":1590:1618   */\n      and\n        /* \"#utility.yul\":1580:1618   */\n      swap1\n      pop\n        /* \"#utility.yul\":1522:1624   */\n      swap2\n      swap1\n      pop\n      jump\t// out\n        /* \"#utility.yul\":1630:1810   */\n    tag_78:\n        /* \"#utility.yul\":1678:1755   */\n      0x4e487b7100000000000000000000000000000000000000000000000000000000\n        /* \"#utility.yul\":1675:1676   */\n      0x00\n        /* \"#utility.yul\":1668:1756   */\n      mstore\n        /* \"#utility.yul\":1775:1779   */\n      0x41\n        /* \"#utility.yul\":1772:1773   */\n      0x04\n        /* \"#utility.yul\":1765:1780   */\n      mstore\n        /* \"#utility.yul\":1799:1803   */\n      0x24\n        /* \"#utility.yul\":1796:1797   */\n      0x00\n        /* \"#utility.yul\":1789:1804   */\n      revert\n        /* \"#utility.yul\":1816:2097   */\n    tag_79:\n        /* \"#utility.yul\":1899:1926   */\n      tag_143\n        /* \"#utility.yul\":1921:1925   */\n      dup3\n        /* \"#utility.yul\":1899:1926   */\n      tag_77\n      jump\t// in\n    tag_143:\n        /* \"#utility.yul\":1891:1897   */\n      dup2\n        /* \"#utility.yul\":1887:1927   */\n      add\n        /* \"#utility.yul\":2029:2035   */\n      dup2\n        /* \"#utility.yul\":2017:2027   */\n      dup2\n        /* \"#utility.yul\":2014:2036   */\n      lt\n        /* \"#utility.yul\":1993:2011   */\n      0xffffffffffffffff\n        /* \"#utility.yul\":1981:1991   */\n      dup3\n        /* \"#utility.yul\":1978:2012   */\n      gt\n        /* \"#utility.yul\":1975:2037   */\n      or\n        /* \"#utility.yul\":1972:2060   */\n      iszero\n      tag_144\n      jumpi\n        /* \"#utility.yul\":2040:2058   */\n      tag_145\n      tag_78\n      jump\t// in\n    tag_145:\n        /* \"#utility.yul\":1972:2060   */\n    tag_144:\n        /* \"#utility.yul\":2080:2090   */\n      dup1\n        /* \"#utility.yul\":2076:2078   */\n      0x40\n        /* \"#utility.yul\":2069:2091   */\n      mstore\n        /* \"#utility.yul\":1859:2097   */\n      pop\n        /* \"#utility.yul\":1816:2097   */\n      pop\n      pop\n      jump\t// out\n        /* \"#utility.yul\":2103:2232   */\n    tag_80:\n        /* \"#utility.yul\":2137:2143   */\n      0x00\n        /* \"#utility.yul\":2164:2184   */\n      tag_147\n      tag_69\n      jump\t// in\n    tag_147:\n        /* \"#utility.yul\":2154:2184   */\n      swap1\n      pop\n        /* \"#utility.yul\":2193:2226   */\n      tag_148\n        /* \"#utility.yul\":2221:2225   */\n      dup3\n        /* \"#utility.yul\":2213:2219   */\n      dup3\n        /* \"#utility.yul\":2193:2226   */\n      tag_79\n      jump\t// in\n    tag_148:\n        /* \"#utility.yul\":2103:2232   */\n      swap2\n      swap1\n      pop\n      jump\t// out\n        /* \"#utility.yul\":2238:2546   */\n    tag_81:\n        /* \"#utility.yul\":2300:2304   */\n      0x00\n        /* \"#utility.yul\":2390:2408   */\n      0xffffffffffffffff\n        /* \"#utility.yul\":2382:2388   */\n      dup3\n        /* \"#utility.yul\":2379:2409   */\n      gt\n        /* \"#utility.yul\":2376:2432   */\n      iszero\n      tag_150\n      jumpi\n        /* \"#utility.yul\":2412:2430   */\n      tag_151\n      tag_78\n      jump\t// in\n    tag_151:\n        /* \"#utility.yul\":2376:2432   */\n    tag_150:\n        /* \"#utility.yul\":2450:2479   */\n      tag_152\n        /* \"#utility.yul\":2472:2478   */\n      dup3\n        /* \"#utility.yul\":2450:2479   */\n      tag_77\n      jump\t// in\n    tag_152:\n        /* \"#utility.yul\":2442:2479   */\n      swap1\n      pop\n        /* \"#utility.yul\":2534:2538   */\n      0x20\n        /* \"#utility.yul\":2528:2532   */\n      dup2\n        /* \"#utility.yul\":2524:2539   */\n      add\n        /* \"#utility.yul\":2516:2539   */\n      swap1\n      pop\n        /* \"#utility.yul\":2238:2546   */\n      swap2\n      swap1\n      pop\n      jump\t// out\n        /* \"#utility.yul\":2552:2700   */\n    tag_82:\n        /* \"#utility.yul\":2650:2656   */\n      dup3\n        /* \"#utility.yul\":2645:2648   */\n      dup2\n        /* \"#utility.yul\":2640:2643   */\n      dup4\n        /* \"#utility.yul\":2627:2657   */\n      calldatacopy\n        /* \"#utility.yul\":2691:2692   */\n      0x00\n        /* \"#utility.yul\":2682:2688   */\n      dup4\n        /* \"#utility.yul\":2677:2680   */\n      dup4\n        /* \"#utility.yul\":2673:2689   */\n      add\n        /* \"#utility.yul\":2666:2693   */\n      mstore\n        /* \"#utility.yul\":2552:2700   */\n      pop\n      pop\n      pop\n      jump\t// out\n        /* \"#utility.yul\":2706:3131   */\n    tag_83:\n        /* \"#utility.yul\":2784:2789   */\n      0x00\n        /* \"#utility.yul\":2809:2875   */\n      tag_155\n        /* \"#utility.yul\":2825:2874   */\n      tag_156\n        /* \"#utility.yul\":2867:2873   */\n      dup5\n        /* \"#utility.yul\":2825:2874   */\n      tag_81\n      jump\t// in\n    tag_156:\n        /* \"#utility.yul\":2809:2875   */\n      tag_80\n      jump\t// in\n    tag_155:\n        /* \"#utility.yul\":2800:2875   */\n      swap1\n      pop\n        /* \"#utility.yul\":2898:2904   */\n      dup3\n        /* \"#utility.yul\":2891:2896   */\n      dup2\n        /* \"#utility.yul\":2884:2905   */\n      mstore\n        /* \"#utility.yul\":2936:2940   */\n      0x20\n        /* \"#utility.yul\":2929:2934   */\n      dup2\n        /* \"#utility.yul\":2925:2941   */\n      add\n        /* \"#utility.yul\":2974:2977   */\n      dup5\n        /* \"#utility.yul\":2965:2971   */\n      dup5\n        /* \"#utility.yul\":2960:2963   */\n      dup5\n        /* \"#utility.yul\":2956:2972   */\n      add\n        /* \"#utility.yul\":2953:2978   */\n      gt\n        /* \"#utility.yul\":2950:3062   */\n      iszero\n      tag_157\n      jumpi\n        /* \"#utility.yul\":2981:3060   */\n      tag_158\n      tag_76\n      jump\t// in\n    tag_158:\n        /* \"#utility.yul\":2950:3062   */\n    tag_157:\n        /* \"#utility.yul\":3071:3125   */\n      tag_159\n        /* \"#utility.yul\":3118:3124   */\n      dup5\n        /* \"#utility.yul\":3113:3116   */\n      dup3\n        /* \"#utility.yul\":3108:3111   */\n      dup6\n        /* \"#utility.yul\":3071:3125   */\n      tag_82\n      jump\t// in\n    tag_159:\n        /* \"#utility.yul\":2790:3131   */\n      pop\n        /* \"#utility.yul\":2706:3131   */\n      swap4\n      swap3\n      pop\n      pop\n      pop\n      jump\t// out\n        /* \"#utility.yul\":3151:3491   */\n    tag_84:\n        /* \"#utility.yul\":3207:3212   */\n      0x00\n        /* \"#utility.yul\":3256:3259   */\n      dup3\n        /* \"#utility.yul\":3249:3253   */\n      0x1f\n        /* \"#utility.yul\":3241:3247   */\n      dup4\n        /* \"#utility.yul\":3237:3254   */\n      add\n        /* \"#utility.yul\":3233:3260   */\n      slt\n        /* \"#utility.yul\":3223:3345   */\n      tag_161\n      jumpi\n        /* \"#utility.yul\":3264:3343   */\n      tag_162\n      tag_75\n      jump\t// in\n    tag_162:\n        /* \"#utility.yul\":3223:3345   */\n    tag_161:\n        /* \"#utility.yul\":3381:3387   */\n      dup2\n        /* \"#utility.yul\":3368:3388   */\n      calldataload\n        /* \"#utility.yul\":3406:3485   */\n      tag_163\n        /* \"#utility.yul\":3481:3484   */\n      dup5\n        /* \"#utility.yul\":3473:3479   */\n      dup3\n        /* \"#utility.yul\":3466:3470   */\n      0x20\n        /* \"#utility.yul\":3458:3464   */\n      dup7\n        /* \"#utility.yul\":3454:3471   */\n      add\n        /* \"#utility.yul\":3406:3485   */\n      tag_83\n      jump\t// in\n    tag_163:\n        /* \"#utility.yul\":3397:3485   */\n      swap2\n      pop\n        /* \"#utility.yul\":3213:3491   */\n      pop\n        /* \"#utility.yul\":3151:3491   */\n      swap3\n      swap2\n      pop\n      pop\n      jump\t// out\n        /* \"#utility.yul\":3497:4802   */\n    tag_13:\n        /* \"#utility.yul\":3613:3619   */\n      0x00\n        /* \"#utility.yul\":3621:3627   */\n      dup1\n        /* \"#utility.yul\":3629:3635   */\n      0x00\n        /* \"#utility.yul\":3637:3643   */\n      dup1\n        /* \"#utility.yul\":3686:3689   */\n      0x80\n        /* \"#utility.yul\":3674:3683   */\n      dup6\n        /* \"#utility.yul\":3665:3672   */\n      dup8\n        /* \"#utility.yul\":3661:3684   */\n      sub\n        /* \"#utility.yul\":3657:3690   */\n      slt\n        /* \"#utility.yul\":3654:3774   */\n      iszero\n      tag_165\n      jumpi\n        /* \"#utility.yul\":3693:3772   */\n      tag_166\n      tag_70\n      jump\t// in\n    tag_166:\n        /* \"#utility.yul\":3654:3774   */\n    tag_165:\n        /* \"#utility.yul\":3813:3814   */\n      0x00\n        /* \"#utility.yul\":3838:3891   */\n      tag_167\n        /* \"#utility.yul\":3883:3890   */\n      dup8\n        /* \"#utility.yul\":3874:3880   */\n      dup3\n        /* \"#utility.yul\":3863:3872   */\n      dup9\n        /* \"#utility.yul\":3859:3881   */\n      add\n        /* \"#utility.yul\":3838:3891   */\n      tag_74\n      jump\t// in\n    tag_167:\n        /* \"#utility.yul\":3828:3891   */\n      swap5\n      pop\n        /* \"#utility.yul\":3784:3901   */\n      pop\n        /* \"#utility.yul\":3968:3970   */\n      0x20\n        /* \"#utility.yul\":3957:3966   */\n      dup6\n        /* \"#utility.yul\":3953:3971   */\n      add\n        /* \"#utility.yul\":3940:3972   */\n      calldataload\n        /* \"#utility.yul\":3999:4017   */\n      0xffffffffffffffff\n        /* \"#utility.yul\":3991:3997   */\n      dup2\n        /* \"#utility.yul\":3988:4018   */\n      gt\n        /* \"#utility.yul\":3985:4102   */\n      iszero\n      tag_168\n      jumpi\n        /* \"#utility.yul\":4021:4100   */\n      tag_169\n      tag_71\n      jump\t// in\n    tag_169:\n        /* \"#utility.yul\":3985:4102   */\n    tag_168:\n        /* \"#utility.yul\":4126:4189   */\n      tag_170\n        /* \"#utility.yul\":4181:4188   */\n      dup8\n        /* \"#utility.yul\":4172:4178   */\n      dup3\n        /* \"#utility.yul\":4161:4170   */\n      dup9\n        /* \"#utility.yul\":4157:4179   */\n      add\n        /* \"#utility.yul\":4126:4189   */\n      tag_84\n      jump\t// in\n    tag_170:\n        /* \"#utility.yul\":4116:4189   */\n      swap4\n      pop\n        /* \"#utility.yul\":3911:4199   */\n      pop\n        /* \"#utility.yul\":4266:4268   */\n      0x40\n        /* \"#utility.yul\":4255:4264   */\n      dup6\n        /* \"#utility.yul\":4251:4269   */\n      add\n        /* \"#utility.yul\":4238:4270   */\n      calldataload\n        /* \"#utility.yul\":4297:4315   */\n      0xffffffffffffffff\n        /* \"#utility.yul\":4289:4295   */\n      dup2\n        /* \"#utility.yul\":4286:4316   */\n      gt\n        /* \"#utility.yul\":4283:4400   */\n      iszero\n      tag_171\n      jumpi\n        /* \"#utility.yul\":4319:4398   */\n      tag_172\n      tag_71\n      jump\t// in\n    tag_172:\n        /* \"#utility.yul\":4283:4400   */\n    tag_171:\n        /* \"#utility.yul\":4424:4487   */\n      tag_173\n        /* \"#utility.yul\":4479:4486   */\n      dup8\n        /* \"#utility.yul\":4470:4476   */\n      dup3\n        /* \"#utility.yul\":4459:4468   */\n      dup9\n        /* \"#utility.yul\":4455:4477   */\n      add\n        /* \"#utility.yul\":4424:4487   */\n      tag_84\n      jump\t// in\n    tag_173:\n        /* \"#utility.yul\":4414:4487   */\n      swap3\n      pop\n        /* \"#utility.yul\":4209:4497   */\n      pop\n        /* \"#utility.yul\":4564:4566   */\n      0x60\n        /* \"#utility.yul\":4553:4562   */\n      dup6\n        /* \"#utility.yul\":4549:4567   */\n      add\n        /* \"#utility.yul\":4536:4568   */\n      calldataload\n        /* \"#utility.yul\":4595:4613   */\n      0xffffffffffffffff\n        /* \"#utility.yul\":4587:4593   */\n      dup2\n        /* \"#utility.yul\":4584:4614   */\n      gt\n        /* \"#utility.yul\":4581:4698   */\n      iszero\n      tag_174\n      jumpi\n        /* \"#utility.yul\":4617:4696   */\n      tag_175\n      tag_71\n      jump\t// in\n    tag_175:\n        /* \"#utility.yul\":4581:4698   */\n    tag_174:\n        /* \"#utility.yul\":4722:4785   */\n      tag_176\n        /* \"#utility.yul\":4777:4784   */\n      dup8\n        /* \"#utility.yul\":4768:4774   */\n      dup3\n        /* \"#utility.yul\":4757:4766   */\n      dup9\n        /* \"#utility.yul\":4753:4775   */\n      add\n        /* \"#utility.yul\":4722:4785   */\n      tag_84\n      jump\t// in\n    tag_176:\n        /* \"#utility.yul\":4712:4785   */\n      swap2\n      pop\n        /* \"#utility.yul\":4507:4795   */\n      pop\n        /* \"#utility.yul\":3497:4802   */\n      swap3\n      swap6\n      swap2\n      swap5\n      pop\n      swap3\n      pop\n      jump\t// out\n        /* \"#utility.yul\":4808:5137   */\n    tag_17:\n        /* \"#utility.yul\":4867:4873   */\n      0x00\n        /* \"#utility.yul\":4916:4918   */\n      0x20\n        /* \"#utility.yul\":4904:4913   */\n      dup3\n        /* \"#utility.yul\":4895:4902   */\n      dup5\n        /* \"#utility.yul\":4891:4914   */\n      sub\n        /* \"#utility.yul\":4887:4919   */\n      slt\n        /* \"#utility.yul\":4884:5003   */\n      iszero\n      tag_178\n      jumpi\n        /* \"#utility.yul\":4922:5001   */\n      tag_179\n      tag_70\n      jump\t// in\n    tag_179:\n        /* \"#utility.yul\":4884:5003   */\n    tag_178:\n        /* \"#utility.yul\":5042:5043   */\n      0x00\n        /* \"#utility.yul\":5067:5120   */\n      tag_180\n        /* \"#utility.yul\":5112:5119   */\n      dup5\n        /* \"#utility.yul\":5103:5109   */\n      dup3\n        /* \"#utility.yul\":5092:5101   */\n      dup6\n        /* \"#utility.yul\":5088:5110   */\n      add\n        /* \"#utility.yul\":5067:5120   */\n      tag_74\n      jump\t// in\n    tag_180:\n        /* \"#utility.yul\":5057:5120   */\n      swap2\n      pop\n        /* \"#utility.yul\":5013:5130   */\n      pop\n        /* \"#utility.yul\":4808:5137   */\n      swap3\n      swap2\n      pop\n      pop\n      jump\t// out\n        /* \"#utility.yul\":5143:5281   */\n    tag_85:\n        /* \"#utility.yul\":5234:5240   */\n      0x00\n        /* \"#utility.yul\":5268:5273   */\n      dup2\n        /* \"#utility.yul\":5262:5274   */\n      mload\n        /* \"#utility.yul\":5252:5274   */\n      swap1\n      pop\n        /* \"#utility.yul\":5143:5281   */\n      swap2\n      swap1\n      pop\n      jump\t// out\n        /* \"#utility.yul\":5287:5495   */\n    tag_86:\n        /* \"#utility.yul\":5410:5421   */\n      0x00\n        /* \"#utility.yul\":5444:5450   */\n      dup3\n        /* \"#utility.yul\":5439:5442   */\n      dup3\n        /* \"#utility.yul\":5432:5451   */\n      mstore\n        /* \"#utility.yul\":5484:5488   */\n      0x20\n        /* \"#utility.yul\":5479:5482   */\n      dup3\n        /* \"#utility.yul\":5475:5489   */\n      add\n        /* \"#utility.yul\":5460:5489   */\n      swap1\n      pop\n        /* \"#utility.yul\":5287:5495   */\n      swap3\n      swap2\n      pop\n      pop\n      jump\t// out\n        /* \"#utility.yul\":5501:5657   */\n    tag_87:\n        /* \"#utility.yul\":5592:5596   */\n      0x00\n        /* \"#utility.yul\":5615:5618   */\n      dup2\n        /* \"#utility.yul\":5607:5618   */\n      swap1\n      pop\n        /* \"#utility.yul\":5645:5649   */\n      0x20\n        /* \"#utility.yul\":5640:5643   */\n      dup3\n        /* \"#utility.yul\":5636:5650   */\n      add\n        /* \"#utility.yul\":5628:5650   */\n      swap1\n      pop\n        /* \"#utility.yul\":5501:5657   */\n      swap2\n      swap1\n      pop\n      jump\t// out\n        /* \"#utility.yul\":5663:5771   */\n    tag_88:\n        /* \"#utility.yul\":5740:5764   */\n      tag_185\n        /* \"#utility.yul\":5758:5763   */\n      dup2\n        /* \"#utility.yul\":5740:5764   */\n      tag_72\n      jump\t// in\n    tag_185:\n        /* \"#utility.yul\":5735:5738   */\n      dup3\n        /* \"#utility.yul\":5728:5765   */\n      mstore\n        /* \"#utility.yul\":5663:5771   */\n      pop\n      pop\n      jump\t// out\n        /* \"#utility.yul\":5777:5876   */\n    tag_89:\n        /* \"#utility.yul\":5829:5835   */\n      0x00\n        /* \"#utility.yul\":5863:5868   */\n      dup2\n        /* \"#utility.yul\":5857:5869   */\n      mload\n        /* \"#utility.yul\":5847:5869   */\n      swap1\n      pop\n        /* \"#utility.yul\":5777:5876   */\n      swap2\n      swap1\n      pop\n      jump\t// out\n        /* \"#utility.yul\":5882:6041   */\n    tag_90:\n        /* \"#utility.yul\":5956:5967   */\n      0x00\n        /* \"#utility.yul\":5990:5996   */\n      dup3\n        /* \"#utility.yul\":5985:5988   */\n      dup3\n        /* \"#utility.yul\":5978:5997   */\n      mstore\n        /* \"#utility.yul\":6030:6034   */\n      0x20\n        /* \"#utility.yul\":6025:6028   */\n      dup3\n        /* \"#utility.yul\":6021:6035   */\n      add\n        /* \"#utility.yul\":6006:6035   */\n      swap1\n      pop\n        /* \"#utility.yul\":5882:6041   */\n      swap3\n      swap2\n      pop\n      pop\n      jump\t// out\n        /* \"#utility.yul\":6047:6186   */\n    tag_91:\n        /* \"#utility.yul\":6136:6142   */\n      dup3\n        /* \"#utility.yul\":6131:6134   */\n      dup2\n        /* \"#utility.yul\":6126:6129   */\n      dup4\n        /* \"#utility.yul\":6120:6143   */\n      mcopy\n        /* \"#utility.yul\":6177:6178   */\n      0x00\n        /* \"#utility.yul\":6168:6174   */\n      dup4\n        /* \"#utility.yul\":6163:6166   */\n      dup4\n        /* \"#utility.yul\":6159:6175   */\n      add\n        /* \"#utility.yul\":6152:6179   */\n      mstore\n        /* \"#utility.yul\":6047:6186   */\n      pop\n      pop\n      pop\n      jump\t// out\n        /* \"#utility.yul\":6192:6549   */\n    tag_92:\n        /* \"#utility.yul\":6270:6273   */\n      0x00\n        /* \"#utility.yul\":6298:6337   */\n      tag_190\n        /* \"#utility.yul\":6331:6336   */\n      dup3\n        /* \"#utility.yul\":6298:6337   */\n      tag_89\n      jump\t// in\n    tag_190:\n        /* \"#utility.yul\":6353:6414   */\n      tag_191\n        /* \"#utility.yul\":6407:6413   */\n      dup2\n        /* \"#utility.yul\":6402:6405   */\n      dup6\n        /* \"#utility.yul\":6353:6414   */\n      tag_90\n      jump\t// in\n    tag_191:\n        /* \"#utility.yul\":6346:6414   */\n      swap4\n      pop\n        /* \"#utility.yul\":6423:6488   */\n      tag_192\n        /* \"#utility.yul\":6481:6487   */\n      dup2\n        /* \"#utility.yul\":6476:6479   */\n      dup6\n        /* \"#utility.yul\":6469:6473   */\n      0x20\n        /* \"#utility.yul\":6462:6467   */\n      dup7\n        /* \"#utility.yul\":6458:6474   */\n      add\n        /* \"#utility.yul\":6423:6488   */\n      tag_91\n      jump\t// in\n    tag_192:\n        /* \"#utility.yul\":6513:6542   */\n      tag_193\n        /* \"#utility.yul\":6535:6541   */\n      dup2\n        /* \"#utility.yul\":6513:6542   */\n      tag_77\n      jump\t// in\n    tag_193:\n        /* \"#utility.yul\":6508:6511   */\n      dup5\n        /* \"#utility.yul\":6504:6543   */\n      add\n        /* \"#utility.yul\":6497:6543   */\n      swap2\n      pop\n        /* \"#utility.yul\":6274:6549   */\n      pop\n        /* \"#utility.yul\":6192:6549   */\n      swap3\n      swap2\n      pop\n      pop\n      jump\t// out\n        /* \"#utility.yul\":6635:7925   */\n    tag_93:\n        /* \"#utility.yul\":6742:6745   */\n      0x00\n        /* \"#utility.yul\":6778:6782   */\n      0xa0\n        /* \"#utility.yul\":6773:6776   */\n      dup4\n        /* \"#utility.yul\":6769:6783   */\n      add\n        /* \"#utility.yul\":6871:6875   */\n      0x00\n        /* \"#utility.yul\":6864:6869   */\n      dup4\n        /* \"#utility.yul\":6860:6876   */\n      add\n        /* \"#utility.yul\":6854:6877   */\n      mload\n        /* \"#utility.yul\":6890:6953   */\n      tag_195\n        /* \"#utility.yul\":6947:6951   */\n      0x00\n        /* \"#utility.yul\":6942:6945   */\n      dup7\n        /* \"#utility.yul\":6938:6952   */\n      add\n        /* \"#utility.yul\":6924:6936   */\n      dup3\n        /* \"#utility.yul\":6890:6953   */\n      tag_88\n      jump\t// in\n    tag_195:\n        /* \"#utility.yul\":6793:6963   */\n      pop\n        /* \"#utility.yul\":7053:7057   */\n      0x20\n        /* \"#utility.yul\":7046:7051   */\n      dup4\n        /* \"#utility.yul\":7042:7058   */\n      add\n        /* \"#utility.yul\":7036:7059   */\n      mload\n        /* \"#utility.yul\":7106:7109   */\n      dup5\n        /* \"#utility.yul\":7100:7104   */\n      dup3\n        /* \"#utility.yul\":7096:7110   */\n      sub\n        /* \"#utility.yul\":7089:7093   */\n      0x20\n        /* \"#utility.yul\":7084:7087   */\n      dup7\n        /* \"#utility.yul\":7080:7094   */\n      add\n        /* \"#utility.yul\":7073:7111   */\n      mstore\n        /* \"#utility.yul\":7132:7205   */\n      tag_196\n        /* \"#utility.yul\":7200:7204   */\n      dup3\n        /* \"#utility.yul\":7186:7198   */\n      dup3\n        /* \"#utility.yul\":7132:7205   */\n      tag_92\n      jump\t// in\n    tag_196:\n        /* \"#utility.yul\":7124:7205   */\n      swap2\n      pop\n        /* \"#utility.yul\":6973:7216   */\n      pop\n        /* \"#utility.yul\":7305:7309   */\n      0x40\n        /* \"#utility.yul\":7298:7303   */\n      dup4\n        /* \"#utility.yul\":7294:7310   */\n      add\n        /* \"#utility.yul\":7288:7311   */\n      mload\n        /* \"#utility.yul\":7358:7361   */\n      dup5\n        /* \"#utility.yul\":7352:7356   */\n      dup3\n        /* \"#utility.yul\":7348:7362   */\n      sub\n        /* \"#utility.yul\":7341:7345   */\n      0x40\n        /* \"#utility.yul\":7336:7339   */\n      dup7\n        /* \"#utility.yul\":7332:7346   */\n      add\n        /* \"#utility.yul\":7325:7363   */\n      mstore\n        /* \"#utility.yul\":7384:7457   */\n      tag_197\n        /* \"#utility.yul\":7452:7456   */\n      dup3\n        /* \"#utility.yul\":7438:7450   */\n      dup3\n        /* \"#utility.yul\":7384:7457   */\n      tag_92\n      jump\t// in\n    tag_197:\n        /* \"#utility.yul\":7376:7457   */\n      swap2\n      pop\n        /* \"#utility.yul\":7226:7468   */\n      pop\n        /* \"#utility.yul\":7556:7560   */\n      0x60\n        /* \"#utility.yul\":7549:7554   */\n      dup4\n        /* \"#utility.yul\":7545:7561   */\n      add\n        /* \"#utility.yul\":7539:7562   */\n      mload\n        /* \"#utility.yul\":7609:7612   */\n      dup5\n        /* \"#utility.yul\":7603:7607   */\n      dup3\n        /* \"#utility.yul\":7599:7613   */\n      sub\n        /* \"#utility.yul\":7592:7596   */\n      0x60\n        /* \"#utility.yul\":7587:7590   */\n      dup7\n        /* \"#utility.yul\":7583:7597   */\n      add\n        /* \"#utility.yul\":7576:7614   */\n      mstore\n        /* \"#utility.yul\":7635:7708   */\n      tag_198\n        /* \"#utility.yul\":7703:7707   */\n      dup3\n        /* \"#utility.yul\":7689:7701   */\n      dup3\n        /* \"#utility.yul\":7635:7708   */\n      tag_92\n      jump\t// in\n    tag_198:\n        /* \"#utility.yul\":7627:7708   */\n      swap2\n      pop\n        /* \"#utility.yul\":7478:7719   */\n      pop\n        /* \"#utility.yul\":7806:7810   */\n      0x80\n        /* \"#utility.yul\":7799:7804   */\n      dup4\n        /* \"#utility.yul\":7795:7811   */\n      add\n        /* \"#utility.yul\":7789:7812   */\n      mload\n        /* \"#utility.yul\":7825:7888   */\n      tag_199\n        /* \"#utility.yul\":7882:7886   */\n      0x80\n        /* \"#utility.yul\":7877:7880   */\n      dup7\n        /* \"#utility.yul\":7873:7887   */\n      add\n        /* \"#utility.yul\":7859:7871   */\n      dup3\n        /* \"#utility.yul\":7825:7888   */\n      tag_88\n      jump\t// in\n    tag_199:\n        /* \"#utility.yul\":7729:7898   */\n      pop\n        /* \"#utility.yul\":7915:7919   */\n      dup1\n        /* \"#utility.yul\":7908:7919   */\n      swap2\n      pop\n        /* \"#utility.yul\":6747:7925   */\n      pop\n        /* \"#utility.yul\":6635:7925   */\n      swap3\n      swap2\n      pop\n      pop\n      jump\t// out\n        /* \"#utility.yul\":7931:8183   */\n    tag_94:\n        /* \"#utility.yul\":8048:8058   */\n      0x00\n        /* \"#utility.yul\":8083:8177   */\n      tag_201\n        /* \"#utility.yul\":8173:8176   */\n      dup4\n        /* \"#utility.yul\":8165:8171   */\n      dup4\n        /* \"#utility.yul\":8083:8177   */\n      tag_93\n      jump\t// in\n    tag_201:\n        /* \"#utility.yul\":8069:8177   */\n      swap1\n      pop\n        /* \"#utility.yul\":7931:8183   */\n      swap3\n      swap2\n      pop\n      pop\n      jump\t// out\n        /* \"#utility.yul\":8189:8326   */\n    tag_95:\n        /* \"#utility.yul\":8283:8287   */\n      0x00\n        /* \"#utility.yul\":8315:8319   */\n      0x20\n        /* \"#utility.yul\":8310:8313   */\n      dup3\n        /* \"#utility.yul\":8306:8320   */\n      add\n        /* \"#utility.yul\":8298:8320   */\n      swap1\n      pop\n        /* \"#utility.yul\":8189:8326   */\n      swap2\n      swap1\n      pop\n      jump\t// out\n        /* \"#utility.yul\":8416:9519   */\n    tag_96:\n        /* \"#utility.yul\":8583:8586   */\n      0x00\n        /* \"#utility.yul\":8612:8690   */\n      tag_204\n        /* \"#utility.yul\":8684:8689   */\n      dup3\n        /* \"#utility.yul\":8612:8690   */\n      tag_85\n      jump\t// in\n    tag_204:\n        /* \"#utility.yul\":8706:8816   */\n      tag_205\n        /* \"#utility.yul\":8809:8815   */\n      dup2\n        /* \"#utility.yul\":8804:8807   */\n      dup6\n        /* \"#utility.yul\":8706:8816   */\n      tag_86\n      jump\t// in\n    tag_205:\n        /* \"#utility.yul\":8699:8816   */\n      swap4\n      pop\n        /* \"#utility.yul\":8842:8845   */\n      dup4\n        /* \"#utility.yul\":8887:8891   */\n      0x20\n        /* \"#utility.yul\":8879:8885   */\n      dup3\n        /* \"#utility.yul\":8875:8892   */\n      mul\n        /* \"#utility.yul\":8870:8873   */\n      dup6\n        /* \"#utility.yul\":8866:8893   */\n      add\n        /* \"#utility.yul\":8917:8997   */\n      tag_206\n        /* \"#utility.yul\":8991:8996   */\n      dup6\n        /* \"#utility.yul\":8917:8997   */\n      tag_87\n      jump\t// in\n    tag_206:\n        /* \"#utility.yul\":9020:9027   */\n      dup1\n        /* \"#utility.yul\":9051:9052   */\n      0x00\n        /* \"#utility.yul\":9036:9474   */\n    tag_207:\n        /* \"#utility.yul\":9061:9067   */\n      dup6\n        /* \"#utility.yul\":9058:9059   */\n      dup2\n        /* \"#utility.yul\":9055:9068   */\n      lt\n        /* \"#utility.yul\":9036:9474   */\n      iszero\n      tag_209\n      jumpi\n        /* \"#utility.yul\":9132:9141   */\n      dup5\n        /* \"#utility.yul\":9126:9130   */\n      dup5\n        /* \"#utility.yul\":9122:9142   */\n      sub\n        /* \"#utility.yul\":9117:9120   */\n      dup10\n        /* \"#utility.yul\":9110:9143   */\n      mstore\n        /* \"#utility.yul\":9183:9189   */\n      dup2\n        /* \"#utility.yul\":9177:9190   */\n      mload\n        /* \"#utility.yul\":9211:9323   */\n      tag_210\n        /* \"#utility.yul\":9318:9322   */\n      dup6\n        /* \"#utility.yul\":9303:9316   */\n      dup3\n        /* \"#utility.yul\":9211:9323   */\n      tag_94\n      jump\t// in\n    tag_210:\n        /* \"#utility.yul\":9203:9323   */\n      swap5\n      pop\n        /* \"#utility.yul\":9346:9430   */\n      tag_211\n        /* \"#utility.yul\":9423:9429   */\n      dup4\n        /* \"#utility.yul\":9346:9430   */\n      tag_95\n      jump\t// in\n    tag_211:\n        /* \"#utility.yul\":9336:9430   */\n      swap3\n      pop\n        /* \"#utility.yul\":9459:9463   */\n      0x20\n        /* \"#utility.yul\":9454:9457   */\n      dup11\n        /* \"#utility.yul\":9450:9464   */\n      add\n        /* \"#utility.yul\":9443:9464   */\n      swap10\n      pop\n        /* \"#utility.yul\":9096:9474   */\n      pop\n        /* \"#utility.yul\":9083:9084   */\n      0x01\n        /* \"#utility.yul\":9080:9081   */\n      dup2\n        /* \"#utility.yul\":9076:9085   */\n      add\n        /* \"#utility.yul\":9071:9085   */\n      swap1\n      pop\n        /* \"#utility.yul\":9036:9474   */\n      jump(tag_207)\n    tag_209:\n        /* \"#utility.yul\":9040:9054   */\n      pop\n        /* \"#utility.yul\":9490:9494   */\n      dup3\n        /* \"#utility.yul\":9483:9494   */\n      swap8\n      pop\n        /* \"#utility.yul\":9510:9513   */\n      dup8\n        /* \"#utility.yul\":9503:9513   */\n      swap6\n      pop\n        /* \"#utility.yul\":8588:9519   */\n      pop\n      pop\n      pop\n      pop\n      pop\n        /* \"#utility.yul\":8416:9519   */\n      swap3\n      swap2\n      pop\n      pop\n      jump\t// out\n        /* \"#utility.yul\":9525:9994   */\n    tag_20:\n        /* \"#utility.yul\":9716:9720   */\n      0x00\n        /* \"#utility.yul\":9754:9756   */\n      0x20\n        /* \"#utility.yul\":9743:9752   */\n      dup3\n        /* \"#utility.yul\":9739:9757   */\n      add\n        /* \"#utility.yul\":9731:9757   */\n      swap1\n      pop\n        /* \"#utility.yul\":9803:9812   */\n      dup2\n        /* \"#utility.yul\":9797:9801   */\n      dup2\n        /* \"#utility.yul\":9793:9813   */\n      sub\n        /* \"#utility.yul\":9789:9790   */\n      0x00\n        /* \"#utility.yul\":9778:9787   */\n      dup4\n        /* \"#utility.yul\":9774:9791   */\n      add\n        /* \"#utility.yul\":9767:9814   */\n      mstore\n        /* \"#utility.yul\":9831:9987   */\n      tag_213\n        /* \"#utility.yul\":9982:9986   */\n      dup2\n        /* \"#utility.yul\":9973:9979   */\n      dup5\n        /* \"#utility.yul\":9831:9987   */\n      tag_96\n      jump\t// in\n    tag_213:\n        /* \"#utility.yul\":9823:9987   */\n      swap1\n      pop\n        /* \"#utility.yul\":9525:9994   */\n      swap3\n      swap2\n      pop\n      pop\n      jump\t// out\n        /* \"#utility.yul\":10000:10122   */\n    tag_97:\n        /* \"#utility.yul\":10073:10097   */\n      tag_215\n        /* \"#utility.yul\":10091:10096   */\n      dup2\n        /* \"#utility.yul\":10073:10097   */\n      tag_67\n      jump\t// in\n    tag_215:\n        /* \"#utility.yul\":10066:10071   */\n      dup2\n        /* \"#utility.yul\":10063:10098   */\n      eq\n        /* \"#utility.yul\":10053:10116   */\n      tag_216\n      jumpi\n        /* \"#utility.yul\":10112:10113   */\n      0x00\n        /* \"#utility.yul\":10109:10110   */\n      dup1\n        /* \"#utility.yul\":10102:10114   */\n      revert\n        /* \"#utility.yul\":10053:10116   */\n    tag_216:\n        /* \"#utility.yul\":10000:10122   */\n      pop\n      jump\t// out\n        /* \"#utility.yul\":10128:10267   */\n    tag_98:\n        /* \"#utility.yul\":10174:10179   */\n      0x00\n        /* \"#utility.yul\":10212:10218   */\n      dup2\n        /* \"#utility.yul\":10199:10219   */\n      calldataload\n        /* \"#utility.yul\":10190:10219   */\n      swap1\n      pop\n        /* \"#utility.yul\":10228:10261   */\n      tag_218\n        /* \"#utility.yul\":10255:10260   */\n      dup2\n        /* \"#utility.yul\":10228:10261   */\n      tag_97\n      jump\t// in\n    tag_218:\n        /* \"#utility.yul\":10128:10267   */\n      swap3\n      swap2\n      pop\n      pop\n      jump\t// out\n        /* \"#utility.yul\":10273:10602   */\n    tag_23:\n        /* \"#utility.yul\":10332:10338   */\n      0x00\n        /* \"#utility.yul\":10381:10383   */\n      0x20\n        /* \"#utility.yul\":10369:10378   */\n      dup3\n        /* \"#utility.yul\":10360:10367   */\n      dup5\n        /* \"#utility.yul\":10356:10379   */\n      sub\n        /* \"#utility.yul\":10352:10384   */\n      slt\n        /* \"#utility.yul\":10349:10468   */\n      iszero\n      tag_220\n      jumpi\n        /* \"#utility.yul\":10387:10466   */\n      tag_221\n      tag_70\n      jump\t// in\n    tag_221:\n        /* \"#utility.yul\":10349:10468   */\n    tag_220:\n        /* \"#utility.yul\":10507:10508   */\n      0x00\n        /* \"#utility.yul\":10532:10585   */\n      tag_222\n        /* \"#utility.yul\":10577:10584   */\n      dup5\n        /* \"#utility.yul\":10568:10574   */\n      dup3\n        /* \"#utility.yul\":10557:10566   */\n      dup6\n        /* \"#utility.yul\":10553:10575   */\n      add\n        /* \"#utility.yul\":10532:10585   */\n      tag_98\n      jump\t// in\n    tag_222:\n        /* \"#utility.yul\":10522:10585   */\n      swap2\n      pop\n        /* \"#utility.yul\":10478:10595   */\n      pop\n        /* \"#utility.yul\":10273:10602   */\n      swap3\n      swap2\n      pop\n      pop\n      jump\t// out\n        /* \"#utility.yul\":10608:10777   */\n    tag_99:\n        /* \"#utility.yul\":10692:10703   */\n      0x00\n        /* \"#utility.yul\":10726:10732   */\n      dup3\n        /* \"#utility.yul\":10721:10724   */\n      dup3\n        /* \"#utility.yul\":10714:10733   */\n      mstore\n        /* \"#utility.yul\":10766:10770   */\n      0x20\n        /* \"#utility.yul\":10761:10764   */\n      dup3\n        /* \"#utility.yul\":10757:10771   */\n      add\n        /* \"#utility.yul\":10742:10771   */\n      swap1\n      pop\n        /* \"#utility.yul\":10608:10777   */\n      swap3\n      swap2\n      pop\n      pop\n      jump\t// out\n        /* \"#utility.yul\":10783:11018   */\n    tag_100:\n        /* \"#utility.yul\":10923:10957   */\n      0x536f6d656e7465206f2070726f70726965746172696f20706f6465207574696c\n        /* \"#utility.yul\":10919:10920   */\n      0x00\n        /* \"#utility.yul\":10911:10917   */\n      dup3\n        /* \"#utility.yul\":10907:10921   */\n      add\n        /* \"#utility.yul\":10900:10958   */\n      mstore\n        /* \"#utility.yul\":10992:11010   */\n      0x697a617220657373612066756e63616f00000000000000000000000000000000\n        /* \"#utility.yul\":10987:10989   */\n      0x20\n        /* \"#utility.yul\":10979:10985   */\n      dup3\n        /* \"#utility.yul\":10975:10990   */\n      add\n        /* \"#utility.yul\":10968:11011   */\n      mstore\n        /* \"#utility.yul\":10783:11018   */\n      pop\n      jump\t// out\n        /* \"#utility.yul\":11024:11390   */\n    tag_101:\n        /* \"#utility.yul\":11166:11169   */\n      0x00\n        /* \"#utility.yul\":11187:11254   */\n      tag_226\n        /* \"#utility.yul\":11251:11253   */\n      0x30\n        /* \"#utility.yul\":11246:11249   */\n      dup4\n        /* \"#utility.yul\":11187:11254   */\n      tag_99\n      jump\t// in\n    tag_226:\n        /* \"#utility.yul\":11180:11254   */\n      swap2\n      pop\n        /* \"#utility.yul\":11263:11356   */\n      tag_227\n        /* \"#utility.yul\":11352:11355   */\n      dup3\n        /* \"#utility.yul\":11263:11356   */\n      tag_100\n      jump\t// in\n    tag_227:\n        /* \"#utility.yul\":11381:11383   */\n      0x40\n        /* \"#utility.yul\":11376:11379   */\n      dup3\n        /* \"#utility.yul\":11372:11384   */\n      add\n        /* \"#utility.yul\":11365:11384   */\n      swap1\n      pop\n        /* \"#utility.yul\":11024:11390   */\n      swap2\n      swap1\n      pop\n      jump\t// out\n        /* \"#utility.yul\":11396:11815   */\n    tag_29:\n        /* \"#utility.yul\":11562:11566   */\n      0x00\n        /* \"#utility.yul\":11600:11602   */\n      0x20\n        /* \"#utility.yul\":11589:11598   */\n      dup3\n        /* \"#utility.yul\":11585:11603   */\n      add\n        /* \"#utility.yul\":11577:11603   */\n      swap1\n      pop\n        /* \"#utility.yul\":11649:11658   */\n      dup2\n        /* \"#utility.yul\":11643:11647   */\n      dup2\n        /* \"#utility.yul\":11639:11659   */\n      sub\n        /* \"#utility.yul\":11635:11636   */\n      0x00\n        /* \"#utility.yul\":11624:11633   */\n      dup4\n        /* \"#utility.yul\":11620:11637   */\n      add\n        /* \"#utility.yul\":11613:11660   */\n      mstore\n        /* \"#utility.yul\":11677:11808   */\n      tag_229\n        /* \"#utility.yul\":11803:11807   */\n      dup2\n        /* \"#utility.yul\":11677:11808   */\n      tag_101\n      jump\t// in\n    tag_229:\n        /* \"#utility.yul\":11669:11808   */\n      swap1\n      pop\n        /* \"#utility.yul\":11396:11815   */\n      swap2\n      swap1\n      pop\n      jump\t// out\n        /* \"#utility.yul\":11821:12001   */\n    tag_102:\n        /* \"#utility.yul\":11869:11946   */\n      0x4e487b7100000000000000000000000000000000000000000000000000000000\n        /* \"#utility.yul\":11866:11867   */\n      0x00\n        /* \"#utility.yul\":11859:11947   */\n      mstore\n        /* \"#utility.yul\":11966:11970   */\n      0x11\n        /* \"#utility.yul\":11963:11964   */\n      0x04\n        /* \"#utility.yul\":11956:11971   */\n      mstore\n        /* \"#utility.yul\":11990:11994   */\n      0x24\n        /* \"#utility.yul\":11987:11988   */\n      0x00\n        /* \"#utility.yul\":11980:11995   */\n      revert\n        /* \"#utility.yul\":12007:12198   */\n    tag_32:\n        /* \"#utility.yul\":12047:12050   */\n      0x00\n        /* \"#utility.yul\":12066:12086   */\n      tag_232\n        /* \"#utility.yul\":12084:12085   */\n      dup3\n        /* \"#utility.yul\":12066:12086   */\n      tag_72\n      jump\t// in\n    tag_232:\n        /* \"#utility.yul\":12061:12086   */\n      swap2\n      pop\n        /* \"#utility.yul\":12100:12120   */\n      tag_233\n        /* \"#utility.yul\":12118:12119   */\n      dup4\n        /* \"#utility.yul\":12100:12120   */\n      tag_72\n      jump\t// in\n    tag_233:\n        /* \"#utility.yul\":12095:12120   */\n      swap3\n      pop\n        /* \"#utility.yul\":12143:12144   */\n      dup3\n        /* \"#utility.yul\":12140:12141   */\n      dup3\n        /* \"#utility.yul\":12136:12145   */\n      add\n        /* \"#utility.yul\":12129:12145   */\n      swap1\n      pop\n        /* \"#utility.yul\":12164:12167   */\n      dup1\n        /* \"#utility.yul\":12161:12162   */\n      dup3\n        /* \"#utility.yul\":12158:12168   */\n      gt\n        /* \"#utility.yul\":12155:12191   */\n      iszero\n      tag_234\n      jumpi\n        /* \"#utility.yul\":12171:12189   */\n      tag_235\n      tag_102\n      jump\t// in\n    tag_235:\n        /* \"#utility.yul\":12155:12191   */\n    tag_234:\n        /* \"#utility.yul\":12007:12198   */\n      swap3\n      swap2\n      pop\n      pop\n      jump\t// out\n        /* \"#utility.yul\":12204:12384   */\n    tag_103:\n        /* \"#utility.yul\":12252:12329   */\n      0x4e487b7100000000000000000000000000000000000000000000000000000000\n        /* \"#utility.yul\":12249:12250   */\n      0x00\n        /* \"#utility.yul\":12242:12330   */\n      mstore\n        /* \"#utility.yul\":12349:12353   */\n      0x22\n        /* \"#utility.yul\":12346:12347   */\n      0x04\n        /* \"#utility.yul\":12339:12354   */\n      mstore\n        /* \"#utility.yul\":12373:12377   */\n      0x24\n        /* \"#utility.yul\":12370:12371   */\n      0x00\n        /* \"#utility.yul\":12363:12378   */\n      revert\n        /* \"#utility.yul\":12390:12710   */\n    tag_47:\n        /* \"#utility.yul\":12434:12440   */\n      0x00\n        /* \"#utility.yul\":12471:12472   */\n      0x02\n        /* \"#utility.yul\":12465:12469   */\n      dup3\n        /* \"#utility.yul\":12461:12473   */\n      div\n        /* \"#utility.yul\":12451:12473   */\n      swap1\n      pop\n        /* \"#utility.yul\":12518:12519   */\n      0x01\n        /* \"#utility.yul\":12512:12516   */\n      dup3\n        /* \"#utility.yul\":12508:12520   */\n      and\n        /* \"#utility.yul\":12539:12557   */\n      dup1\n        /* \"#utility.yul\":12529:12610   */\n      tag_238\n      jumpi\n        /* \"#utility.yul\":12595:12599   */\n      0x7f\n        /* \"#utility.yul\":12587:12593   */\n      dup3\n        /* \"#utility.yul\":12583:12600   */\n      and\n        /* \"#utility.yul\":12573:12600   */\n      swap2\n      pop\n        /* \"#utility.yul\":12529:12610   */\n    tag_238:\n        /* \"#utility.yul\":12657:12659   */\n      0x20\n        /* \"#utility.yul\":12649:12655   */\n      dup3\n        /* \"#utility.yul\":12646:12660   */\n      lt\n        /* \"#utility.yul\":12626:12644   */\n      dup2\n        /* \"#utility.yul\":12623:12661   */\n      sub\n        /* \"#utility.yul\":12620:12704   */\n      tag_239\n      jumpi\n        /* \"#utility.yul\":12676:12694   */\n      tag_240\n      tag_103\n      jump\t// in\n    tag_240:\n        /* \"#utility.yul\":12620:12704   */\n    tag_239:\n        /* \"#utility.yul\":12441:12710   */\n      pop\n        /* \"#utility.yul\":12390:12710   */\n      swap2\n      swap1\n      pop\n      jump\t// out\n        /* \"#utility.yul\":12716:12857   */\n    tag_104:\n        /* \"#utility.yul\":12765:12769   */\n      0x00\n        /* \"#utility.yul\":12788:12791   */\n      dup2\n        /* \"#utility.yul\":12780:12791   */\n      swap1\n      pop\n        /* \"#utility.yul\":12811:12814   */\n      dup2\n        /* \"#utility.yul\":12808:12809   */\n      0x00\n        /* \"#utility.yul\":12801:12815   */\n      mstore\n        /* \"#utility.yul\":12845:12849   */\n      0x20\n        /* \"#utility.yul\":12842:12843   */\n      0x00\n        /* \"#utility.yul\":12832:12850   */\n      keccak256\n        /* \"#utility.yul\":12824:12850   */\n      swap1\n      pop\n        /* \"#utility.yul\":12716:12857   */\n      swap2\n      swap1\n      pop\n      jump\t// out\n        /* \"#utility.yul\":12863:12956   */\n    tag_105:\n        /* \"#utility.yul\":12900:12906   */\n      0x00\n        /* \"#utility.yul\":12947:12949   */\n      0x20\n        /* \"#utility.yul\":12942:12944   */\n      0x1f\n        /* \"#utility.yul\":12935:12940   */\n      dup4\n        /* \"#utility.yul\":12931:12945   */\n      add\n        /* \"#utility.yul\":12927:12950   */\n      div\n        /* \"#utility.yul\":12917:12950   */\n      swap1\n      pop\n        /* \"#utility.yul\":12863:12956   */\n      swap2\n      swap1\n      pop\n      jump\t// out\n        /* \"#utility.yul\":12962:13069   */\n    tag_106:\n        /* \"#utility.yul\":13006:13014   */\n      0x00\n        /* \"#utility.yul\":13056:13061   */\n      dup3\n        /* \"#utility.yul\":13050:13054   */\n      dup3\n        /* \"#utility.yul\":13046:13062   */\n      shl\n        /* \"#utility.yul\":13025:13062   */\n      swap1\n      pop\n        /* \"#utility.yul\":12962:13069   */\n      swap3\n      swap2\n      pop\n      pop\n      jump\t// out\n        /* \"#utility.yul\":13075:13468   */\n    tag_107:\n        /* \"#utility.yul\":13144:13150   */\n      0x00\n        /* \"#utility.yul\":13194:13195   */\n      0x08\n        /* \"#utility.yul\":13182:13192   */\n      dup4\n        /* \"#utility.yul\":13178:13196   */\n      mul\n        /* \"#utility.yul\":13217:13314   */\n      tag_245\n        /* \"#utility.yul\":13247:13313   */\n      0xffffffffffffffffffffffffffffffffffffffffffffffffffffffffffffffff\n        /* \"#utility.yul\":13236:13245   */\n      dup3\n        /* \"#utility.yul\":13217:13314   */\n      tag_106\n      jump\t// in\n    tag_245:\n        /* \"#utility.yul\":13335:13374   */\n      tag_246\n        /* \"#utility.yul\":13365:13373   */\n      dup7\n        /* \"#utility.yul\":13354:13363   */\n      dup4\n        /* \"#utility.yul\":13335:13374   */\n      tag_106\n      jump\t// in\n    tag_246:\n        /* \"#utility.yul\":13323:13374   */\n      swap6\n      pop\n        /* \"#utility.yul\":13407:13411   */\n      dup1\n        /* \"#utility.yul\":13403:13412   */\n      not\n        /* \"#utility.yul\":13396:13401   */\n      dup5\n        /* \"#utility.yul\":13392:13413   */\n      and\n        /* \"#utility.yul\":13383:13413   */\n      swap4\n      pop\n        /* \"#utility.yul\":13456:13460   */\n      dup1\n        /* \"#utility.yul\":13446:13454   */\n      dup7\n        /* \"#utility.yul\":13442:13461   */\n      and\n        /* \"#utility.yul\":13435:13440   */\n      dup5\n        /* \"#utility.yul\":13432:13462   */\n      or\n        /* \"#utility.yul\":13422:13462   */\n      swap3\n      pop\n        /* \"#utility.yul\":13151:13468   */\n      pop\n      pop\n        /* \"#utility.yul\":13075:13468   */\n      swap4\n      swap3\n      pop\n      pop\n      pop\n      jump\t// out\n        /* \"#utility.yul\":13474:13534   */\n    tag_108:\n        /* \"#utility.yul\":13502:13505   */\n      0x00\n        /* \"#utility.yul\":13523:13528   */\n      dup2\n        /* \"#utility.yul\":13516:13528   */\n      swap1\n      pop\n        /* \"#utility.yul\":13474:13534   */\n      swap2\n      swap1\n      pop\n      jump\t// out\n        /* \"#utility.yul\":13540:13682   */\n    tag_109:\n        /* \"#utility.yul\":13590:13599   */\n      0x00\n        /* \"#utility.yul\":13623:13676   */\n      tag_249\n        /* \"#utility.yul\":13641:13675   */\n      tag_250\n        /* \"#utility.yul\":13650:13674   */\n      tag_251\n        /* \"#utility.yul\":13668:13673   */\n      dup5\n        /* \"#utility.yul\":13650:13674   */\n      tag_72\n      jump\t// in\n    tag_251:\n        /* \"#utility.yul\":13641:13675   */\n      tag_108\n      jump\t// in\n    tag_250:\n        /* \"#utility.yul\":13623:13676   */\n      tag_72\n      jump\t// in\n    tag_249:\n        /* \"#utility.yul\":13610:13676   */\n      swap1\n      pop\n        /* \"#utility.yul\":13540:13682   */\n      swap2\n      swap1\n      pop\n      jump\t// out\n        /* \"#utility.yul\":13688:13763   */\n    tag_110:\n        /* \"#utility.yul\":13731:13734   */\n      0x00\n        /* \"#utility.yul\":13752:13757   */\n      dup2\n        /* \"#utility.yul\":13745:13757   */\n      swap1\n      pop\n        /* \"#utility.yul\":13688:13763   */\n      swap2\n      swap1\n      pop\n      jump\t// out\n        /* \"#utility.yul\":13769:14038   */\n    tag_111:\n        /* \"#utility.yul\":13879:13918   */\n      tag_254\n        /* \"#utility.yul\":13910:13917   */\n      dup4\n        /* \"#utility.yul\":13879:13918   */\n      tag_109\n      jump\t// in\n    tag_254:\n        /* \"#utility.yul\":13940:14031   */\n      tag_255\n        /* \"#utility.yul\":13989:14030   */\n      tag_256\n        /* \"#utility.yul\":14013:14029   */\n      dup3\n        /* \"#utility.yul\":13989:14030   */\n      tag_110\n      jump\t// in\n    tag_256:\n        /* \"#utility.yul\":13981:13987   */\n      dup5\n        /* \"#utility.yul\":13974:13978   */\n      dup5\n        /* \"#utility.yul\":13968:13979   */\n      sload\n        /* \"#utility.yul\":13940:14031   */\n      tag_107\n      jump\t// in\n    tag_255:\n        /* \"#utility.yul\":13934:13938   */\n      dup3\n        /* \"#utility.yul\":13927:14032   */\n      sstore\n        /* \"#utility.yul\":13845:14038   */\n      pop\n        /* \"#utility.yul\":13769:14038   */\n      pop\n      pop\n      pop\n      jump\t// out\n        /* \"#utility.yul\":14044:14117   */\n    tag_112:\n        /* \"#utility.yul\":14089:14092   */\n      0x00\n        /* \"#utility.yul\":14044:14117   */\n      swap1\n      jump\t// out\n        /* \"#utility.yul\":14123:14312   */\n    tag_113:\n        /* \"#utility.yul\":14200:14232   */\n      tag_259\n      tag_112\n      jump\t// in\n    tag_259:\n        /* \"#utility.yul\":14241:14306   */\n      tag_260\n        /* \"#utility.yul\":14299:14305   */\n      dup2\n        /* \"#utility.yul\":14291:14297   */\n      dup5\n        /* \"#utility.yul\":14285:14289   */\n      dup5\n        /* \"#utility.yul\":14241:14306   */\n      tag_111\n      jump\t// in\n    tag_260:\n        /* \"#utility.yul\":14176:14312   */\n      pop\n        /* \"#utility.yul\":14123:14312   */\n      pop\n      pop\n      jump\t// out\n        /* \"#utility.yul\":14318:14504   */\n    tag_114:\n        /* \"#utility.yul\":14378:14498   */\n    tag_262:\n        /* \"#utility.yul\":14395:14398   */\n      dup2\n        /* \"#utility.yul\":14388:14393   */\n      dup2\n        /* \"#utility.yul\":14385:14399   */\n      lt\n        /* \"#utility.yul\":14378:14498   */\n      iszero\n      tag_264\n      jumpi\n        /* \"#utility.yul\":14449:14488   */\n      tag_265\n        /* \"#utility.yul\":14486:14487   */\n      0x00\n        /* \"#utility.yul\":14479:14484   */\n      dup3\n        /* \"#utility.yul\":14449:14488   */\n      tag_113\n      jump\t// in\n    tag_265:\n        /* \"#utility.yul\":14422:14423   */\n      0x01\n        /* \"#utility.yul\":14415:14420   */\n      dup2\n        /* \"#utility.yul\":14411:14424   */\n      add\n        /* \"#utility.yul\":14402:14424   */\n      swap1\n      pop\n        /* \"#utility.yul\":14378:14498   */\n      jump(tag_262)\n    tag_264:\n        /* \"#utility.yul\":14318:14504   */\n      pop\n      pop\n      jump\t// out\n        /* \"#utility.yul\":14510:15053   */\n    tag_115:\n        /* \"#utility.yul\":14611:14613   */\n      0x1f\n        /* \"#utility.yul\":14606:14609   */\n      dup3\n        /* \"#utility.yul\":14603:14614   */\n      gt\n        /* \"#utility.yul\":14600:15046   */\n      iszero\n      tag_267\n      jumpi\n        /* \"#utility.yul\":14645:14683   */\n      tag_268\n        /* \"#utility.yul\":14677:14682   */\n      dup2\n        /* \"#utility.yul\":14645:14683   */\n      tag_104\n      jump\t// in\n    tag_268:\n        /* \"#utility.yul\":14729:14758   */\n      tag_269\n        /* \"#utility.yul\":14747:14757   */\n      dup5\n        /* \"#utility.yul\":14729:14758   */\n      tag_105\n      jump\t// in\n    tag_269:\n        /* \"#utility.yul\":14719:14727   */\n      dup2\n        /* \"#utility.yul\":14715:14759   */\n      add\n        /* \"#utility.yul\":14912:14914   */\n      0x20\n        /* \"#utility.yul\":14900:14910   */\n      dup6\n        /* \"#utility.yul\":14897:14915   */\n      lt\n        /* \"#utility.yul\":14894:14943   */\n      iszero\n      tag_270\n      jumpi\n        /* \"#utility.yul\":14933:14941   */\n      dup2\n        /* \"#utility.yul\":14918:14941   */\n      swap1\n      pop\n        /* \"#utility.yul\":14894:14943   */\n    tag_270:\n        /* \"#utility.yul\":14956:15036   */\n      tag_271\n        /* \"#utility.yul\":15012:15034   */\n      tag_272\n        /* \"#utility.yul\":15030:15033   */\n      dup6\n        /* \"#utility.yul\":15012:15034   */\n      tag_105\n      jump\t// in\n    tag_272:\n        /* \"#utility.yul\":15002:15010   */\n      dup4\n        /* \"#utility.yul\":14998:15035   */\n      add\n        /* \"#utility.yul\":14985:14996   */\n      dup3\n        /* \"#utility.yul\":14956:15036   */\n      tag_114\n      jump\t// in\n    tag_271:\n        /* \"#utility.yul\":14615:15046   */\n      pop\n      pop\n        /* \"#utility.yul\":14600:15046   */\n    tag_267:\n        /* \"#utility.yul\":14510:15053   */\n      pop\n      pop\n      pop\n      jump\t// out\n        /* \"#utility.yul\":15059:15176   */\n    tag_116:\n        /* \"#utility.yul\":15113:15121   */\n      0x00\n        /* \"#utility.yul\":15163:15168   */\n      dup3\n        /* \"#utility.yul\":15157:15161   */\n      dup3\n        /* \"#utility.yul\":15153:15169   */\n      shr\n        /* \"#utility.yul\":15132:15169   */\n      swap1\n      pop\n        /* \"#utility.yul\":15059:15176   */\n      swap3\n      swap2\n      pop\n      pop\n      jump\t// out\n        /* \"#utility.yul\":15182:15351   */\n    tag_117:\n        /* \"#utility.yul\":15226:15232   */\n      0x00\n        /* \"#utility.yul\":15259:15310   */\n      tag_275\n        /* \"#utility.yul\":15307:15308   */\n      0x00\n        /* \"#utility.yul\":15303:15309   */\n      not\n        /* \"#utility.yul\":15295:15300   */\n      dup5\n        /* \"#utility.yul\":15292:15293   */\n      0x08\n        /* \"#utility.yul\":15288:15301   */\n      mul\n        /* \"#utility.yul\":15259:15310   */\n      tag_116\n      jump\t// in\n    tag_275:\n        /* \"#utility.yul\":15255:15311   */\n      not\n        /* \"#utility.yul\":15340:15344   */\n      dup1\n        /* \"#utility.yul\":15334:15338   */\n      dup4\n        /* \"#utility.yul\":15330:15345   */\n      and\n        /* \"#utility.yul\":15320:15345   */\n      swap2\n      pop\n        /* \"#utility.yul\":15233:15351   */\n      pop\n        /* \"#utility.yul\":15182:15351   */\n      swap3\n      swap2\n      pop\n      pop\n      jump\t// out\n        /* \"#utility.yul\":15356:15651   */\n    tag_118:\n        /* \"#utility.yul\":15432:15436   */\n      0x00\n        /* \"#utility.yul\":15578:15607   */\n      tag_277\n        /* \"#utility.yul\":15603:15606   */\n      dup4\n        /* \"#utility.yul\":15597:15601   */\n      dup4\n        /* \"#utility.yul\":15578:15607   */\n      tag_117\n      jump\t// in\n    tag_277:\n        /* \"#utility.yul\":15570:15607   */\n      swap2\n      pop\n        /* \"#utility.yul\":15640:15643   */\n      dup3\n        /* \"#utility.yul\":15637:15638   */\n      0x02\n        /* \"#utility.yul\":15633:15644   */\n      mul\n        /* \"#utility.yul\":15627:15631   */\n      dup3\n        /* \"#utility.yul\":15624:15645   */\n      or\n        /* \"#utility.yul\":15616:15645   */\n      swap1\n      pop\n        /* \"#utility.yul\":15356:15651   */\n      swap3\n      swap2\n      pop\n      pop\n      jump\t// out\n        /* \"#utility.yul\":15656:17051   */\n    tag_35:\n        /* \"#utility.yul\":15773:15810   */\n      tag_279\n        /* \"#utility.yul\":15806:15809   */\n      dup3\n        /* \"#utility.yul\":15773:15810   */\n      tag_89\n      jump\t// in\n    tag_279:\n        /* \"#utility.yul\":15875:15893   */\n      0xffffffffffffffff\n        /* \"#utility.yul\":15867:15873   */\n      dup2\n        /* \"#utility.yul\":15864:15894   */\n      gt\n        /* \"#utility.yul\":15861:15917   */\n      iszero\n      tag_280\n      jumpi\n        /* \"#utility.yul\":15897:15915   */\n      tag_281\n      tag_78\n      jump\t// in\n    tag_281:\n        /* \"#utility.yul\":15861:15917   */\n    tag_280:\n        /* \"#utility.yul\":15941:15979   */\n      tag_282\n        /* \"#utility.yul\":15973:15977   */\n      dup3\n        /* \"#utility.yul\":15967:15978   */\n      sload\n        /* \"#utility.yul\":15941:15979   */\n      tag_47\n      jump\t// in\n    tag_282:\n        /* \"#utility.yul\":16026:16093   */\n      tag_283\n        /* \"#utility.yul\":16086:16092   */\n      dup3\n        /* \"#utility.yul\":16078:16084   */\n      dup3\n        /* \"#utility.yul\":16072:16076   */\n      dup6\n        /* \"#utility.yul\":16026:16093   */\n      tag_115\n      jump\t// in\n    tag_283:\n        /* \"#utility.yul\":16120:16121   */\n      0x00\n        /* \"#utility.yul\":16144:16148   */\n      0x20\n        /* \"#utility.yul\":16131:16148   */\n      swap1\n      pop\n        /* \"#utility.yul\":16176:16178   */\n      0x1f\n        /* \"#utility.yul\":16168:16174   */\n      dup4\n        /* \"#utility.yul\":16165:16179   */\n      gt\n        /* \"#utility.yul\":16193:16194   */\n      0x01\n        /* \"#utility.yul\":16188:16806   */\n      dup2\n      eq\n      tag_285\n      jumpi\n        /* \"#utility.yul\":16850:16851   */\n      0x00\n        /* \"#utility.yul\":16867:16873   */\n      dup5\n        /* \"#utility.yul\":16864:16941   */\n      iszero\n      tag_286\n      jumpi\n        /* \"#utility.yul\":16916:16925   */\n      dup3\n        /* \"#utility.yul\":16911:16914   */\n      dup8\n        /* \"#utility.yul\":16907:16926   */\n      add\n        /* \"#utility.yul\":16901:16927   */\n      mload\n        /* \"#utility.yul\":16892:16927   */\n      swap1\n      pop\n        /* \"#utility.yul\":16864:16941   */\n    tag_286:\n        /* \"#utility.yul\":16967:17034   */\n      tag_287\n        /* \"#utility.yul\":17027:17033   */\n      dup6\n        /* \"#utility.yul\":17020:17025   */\n      dup3\n        /* \"#utility.yul\":16967:17034   */\n      tag_118\n      jump\t// in\n    tag_287:\n        /* \"#utility.yul\":16961:16965   */\n      dup7\n        /* \"#utility.yul\":16954:17035   */\n      sstore\n        /* \"#utility.yul\":16823:17045   */\n      pop\n        /* \"#utility.yul\":16158:17045   */\n      jump(tag_284)\n        /* \"#utility.yul\":16188:16806   */\n    tag_285:\n        /* \"#utility.yul\":16240:16244   */\n      0x1f\n        /* \"#utility.yul\":16236:16245   */\n      not\n        /* \"#utility.yul\":16228:16234   */\n      dup5\n        /* \"#utility.yul\":16224:16246   */\n      and\n        /* \"#utility.yul\":16274:16311   */\n      tag_288\n        /* \"#utility.yul\":16306:16310   */\n      dup7\n        /* \"#utility.yul\":16274:16311   */\n      tag_104\n      jump\t// in\n    tag_288:\n        /* \"#utility.yul\":16333:16334   */\n      0x00\n        /* \"#utility.yul\":16347:16555   */\n    tag_289:\n        /* \"#utility.yul\":16361:16368   */\n      dup3\n        /* \"#utility.yul\":16358:16359   */\n      dup2\n        /* \"#utility.yul\":16355:16369   */\n      lt\n        /* \"#utility.yul\":16347:16555   */\n      iszero\n      tag_291\n      jumpi\n        /* \"#utility.yul\":16440:16449   */\n      dup5\n        /* \"#utility.yul\":16435:16438   */\n      dup10\n        /* \"#utility.yul\":16431:16450   */\n      add\n        /* \"#utility.yul\":16425:16451   */\n      mload\n        /* \"#utility.yul\":16417:16423   */\n      dup3\n        /* \"#utility.yul\":16410:16452   */\n      sstore\n        /* \"#utility.yul\":16491:16492   */\n      0x01\n        /* \"#utility.yul\":16483:16489   */\n      dup3\n        /* \"#utility.yul\":16479:16493   */\n      add\n        /* \"#utility.yul\":16469:16493   */\n      swap2\n      pop\n        /* \"#utility.yul\":16538:16540   */\n      0x20\n        /* \"#utility.yul\":16527:16536   */\n      dup6\n        /* \"#utility.yul\":16523:16541   */\n      add\n        /* \"#utility.yul\":16510:16541   */\n      swap5\n      pop\n        /* \"#utility.yul\":16384:16388   */\n      0x20\n        /* \"#utility.yul\":16381:16382   */\n      dup2\n        /* \"#utility.yul\":16377:16389   */\n      add\n        /* \"#utility.yul\":16372:16389   */\n      swap1\n      pop\n        /* \"#utility.yul\":16347:16555   */\n      jump(tag_289)\n    tag_291:\n        /* \"#utility.yul\":16583:16589   */\n      dup7\n        /* \"#utility.yul\":16574:16581   */\n      dup4\n        /* \"#utility.yul\":16571:16590   */\n      lt\n        /* \"#utility.yul\":16568:16747   */\n      iszero\n      tag_292\n      jumpi\n        /* \"#utility.yul\":16641:16650   */\n      dup5\n        /* \"#utility.yul\":16636:16639   */\n      dup10\n        /* \"#utility.yul\":16632:16651   */\n      add\n        /* \"#utility.yul\":16626:16652   */\n      mload\n        /* \"#utility.yul\":16684:16732   */\n      tag_293\n        /* \"#utility.yul\":16726:16730   */\n      0x1f\n        /* \"#utility.yul\":16718:16724   */\n      dup10\n        /* \"#utility.yul\":16714:16731   */\n      and\n        /* \"#utility.yul\":16703:16712   */\n      dup3\n        /* \"#utility.yul\":16684:16732   */\n      tag_117\n      jump\t// in\n    tag_293:\n        /* \"#utility.yul\":16676:16682   */\n      dup4\n        /* \"#utility.yul\":16669:16733   */\n      sstore\n        /* \"#utility.yul\":16591:16747   */\n      pop\n        /* \"#utility.yul\":16568:16747   */\n    tag_292:\n        /* \"#utility.yul\":16793:16794   */\n      0x01\n        /* \"#utility.yul\":16789:16790   */\n      0x02\n        /* \"#utility.yul\":16781:16787   */\n      dup9\n        /* \"#utility.yul\":16777:16791   */\n      mul\n        /* \"#utility.yul\":16773:16795   */\n      add\n        /* \"#utility.yul\":16767:16771   */\n      dup9\n        /* \"#utility.yul\":16760:16796   */\n      sstore\n        /* \"#utility.yul\":16195:16806   */\n      pop\n      pop\n      pop\n        /* \"#utility.yul\":16158:17045   */\n    tag_284:\n      pop\n        /* \"#utility.yul\":15748:17051   */\n      pop\n      pop\n      pop\n        /* \"#utility.yul\":15656:17051   */\n      pop\n      pop\n      jump\t// out\n        /* \"#utility.yul\":17057:17230   */\n    tag_119:\n        /* \"#utility.yul\":17197:17222   */\n      0x50726f7665646f72206e616f206175746f72697a61646f000000000000000000\n        /* \"#utility.yul\":17193:17194   */\n      0x00\n        /* \"#utility.yul\":17185:17191   */\n      dup3\n        /* \"#utility.yul\":17181:17195   */\n      add\n        /* \"#utility.yul\":17174:17223   */\n      mstore\n        /* \"#utility.yul\":17057:17230   */\n      pop\n      jump\t// out\n        /* \"#utility.yul\":17236:17602   */\n    tag_120:\n        /* \"#utility.yul\":17378:17381   */\n      0x00\n        /* \"#utility.yul\":17399:17466   */\n      tag_296\n        /* \"#utility.yul\":17463:17465   */\n      0x17\n        /* \"#utility.yul\":17458:17461   */\n      dup4\n        /* \"#utility.yul\":17399:17466   */\n      tag_99\n      jump\t// in\n    tag_296:\n        /* \"#utility.yul\":17392:17466   */\n      swap2\n      pop\n        /* \"#utility.yul\":17475:17568   */\n      tag_297\n        /* \"#utility.yul\":17564:17567   */\n      dup3\n        /* \"#utility.yul\":17475:17568   */\n      tag_119\n      jump\t// in\n    tag_297:\n        /* \"#utility.yul\":17593:17595   */\n      0x20\n        /* \"#utility.yul\":17588:17591   */\n      dup3\n        /* \"#utility.yul\":17584:17596   */\n      add\n        /* \"#utility.yul\":17577:17596   */\n      swap1\n      pop\n        /* \"#utility.yul\":17236:17602   */\n      swap2\n      swap1\n      pop\n      jump\t// out\n        /* \"#utility.yul\":17608:18027   */\n    tag_41:\n        /* \"#utility.yul\":17774:17778   */\n      0x00\n        /* \"#utility.yul\":17812:17814   */\n      0x20\n        /* \"#utility.yul\":17801:17810   */\n      dup3\n        /* \"#utility.yul\":17797:17815   */\n      add\n        /* \"#utility.yul\":17789:17815   */\n      swap1\n      pop\n        /* \"#utility.yul\":17861:17870   */\n      dup2\n        /* \"#utility.yul\":17855:17859   */\n      dup2\n        /* \"#utility.yul\":17851:17871   */\n      sub\n        /* \"#utility.yul\":17847:17848   */\n      0x00\n        /* \"#utility.yul\":17836:17845   */\n      dup4\n        /* \"#utility.yul\":17832:17849   */\n      add\n        /* \"#utility.yul\":17825:17872   */\n      mstore\n        /* \"#utility.yul\":17889:18020   */\n      tag_299\n        /* \"#utility.yul\":18015:18019   */\n      dup2\n        /* \"#utility.yul\":17889:18020   */\n      tag_120\n      jump\t// in\n    tag_299:\n        /* \"#utility.yul\":17881:18020   */\n      swap1\n      pop\n        /* \"#utility.yul\":17608:18027   */\n      swap2\n      swap1\n      pop\n      jump\t// out\n\n    auxdata: 0xa26469706673582212203da533fb17a20601f7bb523887a57f847f482768ab1fa4fc7a609868e889c5be64736f6c634300081a0033\n}\n",
				"bytecode": {
					"linkReferences": {},
					"object": "6080604052348015600e575f80fd5b50335f806101000a81548173ffffffffffffffffffffffffffffffffffffffff021916908373ffffffffffffffffffffffffffffffffffffffff160217905550610f448061005b5f395ff3fe608060405234801561000f575f80fd5b506004361061004a575f3560e01c80630617b2f71461004e5780635bcf68fe1461006c578063a2c0f87414610088578063ddcc2dfa146100b8575b5f80fd5b6100566100d4565b6040516100639190610643565b60405180910390f35b610086600480360381019061008191906107dc565b6100fb565b005b6100a2600480360381019061009d9190610894565b610266565b6040516100af9190610a6a565b60405180910390f35b6100d260048036038101906100cd9190610ab4565b61051f565b005b5f805f9054906101000a900473ffffffffffffffffffffffffffffffffffffffff16905090565b5f8054906101000a900473ffffffffffffffffffffffffffffffffffffffff1673ffffffffffffffffffffffffffffffffffffffff163373ffffffffffffffffffffffffffffffffffffffff1614610188576040517f08c379a000000000000000000000000000000000000000000000000000000000815260040161017f90610b5f565b60405180910390fd5b5f6001805f8781526020019081526020015f20805490506101a99190610baa565b905060015f8681526020019081526020015f206040518060a0016040528083815260200186815260200185815260200184815260200142815250908060018154018082558091505060019003905f5260205f2090600502015f909190919091505f820151815f015560208201518160010190816102269190610dd7565b50604082015181600201908161023c9190610dd7565b5060608201518160030190816102529190610dd7565b506080820151816004015550505050505050565b606060025f3373ffffffffffffffffffffffffffffffffffffffff1673ffffffffffffffffffffffffffffffffffffffff1681526020019081526020015f205f9054906101000a900460ff166102f1576040517f08c379a00000000000000000000000000000000000000000000000000000000081526004016102e890610ef0565b60405180910390fd5b60015f8381526020019081526020015f20805480602002602001604051908101604052809291908181526020015f905b82821015610514578382905f5260205f2090600502016040518060a00160405290815f820154815260200160018201805461035b90610c0a565b80601f016020809104026020016040519081016040528092919081815260200182805461038790610c0a565b80156103d25780601f106103a9576101008083540402835291602001916103d2565b820191905f5260205f20905b8154815290600101906020018083116103b557829003601f168201915b505050505081526020016002820180546103eb90610c0a565b80601f016020809104026020016040519081016040528092919081815260200182805461041790610c0a565b80156104625780601f1061043957610100808354040283529160200191610462565b820191905f5260205f20905b81548152906001019060200180831161044557829003601f168201915b5050505050815260200160038201805461047b90610c0a565b80601f01602080910402602001604051908101604052809291908181526020018280546104a790610c0a565b80156104f25780601f106104c9576101008083540402835291602001916104f2565b820191905f5260205f20905b8154815290600101906020018083116104d557829003601f168201915b5050505050815260200160048201548152505081526020019060010190610321565b505050509050919050565b5f8054906101000a900473ffffffffffffffffffffffffffffffffffffffff1673ffffffffffffffffffffffffffffffffffffffff163373ffffffffffffffffffffffffffffffffffffffff16146105ac576040517f08c379a00000000000000000000000000000000000000000000000000000000081526004016105a390610b5f565b60405180910390fd5b600160025f8373ffffffffffffffffffffffffffffffffffffffff1673ffffffffffffffffffffffffffffffffffffffff1681526020019081526020015f205f6101000a81548160ff02191690831515021790555050565b5f73ffffffffffffffffffffffffffffffffffffffff82169050919050565b5f61062d82610604565b9050919050565b61063d81610623565b82525050565b5f6020820190506106565f830184610634565b92915050565b5f604051905090565b5f80fd5b5f80fd5b5f819050919050565b61067f8161066d565b8114610689575f80fd5b50565b5f8135905061069a81610676565b92915050565b5f80fd5b5f80fd5b5f601f19601f8301169050919050565b7f4e487b71000000000000000000000000000000000000000000000000000000005f52604160045260245ffd5b6106ee826106a8565b810181811067ffffffffffffffff8211171561070d5761070c6106b8565b5b80604052505050565b5f61071f61065c565b905061072b82826106e5565b919050565b5f67ffffffffffffffff82111561074a576107496106b8565b5b610753826106a8565b9050602081019050919050565b828183375f83830152505050565b5f61078061077b84610730565b610716565b90508281526020810184848401111561079c5761079b6106a4565b5b6107a7848285610760565b509392505050565b5f82601f8301126107c3576107c26106a0565b5b81356107d384826020860161076e565b91505092915050565b5f805f80608085870312156107f4576107f3610665565b5b5f6108018782880161068c565b945050602085013567ffffffffffffffff81111561082257610821610669565b5b61082e878288016107af565b935050604085013567ffffffffffffffff81111561084f5761084e610669565b5b61085b878288016107af565b925050606085013567ffffffffffffffff81111561087c5761087b610669565b5b610888878288016107af565b91505092959194509250565b5f602082840312156108a9576108a8610665565b5b5f6108b68482850161068c565b91505092915050565b5f81519050919050565b5f82825260208201905092915050565b5f819050602082019050919050565b6108f18161066d565b82525050565b5f81519050919050565b5f82825260208201905092915050565b8281835e5f83830152505050565b5f610929826108f7565b6109338185610901565b9350610943818560208601610911565b61094c816106a8565b840191505092915050565b5f60a083015f83015161096c5f8601826108e8565b5060208301518482036020860152610984828261091f565b9150506040830151848203604086015261099e828261091f565b915050606083015184820360608601526109b8828261091f565b91505060808301516109cd60808601826108e8565b508091505092915050565b5f6109e38383610957565b905092915050565b5f602082019050919050565b5f610a01826108bf565b610a0b81856108c9565b935083602082028501610a1d856108d9565b805f5b85811015610a585784840389528151610a3985826109d8565b9450610a44836109eb565b925060208a01995050600181019050610a20565b50829750879550505050505092915050565b5f6020820190508181035f830152610a8281846109f7565b905092915050565b610a9381610623565b8114610a9d575f80fd5b50565b5f81359050610aae81610a8a565b92915050565b5f60208284031215610ac957610ac8610665565b5b5f610ad684828501610aa0565b91505092915050565b5f82825260208201905092915050565b7f536f6d656e7465206f2070726f70726965746172696f20706f6465207574696c5f8201527f697a617220657373612066756e63616f00000000000000000000000000000000602082015250565b5f610b49603083610adf565b9150610b5482610aef565b604082019050919050565b5f6020820190508181035f830152610b7681610b3d565b9050919050565b7f4e487b71000000000000000000000000000000000000000000000000000000005f52601160045260245ffd5b5f610bb48261066d565b9150610bbf8361066d565b9250828201905080821115610bd757610bd6610b7d565b5b92915050565b7f4e487b71000000000000000000000000000000000000000000000000000000005f52602260045260245ffd5b5f6002820490506001821680610c2157607f821691505b602082108103610c3457610c33610bdd565b5b50919050565b5f819050815f5260205f209050919050565b5f6020601f8301049050919050565b5f82821b905092915050565b5f60088302610c967fffffffffffffffffffffffffffffffffffffffffffffffffffffffffffffffff82610c5b565b610ca08683610c5b565b95508019841693508086168417925050509392505050565b5f819050919050565b5f610cdb610cd6610cd18461066d565b610cb8565b61066d565b9050919050565b5f819050919050565b610cf483610cc1565b610d08610d0082610ce2565b848454610c67565b825550505050565b5f90565b610d1c610d10565b610d27818484610ceb565b505050565b5b81811015610d4a57610d3f5f82610d14565b600181019050610d2d565b5050565b601f821115610d8f57610d6081610c3a565b610d6984610c4c565b81016020851015610d78578190505b610d8c610d8485610c4c565b830182610d2c565b50505b505050565b5f82821c905092915050565b5f610daf5f1984600802610d94565b1980831691505092915050565b5f610dc78383610da0565b9150826002028217905092915050565b610de0826108f7565b67ffffffffffffffff811115610df957610df86106b8565b5b610e038254610c0a565b610e0e828285610d4e565b5f60209050601f831160018114610e3f575f8415610e2d578287015190505b610e378582610dbc565b865550610e9e565b601f198416610e4d86610c3a565b5f5b82811015610e7457848901518255600182019150602085019450602081019050610e4f565b86831015610e915784890151610e8d601f891682610da0565b8355505b6001600288020188555050505b505050505050565b7f50726f7665646f72206e616f206175746f72697a61646f0000000000000000005f82015250565b5f610eda601783610adf565b9150610ee582610ea6565b602082019050919050565b5f6020820190508181035f830152610f0781610ece565b905091905056fea26469706673582212203da533fb17a20601f7bb523887a57f847f482768ab1fa4fc7a609868e889c5be64736f6c634300081a0033",
					"opcodes": "PUSH1 0x80 PUSH1 0x40 MSTORE CALLVALUE DUP1 ISZERO PUSH1 0xE JUMPI PUSH0 DUP1 REVERT JUMPDEST POP CALLER PUSH0 DUP1 PUSH2 0x100 EXP DUP2 SLOAD DUP2 PUSH20 0xFFFFFFFFFFFFFFFFFFFFFFFFFFFFFFFFFFFFFFFF MUL NOT AND SWAP1 DUP4 PUSH20 0xFFFFFFFFFFFFFFFFFFFFFFFFFFFFFFFFFFFFFFFF AND MUL OR SWAP1 SSTORE POP PUSH2 0xF44 DUP1 PUSH2 0x5B PUSH0 CODECOPY PUSH0 RETURN INVALID PUSH1 0x80 PUSH1 0x40 MSTORE CALLVALUE DUP1 ISZERO PUSH2 0xF JUMPI PUSH0 DUP1 REVERT JUMPDEST POP PUSH1 0x4 CALLDATASIZE LT PUSH2 0x4A JUMPI PUSH0 CALLDATALOAD PUSH1 0xE0 SHR DUP1 PUSH4 0x617B2F7 EQ PUSH2 0x4E JUMPI DUP1 PUSH4 0x5BCF68FE EQ PUSH2 0x6C JUMPI DUP1 PUSH4 0xA2C0F874 EQ PUSH2 0x88 JUMPI DUP1 PUSH4 0xDDCC2DFA EQ PUSH2 0xB8 JUMPI JUMPDEST PUSH0 DUP1 REVERT JUMPDEST PUSH2 0x56 PUSH2 0xD4 JUMP JUMPDEST PUSH1 0x40 MLOAD PUSH2 0x63 SWAP2 SWAP1 PUSH2 0x643 JUMP JUMPDEST PUSH1 0x40 MLOAD DUP1 SWAP2 SUB SWAP1 RETURN JUMPDEST PUSH2 0x86 PUSH1 0x4 DUP1 CALLDATASIZE SUB DUP2 ADD SWAP1 PUSH2 0x81 SWAP2 SWAP1 PUSH2 0x7DC JUMP JUMPDEST PUSH2 0xFB JUMP JUMPDEST STOP JUMPDEST PUSH2 0xA2 PUSH1 0x4 DUP1 CALLDATASIZE SUB DUP2 ADD SWAP1 PUSH2 0x9D SWAP2 SWAP1 PUSH2 0x894 JUMP JUMPDEST PUSH2 0x266 JUMP JUMPDEST PUSH1 0x40 MLOAD PUSH2 0xAF SWAP2 SWAP1 PUSH2 0xA6A JUMP JUMPDEST PUSH1 0x40 MLOAD DUP1 SWAP2 SUB SWAP1 RETURN JUMPDEST PUSH2 0xD2 PUSH1 0x4 DUP1 CALLDATASIZE SUB DUP2 ADD SWAP1 PUSH2 0xCD SWAP2 SWAP1 PUSH2 0xAB4 JUMP JUMPDEST PUSH2 0x51F JUMP JUMPDEST STOP JUMPDEST PUSH0 DUP1 PUSH0 SWAP1 SLOAD SWAP1 PUSH2 0x100 EXP SWAP1 DIV PUSH20 0xFFFFFFFFFFFFFFFFFFFFFFFFFFFFFFFFFFFFFFFF AND SWAP1 POP SWAP1 JUMP JUMPDEST PUSH0 DUP1 SLOAD SWAP1 PUSH2 0x100 EXP SWAP1 DIV PUSH20 0xFFFFFFFFFFFFFFFFFFFFFFFFFFFFFFFFFFFFFFFF AND PUSH20 0xFFFFFFFFFFFFFFFFFFFFFFFFFFFFFFFFFFFFFFFF AND CALLER PUSH20 0xFFFFFFFFFFFFFFFFFFFFFFFFFFFFFFFFFFFFFFFF AND EQ PUSH2 0x188 JUMPI PUSH1 0x40 MLOAD PUSH32 0x8C379A000000000000000000000000000000000000000000000000000000000 DUP2 MSTORE PUSH1 0x4 ADD PUSH2 0x17F SWAP1 PUSH2 0xB5F JUMP JUMPDEST PUSH1 0x40 MLOAD DUP1 SWAP2 SUB SWAP1 REVERT JUMPDEST PUSH0 PUSH1 0x1 DUP1 PUSH0 DUP8 DUP2 MSTORE PUSH1 0x20 ADD SWAP1 DUP2 MSTORE PUSH1 0x20 ADD PUSH0 KECCAK256 DUP1 SLOAD SWAP1 POP PUSH2 0x1A9 SWAP2 SWAP1 PUSH2 0xBAA JUMP JUMPDEST SWAP1 POP PUSH1 0x1 PUSH0 DUP7 DUP2 MSTORE PUSH1 0x20 ADD SWAP1 DUP2 MSTORE PUSH1 0x20 ADD PUSH0 KECCAK256 PUSH1 0x40 MLOAD DUP1 PUSH1 0xA0 ADD PUSH1 0x40 MSTORE DUP1 DUP4 DUP2 MSTORE PUSH1 0x20 ADD DUP7 DUP2 MSTORE PUSH1 0x20 ADD DUP6 DUP2 MSTORE PUSH1 0x20 ADD DUP5 DUP2 MSTORE PUSH1 0x20 ADD TIMESTAMP DUP2 MSTORE POP SWAP1 DUP1 PUSH1 0x1 DUP2 SLOAD ADD DUP1 DUP3 SSTORE DUP1 SWAP2 POP POP PUSH1 0x1 SWAP1 SUB SWAP1 PUSH0 MSTORE PUSH1 0x20 PUSH0 KECCAK256 SWAP1 PUSH1 0x5 MUL ADD PUSH0 SWAP1 SWAP2 SWAP1 SWAP2 SWAP1 SWAP2 POP PUSH0 DUP3 ADD MLOAD DUP2 PUSH0 ADD SSTORE PUSH1 0x20 DUP3 ADD MLOAD DUP2 PUSH1 0x1 ADD SWAP1 DUP2 PUSH2 0x226 SWAP2 SWAP1 PUSH2 0xDD7 JUMP JUMPDEST POP PUSH1 0x40 DUP3 ADD MLOAD DUP2 PUSH1 0x2 ADD SWAP1 DUP2 PUSH2 0x23C SWAP2 SWAP1 PUSH2 0xDD7 JUMP JUMPDEST POP PUSH1 0x60 DUP3 ADD MLOAD DUP2 PUSH1 0x3 ADD SWAP1 DUP2 PUSH2 0x252 SWAP2 SWAP1 PUSH2 0xDD7 JUMP JUMPDEST POP PUSH1 0x80 DUP3 ADD MLOAD DUP2 PUSH1 0x4 ADD SSTORE POP POP POP POP POP POP POP JUMP JUMPDEST PUSH1 0x60 PUSH1 0x2 PUSH0 CALLER PUSH20 0xFFFFFFFFFFFFFFFFFFFFFFFFFFFFFFFFFFFFFFFF AND PUSH20 0xFFFFFFFFFFFFFFFFFFFFFFFFFFFFFFFFFFFFFFFF AND DUP2 MSTORE PUSH1 0x20 ADD SWAP1 DUP2 MSTORE PUSH1 0x20 ADD PUSH0 KECCAK256 PUSH0 SWAP1 SLOAD SWAP1 PUSH2 0x100 EXP SWAP1 DIV PUSH1 0xFF AND PUSH2 0x2F1 JUMPI PUSH1 0x40 MLOAD PUSH32 0x8C379A000000000000000000000000000000000000000000000000000000000 DUP2 MSTORE PUSH1 0x4 ADD PUSH2 0x2E8 SWAP1 PUSH2 0xEF0 JUMP JUMPDEST PUSH1 0x40 MLOAD DUP1 SWAP2 SUB SWAP1 REVERT JUMPDEST PUSH1 0x1 PUSH0 DUP4 DUP2 MSTORE PUSH1 0x20 ADD SWAP1 DUP2 MSTORE PUSH1 0x20 ADD PUSH0 KECCAK256 DUP1 SLOAD DUP1 PUSH1 0x20 MUL PUSH1 0x20 ADD PUSH1 0x40 MLOAD SWAP1 DUP2 ADD PUSH1 0x40 MSTORE DUP1 SWAP3 SWAP2 SWAP1 DUP2 DUP2 MSTORE PUSH1 0x20 ADD PUSH0 SWAP1 JUMPDEST DUP3 DUP3 LT ISZERO PUSH2 0x514 JUMPI DUP4 DUP3 SWAP1 PUSH0 MSTORE PUSH1 0x20 PUSH0 KECCAK256 SWAP1 PUSH1 0x5 MUL ADD PUSH1 0x40 MLOAD DUP1 PUSH1 0xA0 ADD PUSH1 0x40 MSTORE SWAP1 DUP2 PUSH0 DUP3 ADD SLOAD DUP2 MSTORE PUSH1 0x20 ADD PUSH1 0x1 DUP3 ADD DUP1 SLOAD PUSH2 0x35B SWAP1 PUSH2 0xC0A JUMP JUMPDEST DUP1 PUSH1 0x1F ADD PUSH1 0x20 DUP1 SWAP2 DIV MUL PUSH1 0x20 ADD PUSH1 0x40 MLOAD SWAP1 DUP2 ADD PUSH1 0x40 MSTORE DUP1 SWAP3 SWAP2 SWAP1 DUP2 DUP2 MSTORE PUSH1 0x20 ADD DUP3 DUP1 SLOAD PUSH2 0x387 SWAP1 PUSH2 0xC0A JUMP JUMPDEST DUP1 ISZERO PUSH2 0x3D2 JUMPI DUP1 PUSH1 0x1F LT PUSH2 0x3A9 JUMPI PUSH2 0x100 DUP1 DUP4 SLOAD DIV MUL DUP4 MSTORE SWAP2 PUSH1 0x20 ADD SWAP2 PUSH2 0x3D2 JUMP JUMPDEST DUP3 ADD SWAP2 SWAP1 PUSH0 MSTORE PUSH1 0x20 PUSH0 KECCAK256 SWAP1 JUMPDEST DUP2 SLOAD DUP2 MSTORE SWAP1 PUSH1 0x1 ADD SWAP1 PUSH1 0x20 ADD DUP1 DUP4 GT PUSH2 0x3B5 JUMPI DUP3 SWAP1 SUB PUSH1 0x1F AND DUP3 ADD SWAP2 JUMPDEST POP POP POP POP POP DUP2 MSTORE PUSH1 0x20 ADD PUSH1 0x2 DUP3 ADD DUP1 SLOAD PUSH2 0x3EB SWAP1 PUSH2 0xC0A JUMP JUMPDEST DUP1 PUSH1 0x1F ADD PUSH1 0x20 DUP1 SWAP2 DIV MUL PUSH1 0x20 ADD PUSH1 0x40 MLOAD SWAP1 DUP2 ADD PUSH1 0x40 MSTORE DUP1 SWAP3 SWAP2 SWAP1 DUP2 DUP2 MSTORE PUSH1 0x20 ADD DUP3 DUP1 SLOAD PUSH2 0x417 SWAP1 PUSH2 0xC0A JUMP JUMPDEST DUP1 ISZERO PUSH2 0x462 JUMPI DUP1 PUSH1 0x1F LT PUSH2 0x439 JUMPI PUSH2 0x100 DUP1 DUP4 SLOAD DIV MUL DUP4 MSTORE SWAP2 PUSH1 0x20 ADD SWAP2 PUSH2 0x462 JUMP JUMPDEST DUP3 ADD SWAP2 SWAP1 PUSH0 MSTORE PUSH1 0x20 PUSH0 KECCAK256 SWAP1 JUMPDEST DUP2 SLOAD DUP2 MSTORE SWAP1 PUSH1 0x1 ADD SWAP1 PUSH1 0x20 ADD DUP1 DUP4 GT PUSH2 0x445 JUMPI DUP3 SWAP1 SUB PUSH1 0x1F AND DUP3 ADD SWAP2 JUMPDEST POP POP POP POP POP DUP2 MSTORE PUSH1 0x20 ADD PUSH1 0x3 DUP3 ADD DUP1 SLOAD PUSH2 0x47B SWAP1 PUSH2 0xC0A JUMP JUMPDEST DUP1 PUSH1 0x1F ADD PUSH1 0x20 DUP1 SWAP2 DIV MUL PUSH1 0x20 ADD PUSH1 0x40 MLOAD SWAP1 DUP2 ADD PUSH1 0x40 MSTORE DUP1 SWAP3 SWAP2 SWAP1 DUP2 DUP2 MSTORE PUSH1 0x20 ADD DUP3 DUP1 SLOAD PUSH2 0x4A7 SWAP1 PUSH2 0xC0A JUMP JUMPDEST DUP1 ISZERO PUSH2 0x4F2 JUMPI DUP1 PUSH1 0x1F LT PUSH2 0x4C9 JUMPI PUSH2 0x100 DUP1 DUP4 SLOAD DIV MUL DUP4 MSTORE SWAP2 PUSH1 0x20 ADD SWAP2 PUSH2 0x4F2 JUMP JUMPDEST DUP3 ADD SWAP2 SWAP1 PUSH0 MSTORE PUSH1 0x20 PUSH0 KECCAK256 SWAP1 JUMPDEST DUP2 SLOAD DUP2 MSTORE SWAP1 PUSH1 0x1 ADD SWAP1 PUSH1 0x20 ADD DUP1 DUP4 GT PUSH2 0x4D5 JUMPI DUP3 SWAP1 SUB PUSH1 0x1F AND DUP3 ADD SWAP2 JUMPDEST POP POP POP POP POP DUP2 MSTORE PUSH1 0x20 ADD PUSH1 0x4 DUP3 ADD SLOAD DUP2 MSTORE POP POP DUP2 MSTORE PUSH1 0x20 ADD SWAP1 PUSH1 0x1 ADD SWAP1 PUSH2 0x321 JUMP JUMPDEST POP POP POP POP SWAP1 POP SWAP2 SWAP1 POP JUMP JUMPDEST PUSH0 DUP1 SLOAD SWAP1 PUSH2 0x100 EXP SWAP1 DIV PUSH20 0xFFFFFFFFFFFFFFFFFFFFFFFFFFFFFFFFFFFFFFFF AND PUSH20 0xFFFFFFFFFFFFFFFFFFFFFFFFFFFFFFFFFFFFFFFF AND CALLER PUSH20 0xFFFFFFFFFFFFFFFFFFFFFFFFFFFFFFFFFFFFFFFF AND EQ PUSH2 0x5AC JUMPI PUSH1 0x40 MLOAD PUSH32 0x8C379A000000000000000000000000000000000000000000000000000000000 DUP2 MSTORE PUSH1 0x4 ADD PUSH2 0x5A3 SWAP1 PUSH2 0xB5F JUMP JUMPDEST PUSH1 0x40 MLOAD DUP1 SWAP2 SUB SWAP1 REVERT JUMPDEST PUSH1 0x1 PUSH1 0x2 PUSH0 DUP4 PUSH20 0xFFFFFFFFFFFFFFFFFFFFFFFFFFFFFFFFFFFFFFFF AND PUSH20 0xFFFFFFFFFFFFFFFFFFFFFFFFFFFFFFFFFFFFFFFF AND DUP2 MSTORE PUSH1 0x20 ADD SWAP1 DUP2 MSTORE PUSH1 0x20 ADD PUSH0 KECCAK256 PUSH0 PUSH2 0x100 EXP DUP2 SLOAD DUP2 PUSH1 0xFF MUL NOT AND SWAP1 DUP4 ISZERO ISZERO MUL OR SWAP1 SSTORE POP POP JUMP JUMPDEST PUSH0 PUSH20 0xFFFFFFFFFFFFFFFFFFFFFFFFFFFFFFFFFFFFFFFF DUP3 AND SWAP1 POP SWAP2 SWAP1 POP JUMP JUMPDEST PUSH0 PUSH2 0x62D DUP3 PUSH2 0x604 JUMP JUMPDEST SWAP1 POP SWAP2 SWAP1 POP JUMP JUMPDEST PUSH2 0x63D DUP2 PUSH2 0x623 JUMP JUMPDEST DUP3 MSTORE POP POP JUMP JUMPDEST PUSH0 PUSH1 0x20 DUP3 ADD SWAP1 POP PUSH2 0x656 PUSH0 DUP4 ADD DUP5 PUSH2 0x634 JUMP JUMPDEST SWAP3 SWAP2 POP POP JUMP JUMPDEST PUSH0 PUSH1 0x40 MLOAD SWAP1 POP SWAP1 JUMP JUMPDEST PUSH0 DUP1 REVERT JUMPDEST PUSH0 DUP1 REVERT JUMPDEST PUSH0 DUP2 SWAP1 POP SWAP2 SWAP1 POP JUMP JUMPDEST PUSH2 0x67F DUP2 PUSH2 0x66D JUMP JUMPDEST DUP2 EQ PUSH2 0x689 JUMPI PUSH0 DUP1 REVERT JUMPDEST POP JUMP JUMPDEST PUSH0 DUP2 CALLDATALOAD SWAP1 POP PUSH2 0x69A DUP2 PUSH2 0x676 JUMP JUMPDEST SWAP3 SWAP2 POP POP JUMP JUMPDEST PUSH0 DUP1 REVERT JUMPDEST PUSH0 DUP1 REVERT JUMPDEST PUSH0 PUSH1 0x1F NOT PUSH1 0x1F DUP4 ADD AND SWAP1 POP SWAP2 SWAP1 POP JUMP JUMPDEST PUSH32 0x4E487B7100000000000000000000000000000000000000000000000000000000 PUSH0 MSTORE PUSH1 0x41 PUSH1 0x4 MSTORE PUSH1 0x24 PUSH0 REVERT JUMPDEST PUSH2 0x6EE DUP3 PUSH2 0x6A8 JUMP JUMPDEST DUP2 ADD DUP2 DUP2 LT PUSH8 0xFFFFFFFFFFFFFFFF DUP3 GT OR ISZERO PUSH2 0x70D JUMPI PUSH2 0x70C PUSH2 0x6B8 JUMP JUMPDEST JUMPDEST DUP1 PUSH1 0x40 MSTORE POP POP POP JUMP JUMPDEST PUSH0 PUSH2 0x71F PUSH2 0x65C JUMP JUMPDEST SWAP1 POP PUSH2 0x72B DUP3 DUP3 PUSH2 0x6E5 JUMP JUMPDEST SWAP2 SWAP1 POP JUMP JUMPDEST PUSH0 PUSH8 0xFFFFFFFFFFFFFFFF DUP3 GT ISZERO PUSH2 0x74A JUMPI PUSH2 0x749 PUSH2 0x6B8 JUMP JUMPDEST JUMPDEST PUSH2 0x753 DUP3 PUSH2 0x6A8 JUMP JUMPDEST SWAP1 POP PUSH1 0x20 DUP2 ADD SWAP1 POP SWAP2 SWAP1 POP JUMP JUMPDEST DUP3 DUP2 DUP4 CALLDATACOPY PUSH0 DUP4 DUP4 ADD MSTORE POP POP POP JUMP JUMPDEST PUSH0 PUSH2 0x780 PUSH2 0x77B DUP5 PUSH2 0x730 JUMP JUMPDEST PUSH2 0x716 JUMP JUMPDEST SWAP1 POP DUP3 DUP2 MSTORE PUSH1 0x20 DUP2 ADD DUP5 DUP5 DUP5 ADD GT ISZERO PUSH2 0x79C JUMPI PUSH2 0x79B PUSH2 0x6A4 JUMP JUMPDEST JUMPDEST PUSH2 0x7A7 DUP5 DUP3 DUP6 PUSH2 0x760 JUMP JUMPDEST POP SWAP4 SWAP3 POP POP POP JUMP JUMPDEST PUSH0 DUP3 PUSH1 0x1F DUP4 ADD SLT PUSH2 0x7C3 JUMPI PUSH2 0x7C2 PUSH2 0x6A0 JUMP JUMPDEST JUMPDEST DUP2 CALLDATALOAD PUSH2 0x7D3 DUP5 DUP3 PUSH1 0x20 DUP7 ADD PUSH2 0x76E JUMP JUMPDEST SWAP2 POP POP SWAP3 SWAP2 POP POP JUMP JUMPDEST PUSH0 DUP1 PUSH0 DUP1 PUSH1 0x80 DUP6 DUP8 SUB SLT ISZERO PUSH2 0x7F4 JUMPI PUSH2 0x7F3 PUSH2 0x665 JUMP JUMPDEST JUMPDEST PUSH0 PUSH2 0x801 DUP8 DUP3 DUP9 ADD PUSH2 0x68C JUMP JUMPDEST SWAP5 POP POP PUSH1 0x20 DUP6 ADD CALLDATALOAD PUSH8 0xFFFFFFFFFFFFFFFF DUP2 GT ISZERO PUSH2 0x822 JUMPI PUSH2 0x821 PUSH2 0x669 JUMP JUMPDEST JUMPDEST PUSH2 0x82E DUP8 DUP3 DUP9 ADD PUSH2 0x7AF JUMP JUMPDEST SWAP4 POP POP PUSH1 0x40 DUP6 ADD CALLDATALOAD PUSH8 0xFFFFFFFFFFFFFFFF DUP2 GT ISZERO PUSH2 0x84F JUMPI PUSH2 0x84E PUSH2 0x669 JUMP JUMPDEST JUMPDEST PUSH2 0x85B DUP8 DUP3 DUP9 ADD PUSH2 0x7AF JUMP JUMPDEST SWAP3 POP POP PUSH1 0x60 DUP6 ADD CALLDATALOAD PUSH8 0xFFFFFFFFFFFFFFFF DUP2 GT ISZERO PUSH2 0x87C JUMPI PUSH2 0x87B PUSH2 0x669 JUMP JUMPDEST JUMPDEST PUSH2 0x888 DUP8 DUP3 DUP9 ADD PUSH2 0x7AF JUMP JUMPDEST SWAP2 POP POP SWAP3 SWAP6 SWAP2 SWAP5 POP SWAP3 POP JUMP JUMPDEST PUSH0 PUSH1 0x20 DUP3 DUP5 SUB SLT ISZERO PUSH2 0x8A9 JUMPI PUSH2 0x8A8 PUSH2 0x665 JUMP JUMPDEST JUMPDEST PUSH0 PUSH2 0x8B6 DUP5 DUP3 DUP6 ADD PUSH2 0x68C JUMP JUMPDEST SWAP2 POP POP SWAP3 SWAP2 POP POP JUMP JUMPDEST PUSH0 DUP2 MLOAD SWAP1 POP SWAP2 SWAP1 POP JUMP JUMPDEST PUSH0 DUP3 DUP3 MSTORE PUSH1 0x20 DUP3 ADD SWAP1 POP SWAP3 SWAP2 POP POP JUMP JUMPDEST PUSH0 DUP2 SWAP1 POP PUSH1 0x20 DUP3 ADD SWAP1 POP SWAP2 SWAP1 POP JUMP JUMPDEST PUSH2 0x8F1 DUP2 PUSH2 0x66D JUMP JUMPDEST DUP3 MSTORE POP POP JUMP JUMPDEST PUSH0 DUP2 MLOAD SWAP1 POP SWAP2 SWAP1 POP JUMP JUMPDEST PUSH0 DUP3 DUP3 MSTORE PUSH1 0x20 DUP3 ADD SWAP1 POP SWAP3 SWAP2 POP POP JUMP JUMPDEST DUP3 DUP2 DUP4 MCOPY PUSH0 DUP4 DUP4 ADD MSTORE POP POP POP JUMP JUMPDEST PUSH0 PUSH2 0x929 DUP3 PUSH2 0x8F7 JUMP JUMPDEST PUSH2 0x933 DUP2 DUP6 PUSH2 0x901 JUMP JUMPDEST SWAP4 POP PUSH2 0x943 DUP2 DUP6 PUSH1 0x20 DUP7 ADD PUSH2 0x911 JUMP JUMPDEST PUSH2 0x94C DUP2 PUSH2 0x6A8 JUMP JUMPDEST DUP5 ADD SWAP2 POP POP SWAP3 SWAP2 POP POP JUMP JUMPDEST PUSH0 PUSH1 0xA0 DUP4 ADD PUSH0 DUP4 ADD MLOAD PUSH2 0x96C PUSH0 DUP7 ADD DUP3 PUSH2 0x8E8 JUMP JUMPDEST POP PUSH1 0x20 DUP4 ADD MLOAD DUP5 DUP3 SUB PUSH1 0x20 DUP7 ADD MSTORE PUSH2 0x984 DUP3 DUP3 PUSH2 0x91F JUMP JUMPDEST SWAP2 POP POP PUSH1 0x40 DUP4 ADD MLOAD DUP5 DUP3 SUB PUSH1 0x40 DUP7 ADD MSTORE PUSH2 0x99E DUP3 DUP3 PUSH2 0x91F JUMP JUMPDEST SWAP2 POP POP PUSH1 0x60 DUP4 ADD MLOAD DUP5 DUP3 SUB PUSH1 0x60 DUP7 ADD MSTORE PUSH2 0x9B8 DUP3 DUP3 PUSH2 0x91F JUMP JUMPDEST SWAP2 POP POP PUSH1 0x80 DUP4 ADD MLOAD PUSH2 0x9CD PUSH1 0x80 DUP7 ADD DUP3 PUSH2 0x8E8 JUMP JUMPDEST POP DUP1 SWAP2 POP POP SWAP3 SWAP2 POP POP JUMP JUMPDEST PUSH0 PUSH2 0x9E3 DUP4 DUP4 PUSH2 0x957 JUMP JUMPDEST SWAP1 POP SWAP3 SWAP2 POP POP JUMP JUMPDEST PUSH0 PUSH1 0x20 DUP3 ADD SWAP1 POP SWAP2 SWAP1 POP JUMP JUMPDEST PUSH0 PUSH2 0xA01 DUP3 PUSH2 0x8BF JUMP JUMPDEST PUSH2 0xA0B DUP2 DUP6 PUSH2 0x8C9 JUMP JUMPDEST SWAP4 POP DUP4 PUSH1 0x20 DUP3 MUL DUP6 ADD PUSH2 0xA1D DUP6 PUSH2 0x8D9 JUMP JUMPDEST DUP1 PUSH0 JUMPDEST DUP6 DUP2 LT ISZERO PUSH2 0xA58 JUMPI DUP5 DUP5 SUB DUP10 MSTORE DUP2 MLOAD PUSH2 0xA39 DUP6 DUP3 PUSH2 0x9D8 JUMP JUMPDEST SWAP5 POP PUSH2 0xA44 DUP4 PUSH2 0x9EB JUMP JUMPDEST SWAP3 POP PUSH1 0x20 DUP11 ADD SWAP10 POP POP PUSH1 0x1 DUP2 ADD SWAP1 POP PUSH2 0xA20 JUMP JUMPDEST POP DUP3 SWAP8 POP DUP8 SWAP6 POP POP POP POP POP POP SWAP3 SWAP2 POP POP JUMP JUMPDEST PUSH0 PUSH1 0x20 DUP3 ADD SWAP1 POP DUP2 DUP2 SUB PUSH0 DUP4 ADD MSTORE PUSH2 0xA82 DUP2 DUP5 PUSH2 0x9F7 JUMP JUMPDEST SWAP1 POP SWAP3 SWAP2 POP POP JUMP JUMPDEST PUSH2 0xA93 DUP2 PUSH2 0x623 JUMP JUMPDEST DUP2 EQ PUSH2 0xA9D JUMPI PUSH0 DUP1 REVERT JUMPDEST POP JUMP JUMPDEST PUSH0 DUP2 CALLDATALOAD SWAP1 POP PUSH2 0xAAE DUP2 PUSH2 0xA8A JUMP JUMPDEST SWAP3 SWAP2 POP POP JUMP JUMPDEST PUSH0 PUSH1 0x20 DUP3 DUP5 SUB SLT ISZERO PUSH2 0xAC9 JUMPI PUSH2 0xAC8 PUSH2 0x665 JUMP JUMPDEST JUMPDEST PUSH0 PUSH2 0xAD6 DUP5 DUP3 DUP6 ADD PUSH2 0xAA0 JUMP JUMPDEST SWAP2 POP POP SWAP3 SWAP2 POP POP JUMP JUMPDEST PUSH0 DUP3 DUP3 MSTORE PUSH1 0x20 DUP3 ADD SWAP1 POP SWAP3 SWAP2 POP POP JUMP JUMPDEST PUSH32 0x536F6D656E7465206F2070726F70726965746172696F20706F6465207574696C PUSH0 DUP3 ADD MSTORE PUSH32 0x697A617220657373612066756E63616F00000000000000000000000000000000 PUSH1 0x20 DUP3 ADD MSTORE POP JUMP JUMPDEST PUSH0 PUSH2 0xB49 PUSH1 0x30 DUP4 PUSH2 0xADF JUMP JUMPDEST SWAP2 POP PUSH2 0xB54 DUP3 PUSH2 0xAEF JUMP JUMPDEST PUSH1 0x40 DUP3 ADD SWAP1 POP SWAP2 SWAP1 POP JUMP JUMPDEST PUSH0 PUSH1 0x20 DUP3 ADD SWAP1 POP DUP2 DUP2 SUB PUSH0 DUP4 ADD MSTORE PUSH2 0xB76 DUP2 PUSH2 0xB3D JUMP JUMPDEST SWAP1 POP SWAP2 SWAP1 POP JUMP JUMPDEST PUSH32 0x4E487B7100000000000000000000000000000000000000000000000000000000 PUSH0 MSTORE PUSH1 0x11 PUSH1 0x4 MSTORE PUSH1 0x24 PUSH0 REVERT JUMPDEST PUSH0 PUSH2 0xBB4 DUP3 PUSH2 0x66D JUMP JUMPDEST SWAP2 POP PUSH2 0xBBF DUP4 PUSH2 0x66D JUMP JUMPDEST SWAP3 POP DUP3 DUP3 ADD SWAP1 POP DUP1 DUP3 GT ISZERO PUSH2 0xBD7 JUMPI PUSH2 0xBD6 PUSH2 0xB7D JUMP JUMPDEST JUMPDEST SWAP3 SWAP2 POP POP JUMP JUMPDEST PUSH32 0x4E487B7100000000000000000000000000000000000000000000000000000000 PUSH0 MSTORE PUSH1 0x22 PUSH1 0x4 MSTORE PUSH1 0x24 PUSH0 REVERT JUMPDEST PUSH0 PUSH1 0x2 DUP3 DIV SWAP1 POP PUSH1 0x1 DUP3 AND DUP1 PUSH2 0xC21 JUMPI PUSH1 0x7F DUP3 AND SWAP2 POP JUMPDEST PUSH1 0x20 DUP3 LT DUP2 SUB PUSH2 0xC34 JUMPI PUSH2 0xC33 PUSH2 0xBDD JUMP JUMPDEST JUMPDEST POP SWAP2 SWAP1 POP JUMP JUMPDEST PUSH0 DUP2 SWAP1 POP DUP2 PUSH0 MSTORE PUSH1 0x20 PUSH0 KECCAK256 SWAP1 POP SWAP2 SWAP1 POP JUMP JUMPDEST PUSH0 PUSH1 0x20 PUSH1 0x1F DUP4 ADD DIV SWAP1 POP SWAP2 SWAP1 POP JUMP JUMPDEST PUSH0 DUP3 DUP3 SHL SWAP1 POP SWAP3 SWAP2 POP POP JUMP JUMPDEST PUSH0 PUSH1 0x8 DUP4 MUL PUSH2 0xC96 PUSH32 0xFFFFFFFFFFFFFFFFFFFFFFFFFFFFFFFFFFFFFFFFFFFFFFFFFFFFFFFFFFFFFFFF DUP3 PUSH2 0xC5B JUMP JUMPDEST PUSH2 0xCA0 DUP7 DUP4 PUSH2 0xC5B JUMP JUMPDEST SWAP6 POP DUP1 NOT DUP5 AND SWAP4 POP DUP1 DUP7 AND DUP5 OR SWAP3 POP POP POP SWAP4 SWAP3 POP POP POP JUMP JUMPDEST PUSH0 DUP2 SWAP1 POP SWAP2 SWAP1 POP JUMP JUMPDEST PUSH0 PUSH2 0xCDB PUSH2 0xCD6 PUSH2 0xCD1 DUP5 PUSH2 0x66D JUMP JUMPDEST PUSH2 0xCB8 JUMP JUMPDEST PUSH2 0x66D JUMP JUMPDEST SWAP1 POP SWAP2 SWAP1 POP JUMP JUMPDEST PUSH0 DUP2 SWAP1 POP SWAP2 SWAP1 POP JUMP JUMPDEST PUSH2 0xCF4 DUP4 PUSH2 0xCC1 JUMP JUMPDEST PUSH2 0xD08 PUSH2 0xD00 DUP3 PUSH2 0xCE2 JUMP JUMPDEST DUP5 DUP5 SLOAD PUSH2 0xC67 JUMP JUMPDEST DUP3 SSTORE POP POP POP POP JUMP JUMPDEST PUSH0 SWAP1 JUMP JUMPDEST PUSH2 0xD1C PUSH2 0xD10 JUMP JUMPDEST PUSH2 0xD27 DUP2 DUP5 DUP5 PUSH2 0xCEB JUMP JUMPDEST POP POP POP JUMP JUMPDEST JUMPDEST DUP2 DUP2 LT ISZERO PUSH2 0xD4A JUMPI PUSH2 0xD3F PUSH0 DUP3 PUSH2 0xD14 JUMP JUMPDEST PUSH1 0x1 DUP2 ADD SWAP1 POP PUSH2 0xD2D JUMP JUMPDEST POP POP JUMP JUMPDEST PUSH1 0x1F DUP3 GT ISZERO PUSH2 0xD8F JUMPI PUSH2 0xD60 DUP2 PUSH2 0xC3A JUMP JUMPDEST PUSH2 0xD69 DUP5 PUSH2 0xC4C JUMP JUMPDEST DUP2 ADD PUSH1 0x20 DUP6 LT ISZERO PUSH2 0xD78 JUMPI DUP2 SWAP1 POP JUMPDEST PUSH2 0xD8C PUSH2 0xD84 DUP6 PUSH2 0xC4C JUMP JUMPDEST DUP4 ADD DUP3 PUSH2 0xD2C JUMP JUMPDEST POP POP JUMPDEST POP POP POP JUMP JUMPDEST PUSH0 DUP3 DUP3 SHR SWAP1 POP SWAP3 SWAP2 POP POP JUMP JUMPDEST PUSH0 PUSH2 0xDAF PUSH0 NOT DUP5 PUSH1 0x8 MUL PUSH2 0xD94 JUMP JUMPDEST NOT DUP1 DUP4 AND SWAP2 POP POP SWAP3 SWAP2 POP POP JUMP JUMPDEST PUSH0 PUSH2 0xDC7 DUP4 DUP4 PUSH2 0xDA0 JUMP JUMPDEST SWAP2 POP DUP3 PUSH1 0x2 MUL DUP3 OR SWAP1 POP SWAP3 SWAP2 POP POP JUMP JUMPDEST PUSH2 0xDE0 DUP3 PUSH2 0x8F7 JUMP JUMPDEST PUSH8 0xFFFFFFFFFFFFFFFF DUP2 GT ISZERO PUSH2 0xDF9 JUMPI PUSH2 0xDF8 PUSH2 0x6B8 JUMP JUMPDEST JUMPDEST PUSH2 0xE03 DUP3 SLOAD PUSH2 0xC0A JUMP JUMPDEST PUSH2 0xE0E DUP3 DUP3 DUP6 PUSH2 0xD4E JUMP JUMPDEST PUSH0 PUSH1 0x20 SWAP1 POP PUSH1 0x1F DUP4 GT PUSH1 0x1 DUP2 EQ PUSH2 0xE3F JUMPI PUSH0 DUP5 ISZERO PUSH2 0xE2D JUMPI DUP3 DUP8 ADD MLOAD SWAP1 POP JUMPDEST PUSH2 0xE37 DUP6 DUP3 PUSH2 0xDBC JUMP JUMPDEST DUP7 SSTORE POP PUSH2 0xE9E JUMP JUMPDEST PUSH1 0x1F NOT DUP5 AND PUSH2 0xE4D DUP7 PUSH2 0xC3A JUMP JUMPDEST PUSH0 JUMPDEST DUP3 DUP2 LT ISZERO PUSH2 0xE74 JUMPI DUP5 DUP10 ADD MLOAD DUP3 SSTORE PUSH1 0x1 DUP3 ADD SWAP2 POP PUSH1 0x20 DUP6 ADD SWAP5 POP PUSH1 0x20 DUP2 ADD SWAP1 POP PUSH2 0xE4F JUMP JUMPDEST DUP7 DUP4 LT ISZERO PUSH2 0xE91 JUMPI DUP5 DUP10 ADD MLOAD PUSH2 0xE8D PUSH1 0x1F DUP10 AND DUP3 PUSH2 0xDA0 JUMP JUMPDEST DUP4 SSTORE POP JUMPDEST PUSH1 0x1 PUSH1 0x2 DUP9 MUL ADD DUP9 SSTORE POP POP POP JUMPDEST POP POP POP POP POP POP JUMP JUMPDEST PUSH32 0x50726F7665646F72206E616F206175746F72697A61646F000000000000000000 PUSH0 DUP3 ADD MSTORE POP JUMP JUMPDEST PUSH0 PUSH2 0xEDA PUSH1 0x17 DUP4 PUSH2 0xADF JUMP JUMPDEST SWAP2 POP PUSH2 0xEE5 DUP3 PUSH2 0xEA6 JUMP JUMPDEST PUSH1 0x20 DUP3 ADD SWAP1 POP SWAP2 SWAP1 POP JUMP JUMPDEST PUSH0 PUSH1 0x20 DUP3 ADD SWAP1 POP DUP2 DUP2 SUB PUSH0 DUP4 ADD MSTORE PUSH2 0xF07 DUP2 PUSH2 0xECE JUMP JUMPDEST SWAP1 POP SWAP2 SWAP1 POP JUMP INVALID LOG2 PUSH5 0x6970667358 0x22 SLT KECCAK256 RETURNDATASIZE 0xA5 CALLER 0xFB OR LOG2 MOD ADD 0xF7 0xBB MSTORE CODESIZE DUP8 0xA5 PUSH32 0x847F482768AB1FA4FC7A609868E889C5BE64736F6C634300081A003300000000 "
				},
				"gasEstimates": {
					"creation": {
						"codeDepositCost": "781600",
						"executionCost": "25081",
						"totalCost": "806681"
					},
					"external": {
						"addRegistro(uint256,string,string,string)": "infinite",
						"autorizarProvedor(address)": "27013",
						"getProprietario()": "2493",
						"getRegistroPaciente(uint256)": "infinite"
					}
				},
				"methodIdentifiers": {
					"addRegistro(uint256,string,string,string)": "5bcf68fe",
					"autorizarProvedor(address)": "ddcc2dfa",
					"getProprietario()": "0617b2f7",
					"getRegistroPaciente(uint256)": "a2c0f874"
				}
			},
			"storageLayout": {
				"storage": [
					{
						"astId": 3,
						"contract": "contracts/RegistroMedico.sol:HealthcareRegistro",
						"label": "proprietario",
						"offset": 0,
						"slot": "0",
						"type": "t_address"
					},
					{
						"astId": 20,
						"contract": "contracts/RegistroMedico.sol:HealthcareRegistro",
						"label": "registroPaciente",
						"offset": 0,
						"slot": "1",
						"type": "t_mapping(t_uint256,t_array(t_struct(Registro)14_storage)dyn_storage)"
					},
					{
						"astId": 24,
						"contract": "contracts/RegistroMedico.sol:HealthcareRegistro",
						"label": "provedorAutorizado",
						"offset": 0,
						"slot": "2",
						"type": "t_mapping(t_address,t_bool)"
					}
				],
				"types": {
					"t_address": {
						"encoding": "inplace",
						"label": "address",
						"numberOfBytes": "20"
					},
					"t_array(t_struct(Registro)14_storage)dyn_storage": {
						"base": "t_struct(Registro)14_storage",
						"encoding": "dynamic_array",
						"label": "struct HealthcareRegistro.Registro[]",
						"numberOfBytes": "32"
					},
					"t_bool": {
						"encoding": "inplace",
						"label": "bool",
						"numberOfBytes": "1"
					},
					"t_mapping(t_address,t_bool)": {
						"encoding": "mapping",
						"key": "t_address",
						"label": "mapping(address => bool)",
						"numberOfBytes": "32",
						"value": "t_bool"
					},
					"t_mapping(t_uint256,t_array(t_struct(Registro)14_storage)dyn_storage)": {
						"encoding": "mapping",
						"key": "t_uint256",
						"label": "mapping(uint256 => struct HealthcareRegistro.Registro[])",
						"numberOfBytes": "32",
						"value": "t_array(t_struct(Registro)14_storage)dyn_storage"
					},
					"t_string_storage": {
						"encoding": "bytes",
						"label": "string",
						"numberOfBytes": "32"
					},
					"t_struct(Registro)14_storage": {
						"encoding": "inplace",
						"label": "struct HealthcareRegistro.Registro",
						"members": [
							{
								"astId": 5,
								"contract": "contracts/RegistroMedico.sol:HealthcareRegistro",
								"label": "registroID",
								"offset": 0,
								"slot": "0",
								"type": "t_uint256"
							},
							{
								"astId": 7,
								"contract": "contracts/RegistroMedico.sol:HealthcareRegistro",
								"label": "pacienteNome",
								"offset": 0,
								"slot": "1",
								"type": "t_string_storage"
							},
							{
								"astId": 9,
								"contract": "contracts/RegistroMedico.sol:HealthcareRegistro",
								"label": "diagnostico",
								"offset": 0,
								"slot": "2",
								"type": "t_string_storage"
							},
							{
								"astId": 11,
								"contract": "contracts/RegistroMedico.sol:HealthcareRegistro",
								"label": "tratamento",
								"offset": 0,
								"slot": "3",
								"type": "t_string_storage"
							},
							{
								"astId": 13,
								"contract": "contracts/RegistroMedico.sol:HealthcareRegistro",
								"label": "timestamp",
								"offset": 0,
								"slot": "4",
								"type": "t_uint256"
							}
						],
						"numberOfBytes": "160"
					},
					"t_uint256": {
						"encoding": "inplace",
						"label": "uint256",
						"numberOfBytes": "32"
					}
				}
			},
			"userdoc": {
				"kind": "user",
				"methods": {},
				"version": 1
			}
		}
	}
}