{
	"contracts/RegistroMedico.sol": {
		"HealthcareRegistro": {
			"abi": [
				{
					"inputs": [],
					"stateMutability": "nonpayable",
					"type": "constructor"
				},
				{
					"anonymous": false,
					"inputs": [
						{
							"indexed": true,
							"internalType": "uint256",
							"name": "pacienteID",
							"type": "uint256"
						},
						{
							"indexed": false,
							"internalType": "uint256",
							"name": "registroID",
							"type": "uint256"
						},
						{
							"indexed": false,
							"internalType": "string",
							"name": "pacienteNome",
							"type": "string"
						}
					],
					"name": "RegistroAdicionado",
					"type": "event"
				},
				{
					"inputs": [
						{
							"internalType": "string",
							"name": "pacienteNome",
							"type": "string"
						},
						{
							"internalType": "string",
							"name": "diagnostico",
							"type": "string"
						},
						{
							"internalType": "string",
							"name": "tratamento",
							"type": "string"
						}
					],
					"name": "addRegistro",
					"outputs": [],
					"stateMutability": "nonpayable",
					"type": "function"
				},
				{
					"inputs": [
						{
							"internalType": "address",
							"name": "provider",
							"type": "address"
						}
					],
					"name": "autorizarProvedor",
					"outputs": [],
					"stateMutability": "nonpayable",
					"type": "function"
				},
				{
					"inputs": [],
					"name": "getProprietario",
					"outputs": [
						{
							"internalType": "address",
							"name": "",
							"type": "address"
						}
					],
					"stateMutability": "view",
					"type": "function"
				},
				{
					"inputs": [
						{
							"internalType": "uint256",
							"name": "pacienteID",
							"type": "uint256"
						}
					],
					"name": "getRegistroPaciente",
					"outputs": [
						{
							"components": [
								{
									"internalType": "uint256",
									"name": "registroID",
									"type": "uint256"
								},
								{
									"internalType": "string",
									"name": "pacienteNome",
									"type": "string"
								},
								{
									"internalType": "string",
									"name": "diagnostico",
									"type": "string"
								},
								{
									"internalType": "string",
									"name": "tratamento",
									"type": "string"
								},
								{
									"internalType": "uint256",
									"name": "timestamp",
									"type": "uint256"
								}
							],
							"internalType": "struct HealthcareRegistro.Registro[]",
							"name": "",
							"type": "tuple[]"
						}
					],
					"stateMutability": "view",
					"type": "function"
				}
			],
			"devdoc": {
				"kind": "dev",
				"methods": {},
				"version": 1
			},
			"evm": {
				"assembly": "    /* \"contracts/RegistroMedico.sol\":61:3261  contract HealthcareRegistro {... */\n  mstore(0x40, 0x80)\n    /* \"contracts/RegistroMedico.sol\":1446:1504  constructor() {... */\n  callvalue\n  dup1\n  iszero\n  tag_1\n  jumpi\n  0x00\n  dup1\n  revert\ntag_1:\n  pop\n    /* \"contracts/RegistroMedico.sol\":1486:1496  msg.sender */\n  caller\n    /* \"contracts/RegistroMedico.sol\":1471:1483  proprietario */\n  0x00\n  dup1\n    /* \"contracts/RegistroMedico.sol\":1471:1496  proprietario = msg.sender */\n  0x0100\n  exp\n  dup2\n  sload\n  dup2\n  0xffffffffffffffffffffffffffffffffffffffff\n  mul\n  not\n  and\n  swap1\n  dup4\n  0xffffffffffffffffffffffffffffffffffffffff\n  and\n  mul\n  or\n  swap1\n  sstore\n  pop\n    /* \"contracts/RegistroMedico.sol\":61:3261  contract HealthcareRegistro {... */\n  dataSize(sub_0)\n  dup1\n  dataOffset(sub_0)\n  0x00\n  codecopy\n  0x00\n  return\nstop\n\nsub_0: assembly {\n        /* \"contracts/RegistroMedico.sol\":61:3261  contract HealthcareRegistro {... */\n      mstore(0x40, 0x80)\n      callvalue\n      dup1\n      iszero\n      tag_1\n      jumpi\n      0x00\n      dup1\n      revert\n    tag_1:\n      pop\n      jumpi(tag_2, lt(calldatasize, 0x04))\n      shr(0xe0, calldataload(0x00))\n      dup1\n      0x0617b2f7\n      eq\n      tag_3\n      jumpi\n      dup1\n      0xa2c0f874\n      eq\n      tag_4\n      jumpi\n      dup1\n      0xcdd69f00\n      eq\n      tag_5\n      jumpi\n      dup1\n      0xddcc2dfa\n      eq\n      tag_6\n      jumpi\n    tag_2:\n      0x00\n      dup1\n      revert\n        /* \"contracts/RegistroMedico.sol\":1571:1666  function getProprietario() public view returns (address) {... */\n    tag_3:\n      tag_7\n      tag_8\n      jump\t// in\n    tag_7:\n      mload(0x40)\n      tag_9\n      swap2\n      swap1\n      tag_10\n      jump\t// in\n    tag_9:\n      mload(0x40)\n      dup1\n      swap2\n      sub\n      swap1\n      return\n        /* \"contracts/RegistroMedico.sol\":3043:3258  function getRegistroPaciente(uint256 pacienteID) ... */\n    tag_4:\n      tag_11\n      0x04\n      dup1\n      calldatasize\n      sub\n      dup2\n      add\n      swap1\n      tag_12\n      swap2\n      swap1\n      tag_13\n      jump\t// in\n    tag_12:\n      tag_14\n      jump\t// in\n    tag_11:\n      mload(0x40)\n      tag_15\n      swap2\n      swap1\n      tag_16\n      jump\t// in\n    tag_15:\n      mload(0x40)\n      dup1\n      swap2\n      sub\n      swap1\n      return\n        /* \"contracts/RegistroMedico.sol\":1959:2938  function addRegistro(... */\n    tag_5:\n      tag_17\n      0x04\n      dup1\n      calldatasize\n      sub\n      dup2\n      add\n      swap1\n      tag_18\n      swap2\n      swap1\n      tag_19\n      jump\t// in\n    tag_18:\n      tag_20\n      jump\t// in\n    tag_17:\n      stop\n        /* \"contracts/RegistroMedico.sol\":1728:1854  function autorizarProvedor(address provider) public somenteProprietario {... */\n    tag_6:\n      tag_21\n      0x04\n      dup1\n      calldatasize\n      sub\n      dup2\n      add\n      swap1\n      tag_22\n      swap2\n      swap1\n      tag_23\n      jump\t// in\n    tag_22:\n      tag_24\n      jump\t// in\n    tag_21:\n      stop\n        /* \"contracts/RegistroMedico.sol\":1571:1666  function getProprietario() public view returns (address) {... */\n    tag_8:\n        /* \"contracts/RegistroMedico.sol\":1619:1626  address */\n      0x00\n        /* \"contracts/RegistroMedico.sol\":1646:1658  proprietario */\n      dup1\n      0x00\n      swap1\n      sload\n      swap1\n      0x0100\n      exp\n      swap1\n      div\n      0xffffffffffffffffffffffffffffffffffffffff\n      and\n        /* \"contracts/RegistroMedico.sol\":1639:1658  return proprietario */\n      swap1\n      pop\n        /* \"contracts/RegistroMedico.sol\":1571:1666  function getProprietario() public view returns (address) {... */\n      swap1\n      jump\t// out\n        /* \"contracts/RegistroMedico.sol\":3043:3258  function getRegistroPaciente(uint256 pacienteID) ... */\n    tag_14:\n        /* \"contracts/RegistroMedico.sol\":3179:3196  Registro[] memory */\n      0x60\n        /* \"contracts/RegistroMedico.sol\":1289:1307  provedorAutorizado */\n      0x03\n        /* \"contracts/RegistroMedico.sol\":1289:1319  provedorAutorizado[msg.sender] */\n      0x00\n        /* \"contracts/RegistroMedico.sol\":1308:1318  msg.sender */\n      caller\n        /* \"contracts/RegistroMedico.sol\":1289:1319  provedorAutorizado[msg.sender] */\n      0xffffffffffffffffffffffffffffffffffffffff\n      and\n      0xffffffffffffffffffffffffffffffffffffffff\n      and\n      dup2\n      mstore\n      0x20\n      add\n      swap1\n      dup2\n      mstore\n      0x20\n      add\n      0x00\n      keccak256\n      0x00\n      swap1\n      sload\n      swap1\n      0x0100\n      exp\n      swap1\n      div\n      0xff\n      and\n        /* \"contracts/RegistroMedico.sol\":1281:1347  require(provedorAutorizado[msg.sender], \"Provedor nao autorizado\") */\n      tag_27\n      jumpi\n      mload(0x40)\n      0x08c379a000000000000000000000000000000000000000000000000000000000\n      dup2\n      mstore\n      0x04\n      add\n      tag_28\n      swap1\n      tag_29\n      jump\t// in\n    tag_28:\n      mload(0x40)\n      dup1\n      swap2\n      sub\n      swap1\n      revert\n    tag_27:\n        /* \"contracts/RegistroMedico.sol\":3222:3238  registroPaciente */\n      0x02\n        /* \"contracts/RegistroMedico.sol\":3222:3250  registroPaciente[pacienteID] */\n      0x00\n        /* \"contracts/RegistroMedico.sol\":3239:3249  pacienteID */\n      dup4\n        /* \"contracts/RegistroMedico.sol\":3222:3250  registroPaciente[pacienteID] */\n      dup2\n      mstore\n      0x20\n      add\n      swap1\n      dup2\n      mstore\n      0x20\n      add\n      0x00\n      keccak256\n        /* \"contracts/RegistroMedico.sol\":3215:3250  return registroPaciente[pacienteID] */\n      dup1\n      sload\n      dup1\n      0x20\n      mul\n      0x20\n      add\n      mload(0x40)\n      swap1\n      dup2\n      add\n      0x40\n      mstore\n      dup1\n      swap3\n      swap2\n      swap1\n      dup2\n      dup2\n      mstore\n      0x20\n      add\n      0x00\n      swap1\n    tag_31:\n      dup3\n      dup3\n      lt\n      iszero\n      tag_32\n      jumpi\n      dup4\n      dup3\n      swap1\n      0x00\n      mstore\n      keccak256(0x00, 0x20)\n      swap1\n      0x05\n      mul\n      add\n      mload(0x40)\n      dup1\n      0xa0\n      add\n      0x40\n      mstore\n      swap1\n      dup2\n      0x00\n      dup3\n      add\n      sload\n      dup2\n      mstore\n      0x20\n      add\n      0x01\n      dup3\n      add\n      dup1\n      sload\n      tag_34\n      swap1\n      tag_35\n      jump\t// in\n    tag_34:\n      dup1\n      0x1f\n      add\n      0x20\n      dup1\n      swap2\n      div\n      mul\n      0x20\n      add\n      mload(0x40)\n      swap1\n      dup2\n      add\n      0x40\n      mstore\n      dup1\n      swap3\n      swap2\n      swap1\n      dup2\n      dup2\n      mstore\n      0x20\n      add\n      dup3\n      dup1\n      sload\n      tag_36\n      swap1\n      tag_35\n      jump\t// in\n    tag_36:\n      dup1\n      iszero\n      tag_37\n      jumpi\n      dup1\n      0x1f\n      lt\n      tag_38\n      jumpi\n      0x0100\n      dup1\n      dup4\n      sload\n      div\n      mul\n      dup4\n      mstore\n      swap2\n      0x20\n      add\n      swap2\n      jump(tag_37)\n    tag_38:\n      dup3\n      add\n      swap2\n      swap1\n      0x00\n      mstore\n      keccak256(0x00, 0x20)\n      swap1\n    tag_39:\n      dup2\n      sload\n      dup2\n      mstore\n      swap1\n      0x01\n      add\n      swap1\n      0x20\n      add\n      dup1\n      dup4\n      gt\n      tag_39\n      jumpi\n      dup3\n      swap1\n      sub\n      0x1f\n      and\n      dup3\n      add\n      swap2\n    tag_37:\n      pop\n      pop\n      pop\n      pop\n      pop\n      dup2\n      mstore\n      0x20\n      add\n      0x02\n      dup3\n      add\n      dup1\n      sload\n      tag_40\n      swap1\n      tag_35\n      jump\t// in\n    tag_40:\n      dup1\n      0x1f\n      add\n      0x20\n      dup1\n      swap2\n      div\n      mul\n      0x20\n      add\n      mload(0x40)\n      swap1\n      dup2\n      add\n      0x40\n      mstore\n      dup1\n      swap3\n      swap2\n      swap1\n      dup2\n      dup2\n      mstore\n      0x20\n      add\n      dup3\n      dup1\n      sload\n      tag_41\n      swap1\n      tag_35\n      jump\t// in\n    tag_41:\n      dup1\n      iszero\n      tag_42\n      jumpi\n      dup1\n      0x1f\n      lt\n      tag_43\n      jumpi\n      0x0100\n      dup1\n      dup4\n      sload\n      div\n      mul\n      dup4\n      mstore\n      swap2\n      0x20\n      add\n      swap2\n      jump(tag_42)\n    tag_43:\n      dup3\n      add\n      swap2\n      swap1\n      0x00\n      mstore\n      keccak256(0x00, 0x20)\n      swap1\n    tag_44:\n      dup2\n      sload\n      dup2\n      mstore\n      swap1\n      0x01\n      add\n      swap1\n      0x20\n      add\n      dup1\n      dup4\n      gt\n      tag_44\n      jumpi\n      dup3\n      swap1\n      sub\n      0x1f\n      and\n      dup3\n      add\n      swap2\n    tag_42:\n      pop\n      pop\n      pop\n      pop\n      pop\n      dup2\n      mstore\n      0x20\n      add\n      0x03\n      dup3\n      add\n      dup1\n      sload\n      tag_45\n      swap1\n      tag_35\n      jump\t// in\n    tag_45:\n      dup1\n      0x1f\n      add\n      0x20\n      dup1\n      swap2\n      div\n      mul\n      0x20\n      add\n      mload(0x40)\n      swap1\n      dup2\n      add\n      0x40\n      mstore\n      dup1\n      swap3\n      swap2\n      swap1\n      dup2\n      dup2\n      mstore\n      0x20\n      add\n      dup3\n      dup1\n      sload\n      tag_46\n      swap1\n      tag_35\n      jump\t// in\n    tag_46:\n      dup1\n      iszero\n      tag_47\n      jumpi\n      dup1\n      0x1f\n      lt\n      tag_48\n      jumpi\n      0x0100\n      dup1\n      dup4\n      sload\n      div\n      mul\n      dup4\n      mstore\n      swap2\n      0x20\n      add\n      swap2\n      jump(tag_47)\n    tag_48:\n      dup3\n      add\n      swap2\n      swap1\n      0x00\n      mstore\n      keccak256(0x00, 0x20)\n      swap1\n    tag_49:\n      dup2\n      sload\n      dup2\n      mstore\n      swap1\n      0x01\n      add\n      swap1\n      0x20\n      add\n      dup1\n      dup4\n      gt\n      tag_49\n      jumpi\n      dup3\n      swap1\n      sub\n      0x1f\n      and\n      dup3\n      add\n      swap2\n    tag_47:\n      pop\n      pop\n      pop\n      pop\n      pop\n      dup2\n      mstore\n      0x20\n      add\n      0x04\n      dup3\n      add\n      sload\n      dup2\n      mstore\n      pop\n      pop\n      dup2\n      mstore\n      0x20\n      add\n      swap1\n      0x01\n      add\n      swap1\n      jump(tag_31)\n    tag_32:\n      pop\n      pop\n      pop\n      pop\n      swap1\n      pop\n        /* \"contracts/RegistroMedico.sol\":3043:3258  function getRegistroPaciente(uint256 pacienteID) ... */\n      swap2\n      swap1\n      pop\n      jump\t// out\n        /* \"contracts/RegistroMedico.sol\":1959:2938  function addRegistro(... */\n    tag_20:\n        /* \"contracts/RegistroMedico.sol\":1047:1059  proprietario */\n      0x00\n      dup1\n      sload\n      swap1\n      0x0100\n      exp\n      swap1\n      div\n      0xffffffffffffffffffffffffffffffffffffffff\n      and\n        /* \"contracts/RegistroMedico.sol\":1033:1059  msg.sender == proprietario */\n      0xffffffffffffffffffffffffffffffffffffffff\n      and\n        /* \"contracts/RegistroMedico.sol\":1033:1043  msg.sender */\n      caller\n        /* \"contracts/RegistroMedico.sol\":1033:1059  msg.sender == proprietario */\n      0xffffffffffffffffffffffffffffffffffffffff\n      and\n      eq\n        /* \"contracts/RegistroMedico.sol\":1025:1112  require(msg.sender == proprietario, \"Somente o proprietario pode utilizar essa funcao\") */\n      tag_51\n      jumpi\n      mload(0x40)\n      0x08c379a000000000000000000000000000000000000000000000000000000000\n      dup2\n      mstore\n      0x04\n      add\n      tag_52\n      swap1\n      tag_53\n      jump\t// in\n    tag_52:\n      mload(0x40)\n      dup1\n      swap2\n      sub\n      swap1\n      revert\n    tag_51:\n        /* \"contracts/RegistroMedico.sol\":2233:2251  contadorPacienteID */\n      0x01\n      0x00\n        /* \"contracts/RegistroMedico.sol\":2233:2253  contadorPacienteID++ */\n      dup2\n      sload\n      dup1\n      swap3\n      swap2\n      swap1\n      tag_55\n      swap1\n      tag_56\n      jump\t// in\n    tag_55:\n      swap2\n      swap1\n      pop\n      sstore\n      pop\n        /* \"contracts/RegistroMedico.sol\":2274:2292  uint256 pacienteID */\n      0x00\n        /* \"contracts/RegistroMedico.sol\":2295:2313  contadorPacienteID */\n      sload(0x01)\n        /* \"contracts/RegistroMedico.sol\":2274:2313  uint256 pacienteID = contadorPacienteID */\n      swap1\n      pop\n        /* \"contracts/RegistroMedico.sol\":2427:2445  uint256 registroID */\n      0x00\n        /* \"contracts/RegistroMedico.sol\":2486:2487  1 */\n      0x01\n        /* \"contracts/RegistroMedico.sol\":2448:2464  registroPaciente */\n      0x02\n        /* \"contracts/RegistroMedico.sol\":2448:2476  registroPaciente[pacienteID] */\n      0x00\n        /* \"contracts/RegistroMedico.sol\":2465:2475  pacienteID */\n      dup5\n        /* \"contracts/RegistroMedico.sol\":2448:2476  registroPaciente[pacienteID] */\n      dup2\n      mstore\n      0x20\n      add\n      swap1\n      dup2\n      mstore\n      0x20\n      add\n      0x00\n      keccak256\n        /* \"contracts/RegistroMedico.sol\":2448:2483  registroPaciente[pacienteID].length */\n      dup1\n      sload\n      swap1\n      pop\n        /* \"contracts/RegistroMedico.sol\":2448:2487  registroPaciente[pacienteID].length + 1 */\n      tag_57\n      swap2\n      swap1\n      tag_58\n      jump\t// in\n    tag_57:\n        /* \"contracts/RegistroMedico.sol\":2427:2487  uint256 registroID = registroPaciente[pacienteID].length + 1 */\n      swap1\n      pop\n        /* \"contracts/RegistroMedico.sol\":2574:2590  registroPaciente */\n      0x02\n        /* \"contracts/RegistroMedico.sol\":2574:2602  registroPaciente[pacienteID] */\n      0x00\n        /* \"contracts/RegistroMedico.sol\":2591:2601  pacienteID */\n      dup4\n        /* \"contracts/RegistroMedico.sol\":2574:2602  registroPaciente[pacienteID] */\n      dup2\n      mstore\n      0x20\n      add\n      swap1\n      dup2\n      mstore\n      0x20\n      add\n      0x00\n      keccak256\n        /* \"contracts/RegistroMedico.sol\":2622:2802  Registro(... */\n      mload(0x40)\n      dup1\n      0xa0\n      add\n      0x40\n      mstore\n      dup1\n        /* \"contracts/RegistroMedico.sol\":2649:2659  registroID */\n      dup4\n        /* \"contracts/RegistroMedico.sol\":2622:2802  Registro(... */\n      dup2\n      mstore\n      0x20\n      add\n        /* \"contracts/RegistroMedico.sol\":2679:2691  pacienteNome */\n      dup8\n        /* \"contracts/RegistroMedico.sol\":2622:2802  Registro(... */\n      dup2\n      mstore\n      0x20\n      add\n        /* \"contracts/RegistroMedico.sol\":2711:2722  diagnostico */\n      dup7\n        /* \"contracts/RegistroMedico.sol\":2622:2802  Registro(... */\n      dup2\n      mstore\n      0x20\n      add\n        /* \"contracts/RegistroMedico.sol\":2742:2752  tratamento */\n      dup6\n        /* \"contracts/RegistroMedico.sol\":2622:2802  Registro(... */\n      dup2\n      mstore\n      0x20\n      add\n        /* \"contracts/RegistroMedico.sol\":2772:2787  block.timestamp */\n      timestamp\n        /* \"contracts/RegistroMedico.sol\":2622:2802  Registro(... */\n      dup2\n      mstore\n      pop\n        /* \"contracts/RegistroMedico.sol\":2574:2813  registroPaciente[pacienteID].push(... */\n      swap1\n      dup1\n      0x01\n      dup2\n      sload\n      add\n      dup1\n      dup3\n      sstore\n      dup1\n      swap2\n      pop\n      pop\n      0x01\n      swap1\n      sub\n      swap1\n      0x00\n      mstore\n      keccak256(0x00, 0x20)\n      swap1\n      0x05\n      mul\n      add\n      0x00\n      swap1\n      swap2\n      swap1\n      swap2\n      swap1\n      swap2\n      pop\n      0x00\n      dup3\n      add\n      mload\n      dup2\n      0x00\n      add\n      sstore\n      0x20\n      dup3\n      add\n      mload\n      dup2\n      0x01\n      add\n      swap1\n      dup2\n      tag_60\n      swap2\n      swap1\n      tag_61\n      jump\t// in\n    tag_60:\n      pop\n      0x40\n      dup3\n      add\n      mload\n      dup2\n      0x02\n      add\n      swap1\n      dup2\n      tag_62\n      swap2\n      swap1\n      tag_61\n      jump\t// in\n    tag_62:\n      pop\n      0x60\n      dup3\n      add\n      mload\n      dup2\n      0x03\n      add\n      swap1\n      dup2\n      tag_63\n      swap2\n      swap1\n      tag_61\n      jump\t// in\n    tag_63:\n      pop\n      0x80\n      dup3\n      add\n      mload\n      dup2\n      0x04\n      add\n      sstore\n      pop\n      pop\n        /* \"contracts/RegistroMedico.sol\":2850:2860  pacienteID */\n      dup2\n        /* \"contracts/RegistroMedico.sol\":2831:2887  RegistroAdicionado(pacienteID, registroID, pacienteNome) */\n      0x6022b62948223003839d9bc962fc10198e233c9ed6154d8e949b2b751b1f96b2\n        /* \"contracts/RegistroMedico.sol\":2862:2872  registroID */\n      dup3\n        /* \"contracts/RegistroMedico.sol\":2874:2886  pacienteNome */\n      dup8\n        /* \"contracts/RegistroMedico.sol\":2831:2887  RegistroAdicionado(pacienteID, registroID, pacienteNome) */\n      mload(0x40)\n      tag_64\n      swap3\n      swap2\n      swap1\n      tag_65\n      jump\t// in\n    tag_64:\n      mload(0x40)\n      dup1\n      swap2\n      sub\n      swap1\n      log2\n        /* \"contracts/RegistroMedico.sol\":2150:2938  {... */\n      pop\n      pop\n        /* \"contracts/RegistroMedico.sol\":1959:2938  function addRegistro(... */\n      pop\n      pop\n      pop\n      jump\t// out\n        /* \"contracts/RegistroMedico.sol\":1728:1854  function autorizarProvedor(address provider) public somenteProprietario {... */\n    tag_24:\n        /* \"contracts/RegistroMedico.sol\":1047:1059  proprietario */\n      0x00\n      dup1\n      sload\n      swap1\n      0x0100\n      exp\n      swap1\n      div\n      0xffffffffffffffffffffffffffffffffffffffff\n      and\n        /* \"contracts/RegistroMedico.sol\":1033:1059  msg.sender == proprietario */\n      0xffffffffffffffffffffffffffffffffffffffff\n      and\n        /* \"contracts/RegistroMedico.sol\":1033:1043  msg.sender */\n      caller\n        /* \"contracts/RegistroMedico.sol\":1033:1059  msg.sender == proprietario */\n      0xffffffffffffffffffffffffffffffffffffffff\n      and\n      eq\n        /* \"contracts/RegistroMedico.sol\":1025:1112  require(msg.sender == proprietario, \"Somente o proprietario pode utilizar essa funcao\") */\n      tag_67\n      jumpi\n      mload(0x40)\n      0x08c379a000000000000000000000000000000000000000000000000000000000\n      dup2\n      mstore\n      0x04\n      add\n      tag_68\n      swap1\n      tag_53\n      jump\t// in\n    tag_68:\n      mload(0x40)\n      dup1\n      swap2\n      sub\n      swap1\n      revert\n    tag_67:\n        /* \"contracts/RegistroMedico.sol\":1842:1846  true */\n      0x01\n        /* \"contracts/RegistroMedico.sol\":1811:1829  provedorAutorizado */\n      0x03\n        /* \"contracts/RegistroMedico.sol\":1811:1839  provedorAutorizado[provider] */\n      0x00\n        /* \"contracts/RegistroMedico.sol\":1830:1838  provider */\n      dup4\n        /* \"contracts/RegistroMedico.sol\":1811:1839  provedorAutorizado[provider] */\n      0xffffffffffffffffffffffffffffffffffffffff\n      and\n      0xffffffffffffffffffffffffffffffffffffffff\n      and\n      dup2\n      mstore\n      0x20\n      add\n      swap1\n      dup2\n      mstore\n      0x20\n      add\n      0x00\n      keccak256\n      0x00\n        /* \"contracts/RegistroMedico.sol\":1811:1846  provedorAutorizado[provider] = true */\n      0x0100\n      exp\n      dup2\n      sload\n      dup2\n      0xff\n      mul\n      not\n      and\n      swap1\n      dup4\n      iszero\n      iszero\n      mul\n      or\n      swap1\n      sstore\n      pop\n        /* \"contracts/RegistroMedico.sol\":1728:1854  function autorizarProvedor(address provider) public somenteProprietario {... */\n      pop\n      jump\t// out\n        /* \"#utility.yul\":7:133   */\n    tag_70:\n        /* \"#utility.yul\":44:51   */\n      0x00\n        /* \"#utility.yul\":84:126   */\n      0xffffffffffffffffffffffffffffffffffffffff\n        /* \"#utility.yul\":77:82   */\n      dup3\n        /* \"#utility.yul\":73:127   */\n      and\n        /* \"#utility.yul\":62:127   */\n      swap1\n      pop\n        /* \"#utility.yul\":7:133   */\n      swap2\n      swap1\n      pop\n      jump\t// out\n        /* \"#utility.yul\":139:235   */\n    tag_71:\n        /* \"#utility.yul\":176:183   */\n      0x00\n        /* \"#utility.yul\":205:229   */\n      tag_130\n        /* \"#utility.yul\":223:228   */\n      dup3\n        /* \"#utility.yul\":205:229   */\n      tag_70\n      jump\t// in\n    tag_130:\n        /* \"#utility.yul\":194:229   */\n      swap1\n      pop\n        /* \"#utility.yul\":139:235   */\n      swap2\n      swap1\n      pop\n      jump\t// out\n        /* \"#utility.yul\":241:359   */\n    tag_72:\n        /* \"#utility.yul\":328:352   */\n      tag_132\n        /* \"#utility.yul\":346:351   */\n      dup2\n        /* \"#utility.yul\":328:352   */\n      tag_71\n      jump\t// in\n    tag_132:\n        /* \"#utility.yul\":323:326   */\n      dup3\n        /* \"#utility.yul\":316:353   */\n      mstore\n        /* \"#utility.yul\":241:359   */\n      pop\n      pop\n      jump\t// out\n        /* \"#utility.yul\":365:587   */\n    tag_10:\n        /* \"#utility.yul\":458:462   */\n      0x00\n        /* \"#utility.yul\":496:498   */\n      0x20\n        /* \"#utility.yul\":485:494   */\n      dup3\n        /* \"#utility.yul\":481:499   */\n      add\n        /* \"#utility.yul\":473:499   */\n      swap1\n      pop\n        /* \"#utility.yul\":509:580   */\n      tag_134\n        /* \"#utility.yul\":577:578   */\n      0x00\n        /* \"#utility.yul\":566:575   */\n      dup4\n        /* \"#utility.yul\":562:579   */\n      add\n        /* \"#utility.yul\":553:559   */\n      dup5\n        /* \"#utility.yul\":509:580   */\n      tag_72\n      jump\t// in\n    tag_134:\n        /* \"#utility.yul\":365:587   */\n      swap3\n      swap2\n      pop\n      pop\n      jump\t// out\n        /* \"#utility.yul\":593:668   */\n    tag_73:\n        /* \"#utility.yul\":626:632   */\n      0x00\n        /* \"#utility.yul\":659:661   */\n      0x40\n        /* \"#utility.yul\":653:662   */\n      mload\n        /* \"#utility.yul\":643:662   */\n      swap1\n      pop\n        /* \"#utility.yul\":593:668   */\n      swap1\n      jump\t// out\n        /* \"#utility.yul\":674:791   */\n    tag_74:\n        /* \"#utility.yul\":783:784   */\n      0x00\n        /* \"#utility.yul\":780:781   */\n      dup1\n        /* \"#utility.yul\":773:785   */\n      revert\n        /* \"#utility.yul\":797:914   */\n    tag_75:\n        /* \"#utility.yul\":906:907   */\n      0x00\n        /* \"#utility.yul\":903:904   */\n      dup1\n        /* \"#utility.yul\":896:908   */\n      revert\n        /* \"#utility.yul\":920:997   */\n    tag_76:\n        /* \"#utility.yul\":957:964   */\n      0x00\n        /* \"#utility.yul\":986:991   */\n      dup2\n        /* \"#utility.yul\":975:991   */\n      swap1\n      pop\n        /* \"#utility.yul\":920:997   */\n      swap2\n      swap1\n      pop\n      jump\t// out\n        /* \"#utility.yul\":1003:1125   */\n    tag_77:\n        /* \"#utility.yul\":1076:1100   */\n      tag_140\n        /* \"#utility.yul\":1094:1099   */\n      dup2\n        /* \"#utility.yul\":1076:1100   */\n      tag_76\n      jump\t// in\n    tag_140:\n        /* \"#utility.yul\":1069:1074   */\n      dup2\n        /* \"#utility.yul\":1066:1101   */\n      eq\n        /* \"#utility.yul\":1056:1119   */\n      tag_141\n      jumpi\n        /* \"#utility.yul\":1115:1116   */\n      0x00\n        /* \"#utility.yul\":1112:1113   */\n      dup1\n        /* \"#utility.yul\":1105:1117   */\n      revert\n        /* \"#utility.yul\":1056:1119   */\n    tag_141:\n        /* \"#utility.yul\":1003:1125   */\n      pop\n      jump\t// out\n        /* \"#utility.yul\":1131:1270   */\n    tag_78:\n        /* \"#utility.yul\":1177:1182   */\n      0x00\n        /* \"#utility.yul\":1215:1221   */\n      dup2\n        /* \"#utility.yul\":1202:1222   */\n      calldataload\n        /* \"#utility.yul\":1193:1222   */\n      swap1\n      pop\n        /* \"#utility.yul\":1231:1264   */\n      tag_143\n        /* \"#utility.yul\":1258:1263   */\n      dup2\n        /* \"#utility.yul\":1231:1264   */\n      tag_77\n      jump\t// in\n    tag_143:\n        /* \"#utility.yul\":1131:1270   */\n      swap3\n      swap2\n      pop\n      pop\n      jump\t// out\n        /* \"#utility.yul\":1276:1605   */\n    tag_13:\n        /* \"#utility.yul\":1335:1341   */\n      0x00\n        /* \"#utility.yul\":1384:1386   */\n      0x20\n        /* \"#utility.yul\":1372:1381   */\n      dup3\n        /* \"#utility.yul\":1363:1370   */\n      dup5\n        /* \"#utility.yul\":1359:1382   */\n      sub\n        /* \"#utility.yul\":1355:1387   */\n      slt\n        /* \"#utility.yul\":1352:1471   */\n      iszero\n      tag_145\n      jumpi\n        /* \"#utility.yul\":1390:1469   */\n      tag_146\n      tag_74\n      jump\t// in\n    tag_146:\n        /* \"#utility.yul\":1352:1471   */\n    tag_145:\n        /* \"#utility.yul\":1510:1511   */\n      0x00\n        /* \"#utility.yul\":1535:1588   */\n      tag_147\n        /* \"#utility.yul\":1580:1587   */\n      dup5\n        /* \"#utility.yul\":1571:1577   */\n      dup3\n        /* \"#utility.yul\":1560:1569   */\n      dup6\n        /* \"#utility.yul\":1556:1578   */\n      add\n        /* \"#utility.yul\":1535:1588   */\n      tag_78\n      jump\t// in\n    tag_147:\n        /* \"#utility.yul\":1525:1588   */\n      swap2\n      pop\n        /* \"#utility.yul\":1481:1598   */\n      pop\n        /* \"#utility.yul\":1276:1605   */\n      swap3\n      swap2\n      pop\n      pop\n      jump\t// out\n        /* \"#utility.yul\":1611:1749   */\n    tag_79:\n        /* \"#utility.yul\":1702:1708   */\n      0x00\n        /* \"#utility.yul\":1736:1741   */\n      dup2\n        /* \"#utility.yul\":1730:1742   */\n      mload\n        /* \"#utility.yul\":1720:1742   */\n      swap1\n      pop\n        /* \"#utility.yul\":1611:1749   */\n      swap2\n      swap1\n      pop\n      jump\t// out\n        /* \"#utility.yul\":1755:1963   */\n    tag_80:\n        /* \"#utility.yul\":1878:1889   */\n      0x00\n        /* \"#utility.yul\":1912:1918   */\n      dup3\n        /* \"#utility.yul\":1907:1910   */\n      dup3\n        /* \"#utility.yul\":1900:1919   */\n      mstore\n        /* \"#utility.yul\":1952:1956   */\n      0x20\n        /* \"#utility.yul\":1947:1950   */\n      dup3\n        /* \"#utility.yul\":1943:1957   */\n      add\n        /* \"#utility.yul\":1928:1957   */\n      swap1\n      pop\n        /* \"#utility.yul\":1755:1963   */\n      swap3\n      swap2\n      pop\n      pop\n      jump\t// out\n        /* \"#utility.yul\":1969:2125   */\n    tag_81:\n        /* \"#utility.yul\":2060:2064   */\n      0x00\n        /* \"#utility.yul\":2083:2086   */\n      dup2\n        /* \"#utility.yul\":2075:2086   */\n      swap1\n      pop\n        /* \"#utility.yul\":2113:2117   */\n      0x20\n        /* \"#utility.yul\":2108:2111   */\n      dup3\n        /* \"#utility.yul\":2104:2118   */\n      add\n        /* \"#utility.yul\":2096:2118   */\n      swap1\n      pop\n        /* \"#utility.yul\":1969:2125   */\n      swap2\n      swap1\n      pop\n      jump\t// out\n        /* \"#utility.yul\":2131:2239   */\n    tag_82:\n        /* \"#utility.yul\":2208:2232   */\n      tag_152\n        /* \"#utility.yul\":2226:2231   */\n      dup2\n        /* \"#utility.yul\":2208:2232   */\n      tag_76\n      jump\t// in\n    tag_152:\n        /* \"#utility.yul\":2203:2206   */\n      dup3\n        /* \"#utility.yul\":2196:2233   */\n      mstore\n        /* \"#utility.yul\":2131:2239   */\n      pop\n      pop\n      jump\t// out\n        /* \"#utility.yul\":2245:2344   */\n    tag_83:\n        /* \"#utility.yul\":2297:2303   */\n      0x00\n        /* \"#utility.yul\":2331:2336   */\n      dup2\n        /* \"#utility.yul\":2325:2337   */\n      mload\n        /* \"#utility.yul\":2315:2337   */\n      swap1\n      pop\n        /* \"#utility.yul\":2245:2344   */\n      swap2\n      swap1\n      pop\n      jump\t// out\n        /* \"#utility.yul\":2350:2509   */\n    tag_84:\n        /* \"#utility.yul\":2424:2435   */\n      0x00\n        /* \"#utility.yul\":2458:2464   */\n      dup3\n        /* \"#utility.yul\":2453:2456   */\n      dup3\n        /* \"#utility.yul\":2446:2465   */\n      mstore\n        /* \"#utility.yul\":2498:2502   */\n      0x20\n        /* \"#utility.yul\":2493:2496   */\n      dup3\n        /* \"#utility.yul\":2489:2503   */\n      add\n        /* \"#utility.yul\":2474:2503   */\n      swap1\n      pop\n        /* \"#utility.yul\":2350:2509   */\n      swap3\n      swap2\n      pop\n      pop\n      jump\t// out\n        /* \"#utility.yul\":2515:2654   */\n    tag_85:\n        /* \"#utility.yul\":2604:2610   */\n      dup3\n        /* \"#utility.yul\":2599:2602   */\n      dup2\n        /* \"#utility.yul\":2594:2597   */\n      dup4\n        /* \"#utility.yul\":2588:2611   */\n      mcopy\n        /* \"#utility.yul\":2645:2646   */\n      0x00\n        /* \"#utility.yul\":2636:2642   */\n      dup4\n        /* \"#utility.yul\":2631:2634   */\n      dup4\n        /* \"#utility.yul\":2627:2643   */\n      add\n        /* \"#utility.yul\":2620:2647   */\n      mstore\n        /* \"#utility.yul\":2515:2654   */\n      pop\n      pop\n      pop\n      jump\t// out\n        /* \"#utility.yul\":2660:2762   */\n    tag_86:\n        /* \"#utility.yul\":2701:2707   */\n      0x00\n        /* \"#utility.yul\":2752:2754   */\n      0x1f\n        /* \"#utility.yul\":2748:2755   */\n      not\n        /* \"#utility.yul\":2743:2745   */\n      0x1f\n        /* \"#utility.yul\":2736:2741   */\n      dup4\n        /* \"#utility.yul\":2732:2746   */\n      add\n        /* \"#utility.yul\":2728:2756   */\n      and\n        /* \"#utility.yul\":2718:2756   */\n      swap1\n      pop\n        /* \"#utility.yul\":2660:2762   */\n      swap2\n      swap1\n      pop\n      jump\t// out\n        /* \"#utility.yul\":2768:3125   */\n    tag_87:\n        /* \"#utility.yul\":2846:2849   */\n      0x00\n        /* \"#utility.yul\":2874:2913   */\n      tag_158\n        /* \"#utility.yul\":2907:2912   */\n      dup3\n        /* \"#utility.yul\":2874:2913   */\n      tag_83\n      jump\t// in\n    tag_158:\n        /* \"#utility.yul\":2929:2990   */\n      tag_159\n        /* \"#utility.yul\":2983:2989   */\n      dup2\n        /* \"#utility.yul\":2978:2981   */\n      dup6\n        /* \"#utility.yul\":2929:2990   */\n      tag_84\n      jump\t// in\n    tag_159:\n        /* \"#utility.yul\":2922:2990   */\n      swap4\n      pop\n        /* \"#utility.yul\":2999:3064   */\n      tag_160\n        /* \"#utility.yul\":3057:3063   */\n      dup2\n        /* \"#utility.yul\":3052:3055   */\n      dup6\n        /* \"#utility.yul\":3045:3049   */\n      0x20\n        /* \"#utility.yul\":3038:3043   */\n      dup7\n        /* \"#utility.yul\":3034:3050   */\n      add\n        /* \"#utility.yul\":2999:3064   */\n      tag_85\n      jump\t// in\n    tag_160:\n        /* \"#utility.yul\":3089:3118   */\n      tag_161\n        /* \"#utility.yul\":3111:3117   */\n      dup2\n        /* \"#utility.yul\":3089:3118   */\n      tag_86\n      jump\t// in\n    tag_161:\n        /* \"#utility.yul\":3084:3087   */\n      dup5\n        /* \"#utility.yul\":3080:3119   */\n      add\n        /* \"#utility.yul\":3073:3119   */\n      swap2\n      pop\n        /* \"#utility.yul\":2850:3125   */\n      pop\n        /* \"#utility.yul\":2768:3125   */\n      swap3\n      swap2\n      pop\n      pop\n      jump\t// out\n        /* \"#utility.yul\":3211:4501   */\n    tag_88:\n        /* \"#utility.yul\":3318:3321   */\n      0x00\n        /* \"#utility.yul\":3354:3358   */\n      0xa0\n        /* \"#utility.yul\":3349:3352   */\n      dup4\n        /* \"#utility.yul\":3345:3359   */\n      add\n        /* \"#utility.yul\":3447:3451   */\n      0x00\n        /* \"#utility.yul\":3440:3445   */\n      dup4\n        /* \"#utility.yul\":3436:3452   */\n      add\n        /* \"#utility.yul\":3430:3453   */\n      mload\n        /* \"#utility.yul\":3466:3529   */\n      tag_163\n        /* \"#utility.yul\":3523:3527   */\n      0x00\n        /* \"#utility.yul\":3518:3521   */\n      dup7\n        /* \"#utility.yul\":3514:3528   */\n      add\n        /* \"#utility.yul\":3500:3512   */\n      dup3\n        /* \"#utility.yul\":3466:3529   */\n      tag_82\n      jump\t// in\n    tag_163:\n        /* \"#utility.yul\":3369:3539   */\n      pop\n        /* \"#utility.yul\":3629:3633   */\n      0x20\n        /* \"#utility.yul\":3622:3627   */\n      dup4\n        /* \"#utility.yul\":3618:3634   */\n      add\n        /* \"#utility.yul\":3612:3635   */\n      mload\n        /* \"#utility.yul\":3682:3685   */\n      dup5\n        /* \"#utility.yul\":3676:3680   */\n      dup3\n        /* \"#utility.yul\":3672:3686   */\n      sub\n        /* \"#utility.yul\":3665:3669   */\n      0x20\n        /* \"#utility.yul\":3660:3663   */\n      dup7\n        /* \"#utility.yul\":3656:3670   */\n      add\n        /* \"#utility.yul\":3649:3687   */\n      mstore\n        /* \"#utility.yul\":3708:3781   */\n      tag_164\n        /* \"#utility.yul\":3776:3780   */\n      dup3\n        /* \"#utility.yul\":3762:3774   */\n      dup3\n        /* \"#utility.yul\":3708:3781   */\n      tag_87\n      jump\t// in\n    tag_164:\n        /* \"#utility.yul\":3700:3781   */\n      swap2\n      pop\n        /* \"#utility.yul\":3549:3792   */\n      pop\n        /* \"#utility.yul\":3881:3885   */\n      0x40\n        /* \"#utility.yul\":3874:3879   */\n      dup4\n        /* \"#utility.yul\":3870:3886   */\n      add\n        /* \"#utility.yul\":3864:3887   */\n      mload\n        /* \"#utility.yul\":3934:3937   */\n      dup5\n        /* \"#utility.yul\":3928:3932   */\n      dup3\n        /* \"#utility.yul\":3924:3938   */\n      sub\n        /* \"#utility.yul\":3917:3921   */\n      0x40\n        /* \"#utility.yul\":3912:3915   */\n      dup7\n        /* \"#utility.yul\":3908:3922   */\n      add\n        /* \"#utility.yul\":3901:3939   */\n      mstore\n        /* \"#utility.yul\":3960:4033   */\n      tag_165\n        /* \"#utility.yul\":4028:4032   */\n      dup3\n        /* \"#utility.yul\":4014:4026   */\n      dup3\n        /* \"#utility.yul\":3960:4033   */\n      tag_87\n      jump\t// in\n    tag_165:\n        /* \"#utility.yul\":3952:4033   */\n      swap2\n      pop\n        /* \"#utility.yul\":3802:4044   */\n      pop\n        /* \"#utility.yul\":4132:4136   */\n      0x60\n        /* \"#utility.yul\":4125:4130   */\n      dup4\n        /* \"#utility.yul\":4121:4137   */\n      add\n        /* \"#utility.yul\":4115:4138   */\n      mload\n        /* \"#utility.yul\":4185:4188   */\n      dup5\n        /* \"#utility.yul\":4179:4183   */\n      dup3\n        /* \"#utility.yul\":4175:4189   */\n      sub\n        /* \"#utility.yul\":4168:4172   */\n      0x60\n        /* \"#utility.yul\":4163:4166   */\n      dup7\n        /* \"#utility.yul\":4159:4173   */\n      add\n        /* \"#utility.yul\":4152:4190   */\n      mstore\n        /* \"#utility.yul\":4211:4284   */\n      tag_166\n        /* \"#utility.yul\":4279:4283   */\n      dup3\n        /* \"#utility.yul\":4265:4277   */\n      dup3\n        /* \"#utility.yul\":4211:4284   */\n      tag_87\n      jump\t// in\n    tag_166:\n        /* \"#utility.yul\":4203:4284   */\n      swap2\n      pop\n        /* \"#utility.yul\":4054:4295   */\n      pop\n        /* \"#utility.yul\":4382:4386   */\n      0x80\n        /* \"#utility.yul\":4375:4380   */\n      dup4\n        /* \"#utility.yul\":4371:4387   */\n      add\n        /* \"#utility.yul\":4365:4388   */\n      mload\n        /* \"#utility.yul\":4401:4464   */\n      tag_167\n        /* \"#utility.yul\":4458:4462   */\n      0x80\n        /* \"#utility.yul\":4453:4456   */\n      dup7\n        /* \"#utility.yul\":4449:4463   */\n      add\n        /* \"#utility.yul\":4435:4447   */\n      dup3\n        /* \"#utility.yul\":4401:4464   */\n      tag_82\n      jump\t// in\n    tag_167:\n        /* \"#utility.yul\":4305:4474   */\n      pop\n        /* \"#utility.yul\":4491:4495   */\n      dup1\n        /* \"#utility.yul\":4484:4495   */\n      swap2\n      pop\n        /* \"#utility.yul\":3323:4501   */\n      pop\n        /* \"#utility.yul\":3211:4501   */\n      swap3\n      swap2\n      pop\n      pop\n      jump\t// out\n        /* \"#utility.yul\":4507:4759   */\n    tag_89:\n        /* \"#utility.yul\":4624:4634   */\n      0x00\n        /* \"#utility.yul\":4659:4753   */\n      tag_169\n        /* \"#utility.yul\":4749:4752   */\n      dup4\n        /* \"#utility.yul\":4741:4747   */\n      dup4\n        /* \"#utility.yul\":4659:4753   */\n      tag_88\n      jump\t// in\n    tag_169:\n        /* \"#utility.yul\":4645:4753   */\n      swap1\n      pop\n        /* \"#utility.yul\":4507:4759   */\n      swap3\n      swap2\n      pop\n      pop\n      jump\t// out\n        /* \"#utility.yul\":4765:4902   */\n    tag_90:\n        /* \"#utility.yul\":4859:4863   */\n      0x00\n        /* \"#utility.yul\":4891:4895   */\n      0x20\n        /* \"#utility.yul\":4886:4889   */\n      dup3\n        /* \"#utility.yul\":4882:4896   */\n      add\n        /* \"#utility.yul\":4874:4896   */\n      swap1\n      pop\n        /* \"#utility.yul\":4765:4902   */\n      swap2\n      swap1\n      pop\n      jump\t// out\n        /* \"#utility.yul\":4992:6095   */\n    tag_91:\n        /* \"#utility.yul\":5159:5162   */\n      0x00\n        /* \"#utility.yul\":5188:5266   */\n      tag_172\n        /* \"#utility.yul\":5260:5265   */\n      dup3\n        /* \"#utility.yul\":5188:5266   */\n      tag_79\n      jump\t// in\n    tag_172:\n        /* \"#utility.yul\":5282:5392   */\n      tag_173\n        /* \"#utility.yul\":5385:5391   */\n      dup2\n        /* \"#utility.yul\":5380:5383   */\n      dup6\n        /* \"#utility.yul\":5282:5392   */\n      tag_80\n      jump\t// in\n    tag_173:\n        /* \"#utility.yul\":5275:5392   */\n      swap4\n      pop\n        /* \"#utility.yul\":5418:5421   */\n      dup4\n        /* \"#utility.yul\":5463:5467   */\n      0x20\n        /* \"#utility.yul\":5455:5461   */\n      dup3\n        /* \"#utility.yul\":5451:5468   */\n      mul\n        /* \"#utility.yul\":5446:5449   */\n      dup6\n        /* \"#utility.yul\":5442:5469   */\n      add\n        /* \"#utility.yul\":5493:5573   */\n      tag_174\n        /* \"#utility.yul\":5567:5572   */\n      dup6\n        /* \"#utility.yul\":5493:5573   */\n      tag_81\n      jump\t// in\n    tag_174:\n        /* \"#utility.yul\":5596:5603   */\n      dup1\n        /* \"#utility.yul\":5627:5628   */\n      0x00\n        /* \"#utility.yul\":5612:6050   */\n    tag_175:\n        /* \"#utility.yul\":5637:5643   */\n      dup6\n        /* \"#utility.yul\":5634:5635   */\n      dup2\n        /* \"#utility.yul\":5631:5644   */\n      lt\n        /* \"#utility.yul\":5612:6050   */\n      iszero\n      tag_177\n      jumpi\n        /* \"#utility.yul\":5708:5717   */\n      dup5\n        /* \"#utility.yul\":5702:5706   */\n      dup5\n        /* \"#utility.yul\":5698:5718   */\n      sub\n        /* \"#utility.yul\":5693:5696   */\n      dup10\n        /* \"#utility.yul\":5686:5719   */\n      mstore\n        /* \"#utility.yul\":5759:5765   */\n      dup2\n        /* \"#utility.yul\":5753:5766   */\n      mload\n        /* \"#utility.yul\":5787:5899   */\n      tag_178\n        /* \"#utility.yul\":5894:5898   */\n      dup6\n        /* \"#utility.yul\":5879:5892   */\n      dup3\n        /* \"#utility.yul\":5787:5899   */\n      tag_89\n      jump\t// in\n    tag_178:\n        /* \"#utility.yul\":5779:5899   */\n      swap5\n      pop\n        /* \"#utility.yul\":5922:6006   */\n      tag_179\n        /* \"#utility.yul\":5999:6005   */\n      dup4\n        /* \"#utility.yul\":5922:6006   */\n      tag_90\n      jump\t// in\n    tag_179:\n        /* \"#utility.yul\":5912:6006   */\n      swap3\n      pop\n        /* \"#utility.yul\":6035:6039   */\n      0x20\n        /* \"#utility.yul\":6030:6033   */\n      dup11\n        /* \"#utility.yul\":6026:6040   */\n      add\n        /* \"#utility.yul\":6019:6040   */\n      swap10\n      pop\n        /* \"#utility.yul\":5672:6050   */\n      pop\n        /* \"#utility.yul\":5659:5660   */\n      0x01\n        /* \"#utility.yul\":5656:5657   */\n      dup2\n        /* \"#utility.yul\":5652:5661   */\n      add\n        /* \"#utility.yul\":5647:5661   */\n      swap1\n      pop\n        /* \"#utility.yul\":5612:6050   */\n      jump(tag_175)\n    tag_177:\n        /* \"#utility.yul\":5616:5630   */\n      pop\n        /* \"#utility.yul\":6066:6070   */\n      dup3\n        /* \"#utility.yul\":6059:6070   */\n      swap8\n      pop\n        /* \"#utility.yul\":6086:6089   */\n      dup8\n        /* \"#utility.yul\":6079:6089   */\n      swap6\n      pop\n        /* \"#utility.yul\":5164:6095   */\n      pop\n      pop\n      pop\n      pop\n      pop\n        /* \"#utility.yul\":4992:6095   */\n      swap3\n      swap2\n      pop\n      pop\n      jump\t// out\n        /* \"#utility.yul\":6101:6570   */\n    tag_16:\n        /* \"#utility.yul\":6292:6296   */\n      0x00\n        /* \"#utility.yul\":6330:6332   */\n      0x20\n        /* \"#utility.yul\":6319:6328   */\n      dup3\n        /* \"#utility.yul\":6315:6333   */\n      add\n        /* \"#utility.yul\":6307:6333   */\n      swap1\n      pop\n        /* \"#utility.yul\":6379:6388   */\n      dup2\n        /* \"#utility.yul\":6373:6377   */\n      dup2\n        /* \"#utility.yul\":6369:6389   */\n      sub\n        /* \"#utility.yul\":6365:6366   */\n      0x00\n        /* \"#utility.yul\":6354:6363   */\n      dup4\n        /* \"#utility.yul\":6350:6367   */\n      add\n        /* \"#utility.yul\":6343:6390   */\n      mstore\n        /* \"#utility.yul\":6407:6563   */\n      tag_181\n        /* \"#utility.yul\":6558:6562   */\n      dup2\n        /* \"#utility.yul\":6549:6555   */\n      dup5\n        /* \"#utility.yul\":6407:6563   */\n      tag_91\n      jump\t// in\n    tag_181:\n        /* \"#utility.yul\":6399:6563   */\n      swap1\n      pop\n        /* \"#utility.yul\":6101:6570   */\n      swap3\n      swap2\n      pop\n      pop\n      jump\t// out\n        /* \"#utility.yul\":6576:6693   */\n    tag_92:\n        /* \"#utility.yul\":6685:6686   */\n      0x00\n        /* \"#utility.yul\":6682:6683   */\n      dup1\n        /* \"#utility.yul\":6675:6687   */\n      revert\n        /* \"#utility.yul\":6699:6816   */\n    tag_93:\n        /* \"#utility.yul\":6808:6809   */\n      0x00\n        /* \"#utility.yul\":6805:6806   */\n      dup1\n        /* \"#utility.yul\":6798:6810   */\n      revert\n        /* \"#utility.yul\":6822:7002   */\n    tag_94:\n        /* \"#utility.yul\":6870:6947   */\n      0x4e487b7100000000000000000000000000000000000000000000000000000000\n        /* \"#utility.yul\":6867:6868   */\n      0x00\n        /* \"#utility.yul\":6860:6948   */\n      mstore\n        /* \"#utility.yul\":6967:6971   */\n      0x41\n        /* \"#utility.yul\":6964:6965   */\n      0x04\n        /* \"#utility.yul\":6957:6972   */\n      mstore\n        /* \"#utility.yul\":6991:6995   */\n      0x24\n        /* \"#utility.yul\":6988:6989   */\n      0x00\n        /* \"#utility.yul\":6981:6996   */\n      revert\n        /* \"#utility.yul\":7008:7289   */\n    tag_95:\n        /* \"#utility.yul\":7091:7118   */\n      tag_186\n        /* \"#utility.yul\":7113:7117   */\n      dup3\n        /* \"#utility.yul\":7091:7118   */\n      tag_86\n      jump\t// in\n    tag_186:\n        /* \"#utility.yul\":7083:7089   */\n      dup2\n        /* \"#utility.yul\":7079:7119   */\n      add\n        /* \"#utility.yul\":7221:7227   */\n      dup2\n        /* \"#utility.yul\":7209:7219   */\n      dup2\n        /* \"#utility.yul\":7206:7228   */\n      lt\n        /* \"#utility.yul\":7185:7203   */\n      0xffffffffffffffff\n        /* \"#utility.yul\":7173:7183   */\n      dup3\n        /* \"#utility.yul\":7170:7204   */\n      gt\n        /* \"#utility.yul\":7167:7229   */\n      or\n        /* \"#utility.yul\":7164:7252   */\n      iszero\n      tag_187\n      jumpi\n        /* \"#utility.yul\":7232:7250   */\n      tag_188\n      tag_94\n      jump\t// in\n    tag_188:\n        /* \"#utility.yul\":7164:7252   */\n    tag_187:\n        /* \"#utility.yul\":7272:7282   */\n      dup1\n        /* \"#utility.yul\":7268:7270   */\n      0x40\n        /* \"#utility.yul\":7261:7283   */\n      mstore\n        /* \"#utility.yul\":7051:7289   */\n      pop\n        /* \"#utility.yul\":7008:7289   */\n      pop\n      pop\n      jump\t// out\n        /* \"#utility.yul\":7295:7424   */\n    tag_96:\n        /* \"#utility.yul\":7329:7335   */\n      0x00\n        /* \"#utility.yul\":7356:7376   */\n      tag_190\n      tag_73\n      jump\t// in\n    tag_190:\n        /* \"#utility.yul\":7346:7376   */\n      swap1\n      pop\n        /* \"#utility.yul\":7385:7418   */\n      tag_191\n        /* \"#utility.yul\":7413:7417   */\n      dup3\n        /* \"#utility.yul\":7405:7411   */\n      dup3\n        /* \"#utility.yul\":7385:7418   */\n      tag_95\n      jump\t// in\n    tag_191:\n        /* \"#utility.yul\":7295:7424   */\n      swap2\n      swap1\n      pop\n      jump\t// out\n        /* \"#utility.yul\":7430:7738   */\n    tag_97:\n        /* \"#utility.yul\":7492:7496   */\n      0x00\n        /* \"#utility.yul\":7582:7600   */\n      0xffffffffffffffff\n        /* \"#utility.yul\":7574:7580   */\n      dup3\n        /* \"#utility.yul\":7571:7601   */\n      gt\n        /* \"#utility.yul\":7568:7624   */\n      iszero\n      tag_193\n      jumpi\n        /* \"#utility.yul\":7604:7622   */\n      tag_194\n      tag_94\n      jump\t// in\n    tag_194:\n        /* \"#utility.yul\":7568:7624   */\n    tag_193:\n        /* \"#utility.yul\":7642:7671   */\n      tag_195\n        /* \"#utility.yul\":7664:7670   */\n      dup3\n        /* \"#utility.yul\":7642:7671   */\n      tag_86\n      jump\t// in\n    tag_195:\n        /* \"#utility.yul\":7634:7671   */\n      swap1\n      pop\n        /* \"#utility.yul\":7726:7730   */\n      0x20\n        /* \"#utility.yul\":7720:7724   */\n      dup2\n        /* \"#utility.yul\":7716:7731   */\n      add\n        /* \"#utility.yul\":7708:7731   */\n      swap1\n      pop\n        /* \"#utility.yul\":7430:7738   */\n      swap2\n      swap1\n      pop\n      jump\t// out\n        /* \"#utility.yul\":7744:7892   */\n    tag_98:\n        /* \"#utility.yul\":7842:7848   */\n      dup3\n        /* \"#utility.yul\":7837:7840   */\n      dup2\n        /* \"#utility.yul\":7832:7835   */\n      dup4\n        /* \"#utility.yul\":7819:7849   */\n      calldatacopy\n        /* \"#utility.yul\":7883:7884   */\n      0x00\n        /* \"#utility.yul\":7874:7880   */\n      dup4\n        /* \"#utility.yul\":7869:7872   */\n      dup4\n        /* \"#utility.yul\":7865:7881   */\n      add\n        /* \"#utility.yul\":7858:7885   */\n      mstore\n        /* \"#utility.yul\":7744:7892   */\n      pop\n      pop\n      pop\n      jump\t// out\n        /* \"#utility.yul\":7898:8323   */\n    tag_99:\n        /* \"#utility.yul\":7976:7981   */\n      0x00\n        /* \"#utility.yul\":8001:8067   */\n      tag_198\n        /* \"#utility.yul\":8017:8066   */\n      tag_199\n        /* \"#utility.yul\":8059:8065   */\n      dup5\n        /* \"#utility.yul\":8017:8066   */\n      tag_97\n      jump\t// in\n    tag_199:\n        /* \"#utility.yul\":8001:8067   */\n      tag_96\n      jump\t// in\n    tag_198:\n        /* \"#utility.yul\":7992:8067   */\n      swap1\n      pop\n        /* \"#utility.yul\":8090:8096   */\n      dup3\n        /* \"#utility.yul\":8083:8088   */\n      dup2\n        /* \"#utility.yul\":8076:8097   */\n      mstore\n        /* \"#utility.yul\":8128:8132   */\n      0x20\n        /* \"#utility.yul\":8121:8126   */\n      dup2\n        /* \"#utility.yul\":8117:8133   */\n      add\n        /* \"#utility.yul\":8166:8169   */\n      dup5\n        /* \"#utility.yul\":8157:8163   */\n      dup5\n        /* \"#utility.yul\":8152:8155   */\n      dup5\n        /* \"#utility.yul\":8148:8164   */\n      add\n        /* \"#utility.yul\":8145:8170   */\n      gt\n        /* \"#utility.yul\":8142:8254   */\n      iszero\n      tag_200\n      jumpi\n        /* \"#utility.yul\":8173:8252   */\n      tag_201\n      tag_93\n      jump\t// in\n    tag_201:\n        /* \"#utility.yul\":8142:8254   */\n    tag_200:\n        /* \"#utility.yul\":8263:8317   */\n      tag_202\n        /* \"#utility.yul\":8310:8316   */\n      dup5\n        /* \"#utility.yul\":8305:8308   */\n      dup3\n        /* \"#utility.yul\":8300:8303   */\n      dup6\n        /* \"#utility.yul\":8263:8317   */\n      tag_98\n      jump\t// in\n    tag_202:\n        /* \"#utility.yul\":7982:8323   */\n      pop\n        /* \"#utility.yul\":7898:8323   */\n      swap4\n      swap3\n      pop\n      pop\n      pop\n      jump\t// out\n        /* \"#utility.yul\":8343:8683   */\n    tag_100:\n        /* \"#utility.yul\":8399:8404   */\n      0x00\n        /* \"#utility.yul\":8448:8451   */\n      dup3\n        /* \"#utility.yul\":8441:8445   */\n      0x1f\n        /* \"#utility.yul\":8433:8439   */\n      dup4\n        /* \"#utility.yul\":8429:8446   */\n      add\n        /* \"#utility.yul\":8425:8452   */\n      slt\n        /* \"#utility.yul\":8415:8537   */\n      tag_204\n      jumpi\n        /* \"#utility.yul\":8456:8535   */\n      tag_205\n      tag_92\n      jump\t// in\n    tag_205:\n        /* \"#utility.yul\":8415:8537   */\n    tag_204:\n        /* \"#utility.yul\":8573:8579   */\n      dup2\n        /* \"#utility.yul\":8560:8580   */\n      calldataload\n        /* \"#utility.yul\":8598:8677   */\n      tag_206\n        /* \"#utility.yul\":8673:8676   */\n      dup5\n        /* \"#utility.yul\":8665:8671   */\n      dup3\n        /* \"#utility.yul\":8658:8662   */\n      0x20\n        /* \"#utility.yul\":8650:8656   */\n      dup7\n        /* \"#utility.yul\":8646:8663   */\n      add\n        /* \"#utility.yul\":8598:8677   */\n      tag_99\n      jump\t// in\n    tag_206:\n        /* \"#utility.yul\":8589:8677   */\n      swap2\n      pop\n        /* \"#utility.yul\":8405:8683   */\n      pop\n        /* \"#utility.yul\":8343:8683   */\n      swap3\n      swap2\n      pop\n      pop\n      jump\t// out\n        /* \"#utility.yul\":8689:9848   */\n    tag_19:\n        /* \"#utility.yul\":8796:8802   */\n      0x00\n        /* \"#utility.yul\":8804:8810   */\n      dup1\n        /* \"#utility.yul\":8812:8818   */\n      0x00\n        /* \"#utility.yul\":8861:8863   */\n      0x60\n        /* \"#utility.yul\":8849:8858   */\n      dup5\n        /* \"#utility.yul\":8840:8847   */\n      dup7\n        /* \"#utility.yul\":8836:8859   */\n      sub\n        /* \"#utility.yul\":8832:8864   */\n      slt\n        /* \"#utility.yul\":8829:8948   */\n      iszero\n      tag_208\n      jumpi\n        /* \"#utility.yul\":8867:8946   */\n      tag_209\n      tag_74\n      jump\t// in\n    tag_209:\n        /* \"#utility.yul\":8829:8948   */\n    tag_208:\n        /* \"#utility.yul\":9015:9016   */\n      0x00\n        /* \"#utility.yul\":9004:9013   */\n      dup5\n        /* \"#utility.yul\":9000:9017   */\n      add\n        /* \"#utility.yul\":8987:9018   */\n      calldataload\n        /* \"#utility.yul\":9045:9063   */\n      0xffffffffffffffff\n        /* \"#utility.yul\":9037:9043   */\n      dup2\n        /* \"#utility.yul\":9034:9064   */\n      gt\n        /* \"#utility.yul\":9031:9148   */\n      iszero\n      tag_210\n      jumpi\n        /* \"#utility.yul\":9067:9146   */\n      tag_211\n      tag_75\n      jump\t// in\n    tag_211:\n        /* \"#utility.yul\":9031:9148   */\n    tag_210:\n        /* \"#utility.yul\":9172:9235   */\n      tag_212\n        /* \"#utility.yul\":9227:9234   */\n      dup7\n        /* \"#utility.yul\":9218:9224   */\n      dup3\n        /* \"#utility.yul\":9207:9216   */\n      dup8\n        /* \"#utility.yul\":9203:9225   */\n      add\n        /* \"#utility.yul\":9172:9235   */\n      tag_100\n      jump\t// in\n    tag_212:\n        /* \"#utility.yul\":9162:9235   */\n      swap4\n      pop\n        /* \"#utility.yul\":8958:9245   */\n      pop\n        /* \"#utility.yul\":9312:9314   */\n      0x20\n        /* \"#utility.yul\":9301:9310   */\n      dup5\n        /* \"#utility.yul\":9297:9315   */\n      add\n        /* \"#utility.yul\":9284:9316   */\n      calldataload\n        /* \"#utility.yul\":9343:9361   */\n      0xffffffffffffffff\n        /* \"#utility.yul\":9335:9341   */\n      dup2\n        /* \"#utility.yul\":9332:9362   */\n      gt\n        /* \"#utility.yul\":9329:9446   */\n      iszero\n      tag_213\n      jumpi\n        /* \"#utility.yul\":9365:9444   */\n      tag_214\n      tag_75\n      jump\t// in\n    tag_214:\n        /* \"#utility.yul\":9329:9446   */\n    tag_213:\n        /* \"#utility.yul\":9470:9533   */\n      tag_215\n        /* \"#utility.yul\":9525:9532   */\n      dup7\n        /* \"#utility.yul\":9516:9522   */\n      dup3\n        /* \"#utility.yul\":9505:9514   */\n      dup8\n        /* \"#utility.yul\":9501:9523   */\n      add\n        /* \"#utility.yul\":9470:9533   */\n      tag_100\n      jump\t// in\n    tag_215:\n        /* \"#utility.yul\":9460:9533   */\n      swap3\n      pop\n        /* \"#utility.yul\":9255:9543   */\n      pop\n        /* \"#utility.yul\":9610:9612   */\n      0x40\n        /* \"#utility.yul\":9599:9608   */\n      dup5\n        /* \"#utility.yul\":9595:9613   */\n      add\n        /* \"#utility.yul\":9582:9614   */\n      calldataload\n        /* \"#utility.yul\":9641:9659   */\n      0xffffffffffffffff\n        /* \"#utility.yul\":9633:9639   */\n      dup2\n        /* \"#utility.yul\":9630:9660   */\n      gt\n        /* \"#utility.yul\":9627:9744   */\n      iszero\n      tag_216\n      jumpi\n        /* \"#utility.yul\":9663:9742   */\n      tag_217\n      tag_75\n      jump\t// in\n    tag_217:\n        /* \"#utility.yul\":9627:9744   */\n    tag_216:\n        /* \"#utility.yul\":9768:9831   */\n      tag_218\n        /* \"#utility.yul\":9823:9830   */\n      dup7\n        /* \"#utility.yul\":9814:9820   */\n      dup3\n        /* \"#utility.yul\":9803:9812   */\n      dup8\n        /* \"#utility.yul\":9799:9821   */\n      add\n        /* \"#utility.yul\":9768:9831   */\n      tag_100\n      jump\t// in\n    tag_218:\n        /* \"#utility.yul\":9758:9831   */\n      swap2\n      pop\n        /* \"#utility.yul\":9553:9841   */\n      pop\n        /* \"#utility.yul\":8689:9848   */\n      swap3\n      pop\n      swap3\n      pop\n      swap3\n      jump\t// out\n        /* \"#utility.yul\":9854:9976   */\n    tag_101:\n        /* \"#utility.yul\":9927:9951   */\n      tag_220\n        /* \"#utility.yul\":9945:9950   */\n      dup2\n        /* \"#utility.yul\":9927:9951   */\n      tag_71\n      jump\t// in\n    tag_220:\n        /* \"#utility.yul\":9920:9925   */\n      dup2\n        /* \"#utility.yul\":9917:9952   */\n      eq\n        /* \"#utility.yul\":9907:9970   */\n      tag_221\n      jumpi\n        /* \"#utility.yul\":9966:9967   */\n      0x00\n        /* \"#utility.yul\":9963:9964   */\n      dup1\n        /* \"#utility.yul\":9956:9968   */\n      revert\n        /* \"#utility.yul\":9907:9970   */\n    tag_221:\n        /* \"#utility.yul\":9854:9976   */\n      pop\n      jump\t// out\n        /* \"#utility.yul\":9982:10121   */\n    tag_102:\n        /* \"#utility.yul\":10028:10033   */\n      0x00\n        /* \"#utility.yul\":10066:10072   */\n      dup2\n        /* \"#utility.yul\":10053:10073   */\n      calldataload\n        /* \"#utility.yul\":10044:10073   */\n      swap1\n      pop\n        /* \"#utility.yul\":10082:10115   */\n      tag_223\n        /* \"#utility.yul\":10109:10114   */\n      dup2\n        /* \"#utility.yul\":10082:10115   */\n      tag_101\n      jump\t// in\n    tag_223:\n        /* \"#utility.yul\":9982:10121   */\n      swap3\n      swap2\n      pop\n      pop\n      jump\t// out\n        /* \"#utility.yul\":10127:10456   */\n    tag_23:\n        /* \"#utility.yul\":10186:10192   */\n      0x00\n        /* \"#utility.yul\":10235:10237   */\n      0x20\n        /* \"#utility.yul\":10223:10232   */\n      dup3\n        /* \"#utility.yul\":10214:10221   */\n      dup5\n        /* \"#utility.yul\":10210:10233   */\n      sub\n        /* \"#utility.yul\":10206:10238   */\n      slt\n        /* \"#utility.yul\":10203:10322   */\n      iszero\n      tag_225\n      jumpi\n        /* \"#utility.yul\":10241:10320   */\n      tag_226\n      tag_74\n      jump\t// in\n    tag_226:\n        /* \"#utility.yul\":10203:10322   */\n    tag_225:\n        /* \"#utility.yul\":10361:10362   */\n      0x00\n        /* \"#utility.yul\":10386:10439   */\n      tag_227\n        /* \"#utility.yul\":10431:10438   */\n      dup5\n        /* \"#utility.yul\":10422:10428   */\n      dup3\n        /* \"#utility.yul\":10411:10420   */\n      dup6\n        /* \"#utility.yul\":10407:10429   */\n      add\n        /* \"#utility.yul\":10386:10439   */\n      tag_102\n      jump\t// in\n    tag_227:\n        /* \"#utility.yul\":10376:10439   */\n      swap2\n      pop\n        /* \"#utility.yul\":10332:10449   */\n      pop\n        /* \"#utility.yul\":10127:10456   */\n      swap3\n      swap2\n      pop\n      pop\n      jump\t// out\n        /* \"#utility.yul\":10462:10631   */\n    tag_103:\n        /* \"#utility.yul\":10546:10557   */\n      0x00\n        /* \"#utility.yul\":10580:10586   */\n      dup3\n        /* \"#utility.yul\":10575:10578   */\n      dup3\n        /* \"#utility.yul\":10568:10587   */\n      mstore\n        /* \"#utility.yul\":10620:10624   */\n      0x20\n        /* \"#utility.yul\":10615:10618   */\n      dup3\n        /* \"#utility.yul\":10611:10625   */\n      add\n        /* \"#utility.yul\":10596:10625   */\n      swap1\n      pop\n        /* \"#utility.yul\":10462:10631   */\n      swap3\n      swap2\n      pop\n      pop\n      jump\t// out\n        /* \"#utility.yul\":10637:10810   */\n    tag_104:\n        /* \"#utility.yul\":10777:10802   */\n      0x50726f7665646f72206e616f206175746f72697a61646f000000000000000000\n        /* \"#utility.yul\":10773:10774   */\n      0x00\n        /* \"#utility.yul\":10765:10771   */\n      dup3\n        /* \"#utility.yul\":10761:10775   */\n      add\n        /* \"#utility.yul\":10754:10803   */\n      mstore\n        /* \"#utility.yul\":10637:10810   */\n      pop\n      jump\t// out\n        /* \"#utility.yul\":10816:11182   */\n    tag_105:\n        /* \"#utility.yul\":10958:10961   */\n      0x00\n        /* \"#utility.yul\":10979:11046   */\n      tag_231\n        /* \"#utility.yul\":11043:11045   */\n      0x17\n        /* \"#utility.yul\":11038:11041   */\n      dup4\n        /* \"#utility.yul\":10979:11046   */\n      tag_103\n      jump\t// in\n    tag_231:\n        /* \"#utility.yul\":10972:11046   */\n      swap2\n      pop\n        /* \"#utility.yul\":11055:11148   */\n      tag_232\n        /* \"#utility.yul\":11144:11147   */\n      dup3\n        /* \"#utility.yul\":11055:11148   */\n      tag_104\n      jump\t// in\n    tag_232:\n        /* \"#utility.yul\":11173:11175   */\n      0x20\n        /* \"#utility.yul\":11168:11171   */\n      dup3\n        /* \"#utility.yul\":11164:11176   */\n      add\n        /* \"#utility.yul\":11157:11176   */\n      swap1\n      pop\n        /* \"#utility.yul\":10816:11182   */\n      swap2\n      swap1\n      pop\n      jump\t// out\n        /* \"#utility.yul\":11188:11607   */\n    tag_29:\n        /* \"#utility.yul\":11354:11358   */\n      0x00\n        /* \"#utility.yul\":11392:11394   */\n      0x20\n        /* \"#utility.yul\":11381:11390   */\n      dup3\n        /* \"#utility.yul\":11377:11395   */\n      add\n        /* \"#utility.yul\":11369:11395   */\n      swap1\n      pop\n        /* \"#utility.yul\":11441:11450   */\n      dup2\n        /* \"#utility.yul\":11435:11439   */\n      dup2\n        /* \"#utility.yul\":11431:11451   */\n      sub\n        /* \"#utility.yul\":11427:11428   */\n      0x00\n        /* \"#utility.yul\":11416:11425   */\n      dup4\n        /* \"#utility.yul\":11412:11429   */\n      add\n        /* \"#utility.yul\":11405:11452   */\n      mstore\n        /* \"#utility.yul\":11469:11600   */\n      tag_234\n        /* \"#utility.yul\":11595:11599   */\n      dup2\n        /* \"#utility.yul\":11469:11600   */\n      tag_105\n      jump\t// in\n    tag_234:\n        /* \"#utility.yul\":11461:11600   */\n      swap1\n      pop\n        /* \"#utility.yul\":11188:11607   */\n      swap2\n      swap1\n      pop\n      jump\t// out\n        /* \"#utility.yul\":11613:11793   */\n    tag_106:\n        /* \"#utility.yul\":11661:11738   */\n      0x4e487b7100000000000000000000000000000000000000000000000000000000\n        /* \"#utility.yul\":11658:11659   */\n      0x00\n        /* \"#utility.yul\":11651:11739   */\n      mstore\n        /* \"#utility.yul\":11758:11762   */\n      0x22\n        /* \"#utility.yul\":11755:11756   */\n      0x04\n        /* \"#utility.yul\":11748:11763   */\n      mstore\n        /* \"#utility.yul\":11782:11786   */\n      0x24\n        /* \"#utility.yul\":11779:11780   */\n      0x00\n        /* \"#utility.yul\":11772:11787   */\n      revert\n        /* \"#utility.yul\":11799:12119   */\n    tag_35:\n        /* \"#utility.yul\":11843:11849   */\n      0x00\n        /* \"#utility.yul\":11880:11881   */\n      0x02\n        /* \"#utility.yul\":11874:11878   */\n      dup3\n        /* \"#utility.yul\":11870:11882   */\n      div\n        /* \"#utility.yul\":11860:11882   */\n      swap1\n      pop\n        /* \"#utility.yul\":11927:11928   */\n      0x01\n        /* \"#utility.yul\":11921:11925   */\n      dup3\n        /* \"#utility.yul\":11917:11929   */\n      and\n        /* \"#utility.yul\":11948:11966   */\n      dup1\n        /* \"#utility.yul\":11938:12019   */\n      tag_237\n      jumpi\n        /* \"#utility.yul\":12004:12008   */\n      0x7f\n        /* \"#utility.yul\":11996:12002   */\n      dup3\n        /* \"#utility.yul\":11992:12009   */\n      and\n        /* \"#utility.yul\":11982:12009   */\n      swap2\n      pop\n        /* \"#utility.yul\":11938:12019   */\n    tag_237:\n        /* \"#utility.yul\":12066:12068   */\n      0x20\n        /* \"#utility.yul\":12058:12064   */\n      dup3\n        /* \"#utility.yul\":12055:12069   */\n      lt\n        /* \"#utility.yul\":12035:12053   */\n      dup2\n        /* \"#utility.yul\":12032:12070   */\n      sub\n        /* \"#utility.yul\":12029:12113   */\n      tag_238\n      jumpi\n        /* \"#utility.yul\":12085:12103   */\n      tag_239\n      tag_106\n      jump\t// in\n    tag_239:\n        /* \"#utility.yul\":12029:12113   */\n    tag_238:\n        /* \"#utility.yul\":11850:12119   */\n      pop\n        /* \"#utility.yul\":11799:12119   */\n      swap2\n      swap1\n      pop\n      jump\t// out\n        /* \"#utility.yul\":12125:12360   */\n    tag_107:\n        /* \"#utility.yul\":12265:12299   */\n      0x536f6d656e7465206f2070726f70726965746172696f20706f6465207574696c\n        /* \"#utility.yul\":12261:12262   */\n      0x00\n        /* \"#utility.yul\":12253:12259   */\n      dup3\n        /* \"#utility.yul\":12249:12263   */\n      add\n        /* \"#utility.yul\":12242:12300   */\n      mstore\n        /* \"#utility.yul\":12334:12352   */\n      0x697a617220657373612066756e63616f00000000000000000000000000000000\n        /* \"#utility.yul\":12329:12331   */\n      0x20\n        /* \"#utility.yul\":12321:12327   */\n      dup3\n        /* \"#utility.yul\":12317:12332   */\n      add\n        /* \"#utility.yul\":12310:12353   */\n      mstore\n        /* \"#utility.yul\":12125:12360   */\n      pop\n      jump\t// out\n        /* \"#utility.yul\":12366:12732   */\n    tag_108:\n        /* \"#utility.yul\":12508:12511   */\n      0x00\n        /* \"#utility.yul\":12529:12596   */\n      tag_242\n        /* \"#utility.yul\":12593:12595   */\n      0x30\n        /* \"#utility.yul\":12588:12591   */\n      dup4\n        /* \"#utility.yul\":12529:12596   */\n      tag_103\n      jump\t// in\n    tag_242:\n        /* \"#utility.yul\":12522:12596   */\n      swap2\n      pop\n        /* \"#utility.yul\":12605:12698   */\n      tag_243\n        /* \"#utility.yul\":12694:12697   */\n      dup3\n        /* \"#utility.yul\":12605:12698   */\n      tag_107\n      jump\t// in\n    tag_243:\n        /* \"#utility.yul\":12723:12725   */\n      0x40\n        /* \"#utility.yul\":12718:12721   */\n      dup3\n        /* \"#utility.yul\":12714:12726   */\n      add\n        /* \"#utility.yul\":12707:12726   */\n      swap1\n      pop\n        /* \"#utility.yul\":12366:12732   */\n      swap2\n      swap1\n      pop\n      jump\t// out\n        /* \"#utility.yul\":12738:13157   */\n    tag_53:\n        /* \"#utility.yul\":12904:12908   */\n      0x00\n        /* \"#utility.yul\":12942:12944   */\n      0x20\n        /* \"#utility.yul\":12931:12940   */\n      dup3\n        /* \"#utility.yul\":12927:12945   */\n      add\n        /* \"#utility.yul\":12919:12945   */\n      swap1\n      pop\n        /* \"#utility.yul\":12991:13000   */\n      dup2\n        /* \"#utility.yul\":12985:12989   */\n      dup2\n        /* \"#utility.yul\":12981:13001   */\n      sub\n        /* \"#utility.yul\":12977:12978   */\n      0x00\n        /* \"#utility.yul\":12966:12975   */\n      dup4\n        /* \"#utility.yul\":12962:12979   */\n      add\n        /* \"#utility.yul\":12955:13002   */\n      mstore\n        /* \"#utility.yul\":13019:13150   */\n      tag_245\n        /* \"#utility.yul\":13145:13149   */\n      dup2\n        /* \"#utility.yul\":13019:13150   */\n      tag_108\n      jump\t// in\n    tag_245:\n        /* \"#utility.yul\":13011:13150   */\n      swap1\n      pop\n        /* \"#utility.yul\":12738:13157   */\n      swap2\n      swap1\n      pop\n      jump\t// out\n        /* \"#utility.yul\":13163:13343   */\n    tag_109:\n        /* \"#utility.yul\":13211:13288   */\n      0x4e487b7100000000000000000000000000000000000000000000000000000000\n        /* \"#utility.yul\":13208:13209   */\n      0x00\n        /* \"#utility.yul\":13201:13289   */\n      mstore\n        /* \"#utility.yul\":13308:13312   */\n      0x11\n        /* \"#utility.yul\":13305:13306   */\n      0x04\n        /* \"#utility.yul\":13298:13313   */\n      mstore\n        /* \"#utility.yul\":13332:13336   */\n      0x24\n        /* \"#utility.yul\":13329:13330   */\n      0x00\n        /* \"#utility.yul\":13322:13337   */\n      revert\n        /* \"#utility.yul\":13349:13582   */\n    tag_56:\n        /* \"#utility.yul\":13388:13391   */\n      0x00\n        /* \"#utility.yul\":13411:13435   */\n      tag_248\n        /* \"#utility.yul\":13429:13434   */\n      dup3\n        /* \"#utility.yul\":13411:13435   */\n      tag_76\n      jump\t// in\n    tag_248:\n        /* \"#utility.yul\":13402:13435   */\n      swap2\n      pop\n        /* \"#utility.yul\":13457:13523   */\n      0xffffffffffffffffffffffffffffffffffffffffffffffffffffffffffffffff\n        /* \"#utility.yul\":13450:13455   */\n      dup3\n        /* \"#utility.yul\":13447:13524   */\n      sub\n        /* \"#utility.yul\":13444:13547   */\n      tag_249\n      jumpi\n        /* \"#utility.yul\":13527:13545   */\n      tag_250\n      tag_109\n      jump\t// in\n    tag_250:\n        /* \"#utility.yul\":13444:13547   */\n    tag_249:\n        /* \"#utility.yul\":13574:13575   */\n      0x01\n        /* \"#utility.yul\":13567:13572   */\n      dup3\n        /* \"#utility.yul\":13563:13576   */\n      add\n        /* \"#utility.yul\":13556:13576   */\n      swap1\n      pop\n        /* \"#utility.yul\":13349:13582   */\n      swap2\n      swap1\n      pop\n      jump\t// out\n        /* \"#utility.yul\":13588:13779   */\n    tag_58:\n        /* \"#utility.yul\":13628:13631   */\n      0x00\n        /* \"#utility.yul\":13647:13667   */\n      tag_252\n        /* \"#utility.yul\":13665:13666   */\n      dup3\n        /* \"#utility.yul\":13647:13667   */\n      tag_76\n      jump\t// in\n    tag_252:\n        /* \"#utility.yul\":13642:13667   */\n      swap2\n      pop\n        /* \"#utility.yul\":13681:13701   */\n      tag_253\n        /* \"#utility.yul\":13699:13700   */\n      dup4\n        /* \"#utility.yul\":13681:13701   */\n      tag_76\n      jump\t// in\n    tag_253:\n        /* \"#utility.yul\":13676:13701   */\n      swap3\n      pop\n        /* \"#utility.yul\":13724:13725   */\n      dup3\n        /* \"#utility.yul\":13721:13722   */\n      dup3\n        /* \"#utility.yul\":13717:13726   */\n      add\n        /* \"#utility.yul\":13710:13726   */\n      swap1\n      pop\n        /* \"#utility.yul\":13745:13748   */\n      dup1\n        /* \"#utility.yul\":13742:13743   */\n      dup3\n        /* \"#utility.yul\":13739:13749   */\n      gt\n        /* \"#utility.yul\":13736:13772   */\n      iszero\n      tag_254\n      jumpi\n        /* \"#utility.yul\":13752:13770   */\n      tag_255\n      tag_109\n      jump\t// in\n    tag_255:\n        /* \"#utility.yul\":13736:13772   */\n    tag_254:\n        /* \"#utility.yul\":13588:13779   */\n      swap3\n      swap2\n      pop\n      pop\n      jump\t// out\n        /* \"#utility.yul\":13785:13926   */\n    tag_110:\n        /* \"#utility.yul\":13834:13838   */\n      0x00\n        /* \"#utility.yul\":13857:13860   */\n      dup2\n        /* \"#utility.yul\":13849:13860   */\n      swap1\n      pop\n        /* \"#utility.yul\":13880:13883   */\n      dup2\n        /* \"#utility.yul\":13877:13878   */\n      0x00\n        /* \"#utility.yul\":13870:13884   */\n      mstore\n        /* \"#utility.yul\":13914:13918   */\n      0x20\n        /* \"#utility.yul\":13911:13912   */\n      0x00\n        /* \"#utility.yul\":13901:13919   */\n      keccak256\n        /* \"#utility.yul\":13893:13919   */\n      swap1\n      pop\n        /* \"#utility.yul\":13785:13926   */\n      swap2\n      swap1\n      pop\n      jump\t// out\n        /* \"#utility.yul\":13932:14025   */\n    tag_111:\n        /* \"#utility.yul\":13969:13975   */\n      0x00\n        /* \"#utility.yul\":14016:14018   */\n      0x20\n        /* \"#utility.yul\":14011:14013   */\n      0x1f\n        /* \"#utility.yul\":14004:14009   */\n      dup4\n        /* \"#utility.yul\":14000:14014   */\n      add\n        /* \"#utility.yul\":13996:14019   */\n      div\n        /* \"#utility.yul\":13986:14019   */\n      swap1\n      pop\n        /* \"#utility.yul\":13932:14025   */\n      swap2\n      swap1\n      pop\n      jump\t// out\n        /* \"#utility.yul\":14031:14138   */\n    tag_112:\n        /* \"#utility.yul\":14075:14083   */\n      0x00\n        /* \"#utility.yul\":14125:14130   */\n      dup3\n        /* \"#utility.yul\":14119:14123   */\n      dup3\n        /* \"#utility.yul\":14115:14131   */\n      shl\n        /* \"#utility.yul\":14094:14131   */\n      swap1\n      pop\n        /* \"#utility.yul\":14031:14138   */\n      swap3\n      swap2\n      pop\n      pop\n      jump\t// out\n        /* \"#utility.yul\":14144:14537   */\n    tag_113:\n        /* \"#utility.yul\":14213:14219   */\n      0x00\n        /* \"#utility.yul\":14263:14264   */\n      0x08\n        /* \"#utility.yul\":14251:14261   */\n      dup4\n        /* \"#utility.yul\":14247:14265   */\n      mul\n        /* \"#utility.yul\":14286:14383   */\n      tag_260\n        /* \"#utility.yul\":14316:14382   */\n      0xffffffffffffffffffffffffffffffffffffffffffffffffffffffffffffffff\n        /* \"#utility.yul\":14305:14314   */\n      dup3\n        /* \"#utility.yul\":14286:14383   */\n      tag_112\n      jump\t// in\n    tag_260:\n        /* \"#utility.yul\":14404:14443   */\n      tag_261\n        /* \"#utility.yul\":14434:14442   */\n      dup7\n        /* \"#utility.yul\":14423:14432   */\n      dup4\n        /* \"#utility.yul\":14404:14443   */\n      tag_112\n      jump\t// in\n    tag_261:\n        /* \"#utility.yul\":14392:14443   */\n      swap6\n      pop\n        /* \"#utility.yul\":14476:14480   */\n      dup1\n        /* \"#utility.yul\":14472:14481   */\n      not\n        /* \"#utility.yul\":14465:14470   */\n      dup5\n        /* \"#utility.yul\":14461:14482   */\n      and\n        /* \"#utility.yul\":14452:14482   */\n      swap4\n      pop\n        /* \"#utility.yul\":14525:14529   */\n      dup1\n        /* \"#utility.yul\":14515:14523   */\n      dup7\n        /* \"#utility.yul\":14511:14530   */\n      and\n        /* \"#utility.yul\":14504:14509   */\n      dup5\n        /* \"#utility.yul\":14501:14531   */\n      or\n        /* \"#utility.yul\":14491:14531   */\n      swap3\n      pop\n        /* \"#utility.yul\":14220:14537   */\n      pop\n      pop\n        /* \"#utility.yul\":14144:14537   */\n      swap4\n      swap3\n      pop\n      pop\n      pop\n      jump\t// out\n        /* \"#utility.yul\":14543:14603   */\n    tag_114:\n        /* \"#utility.yul\":14571:14574   */\n      0x00\n        /* \"#utility.yul\":14592:14597   */\n      dup2\n        /* \"#utility.yul\":14585:14597   */\n      swap1\n      pop\n        /* \"#utility.yul\":14543:14603   */\n      swap2\n      swap1\n      pop\n      jump\t// out\n        /* \"#utility.yul\":14609:14751   */\n    tag_115:\n        /* \"#utility.yul\":14659:14668   */\n      0x00\n        /* \"#utility.yul\":14692:14745   */\n      tag_264\n        /* \"#utility.yul\":14710:14744   */\n      tag_265\n        /* \"#utility.yul\":14719:14743   */\n      tag_266\n        /* \"#utility.yul\":14737:14742   */\n      dup5\n        /* \"#utility.yul\":14719:14743   */\n      tag_76\n      jump\t// in\n    tag_266:\n        /* \"#utility.yul\":14710:14744   */\n      tag_114\n      jump\t// in\n    tag_265:\n        /* \"#utility.yul\":14692:14745   */\n      tag_76\n      jump\t// in\n    tag_264:\n        /* \"#utility.yul\":14679:14745   */\n      swap1\n      pop\n        /* \"#utility.yul\":14609:14751   */\n      swap2\n      swap1\n      pop\n      jump\t// out\n        /* \"#utility.yul\":14757:14832   */\n    tag_116:\n        /* \"#utility.yul\":14800:14803   */\n      0x00\n        /* \"#utility.yul\":14821:14826   */\n      dup2\n        /* \"#utility.yul\":14814:14826   */\n      swap1\n      pop\n        /* \"#utility.yul\":14757:14832   */\n      swap2\n      swap1\n      pop\n      jump\t// out\n        /* \"#utility.yul\":14838:15107   */\n    tag_117:\n        /* \"#utility.yul\":14948:14987   */\n      tag_269\n        /* \"#utility.yul\":14979:14986   */\n      dup4\n        /* \"#utility.yul\":14948:14987   */\n      tag_115\n      jump\t// in\n    tag_269:\n        /* \"#utility.yul\":15009:15100   */\n      tag_270\n        /* \"#utility.yul\":15058:15099   */\n      tag_271\n        /* \"#utility.yul\":15082:15098   */\n      dup3\n        /* \"#utility.yul\":15058:15099   */\n      tag_116\n      jump\t// in\n    tag_271:\n        /* \"#utility.yul\":15050:15056   */\n      dup5\n        /* \"#utility.yul\":15043:15047   */\n      dup5\n        /* \"#utility.yul\":15037:15048   */\n      sload\n        /* \"#utility.yul\":15009:15100   */\n      tag_113\n      jump\t// in\n    tag_270:\n        /* \"#utility.yul\":15003:15007   */\n      dup3\n        /* \"#utility.yul\":14996:15101   */\n      sstore\n        /* \"#utility.yul\":14914:15107   */\n      pop\n        /* \"#utility.yul\":14838:15107   */\n      pop\n      pop\n      pop\n      jump\t// out\n        /* \"#utility.yul\":15113:15186   */\n    tag_118:\n        /* \"#utility.yul\":15158:15161   */\n      0x00\n        /* \"#utility.yul\":15113:15186   */\n      swap1\n      jump\t// out\n        /* \"#utility.yul\":15192:15381   */\n    tag_119:\n        /* \"#utility.yul\":15269:15301   */\n      tag_274\n      tag_118\n      jump\t// in\n    tag_274:\n        /* \"#utility.yul\":15310:15375   */\n      tag_275\n        /* \"#utility.yul\":15368:15374   */\n      dup2\n        /* \"#utility.yul\":15360:15366   */\n      dup5\n        /* \"#utility.yul\":15354:15358   */\n      dup5\n        /* \"#utility.yul\":15310:15375   */\n      tag_117\n      jump\t// in\n    tag_275:\n        /* \"#utility.yul\":15245:15381   */\n      pop\n        /* \"#utility.yul\":15192:15381   */\n      pop\n      pop\n      jump\t// out\n        /* \"#utility.yul\":15387:15573   */\n    tag_120:\n        /* \"#utility.yul\":15447:15567   */\n    tag_277:\n        /* \"#utility.yul\":15464:15467   */\n      dup2\n        /* \"#utility.yul\":15457:15462   */\n      dup2\n        /* \"#utility.yul\":15454:15468   */\n      lt\n        /* \"#utility.yul\":15447:15567   */\n      iszero\n      tag_279\n      jumpi\n        /* \"#utility.yul\":15518:15557   */\n      tag_280\n        /* \"#utility.yul\":15555:15556   */\n      0x00\n        /* \"#utility.yul\":15548:15553   */\n      dup3\n        /* \"#utility.yul\":15518:15557   */\n      tag_119\n      jump\t// in\n    tag_280:\n        /* \"#utility.yul\":15491:15492   */\n      0x01\n        /* \"#utility.yul\":15484:15489   */\n      dup2\n        /* \"#utility.yul\":15480:15493   */\n      add\n        /* \"#utility.yul\":15471:15493   */\n      swap1\n      pop\n        /* \"#utility.yul\":15447:15567   */\n      jump(tag_277)\n    tag_279:\n        /* \"#utility.yul\":15387:15573   */\n      pop\n      pop\n      jump\t// out\n        /* \"#utility.yul\":15579:16122   */\n    tag_121:\n        /* \"#utility.yul\":15680:15682   */\n      0x1f\n        /* \"#utility.yul\":15675:15678   */\n      dup3\n        /* \"#utility.yul\":15672:15683   */\n      gt\n        /* \"#utility.yul\":15669:16115   */\n      iszero\n      tag_282\n      jumpi\n        /* \"#utility.yul\":15714:15752   */\n      tag_283\n        /* \"#utility.yul\":15746:15751   */\n      dup2\n        /* \"#utility.yul\":15714:15752   */\n      tag_110\n      jump\t// in\n    tag_283:\n        /* \"#utility.yul\":15798:15827   */\n      tag_284\n        /* \"#utility.yul\":15816:15826   */\n      dup5\n        /* \"#utility.yul\":15798:15827   */\n      tag_111\n      jump\t// in\n    tag_284:\n        /* \"#utility.yul\":15788:15796   */\n      dup2\n        /* \"#utility.yul\":15784:15828   */\n      add\n        /* \"#utility.yul\":15981:15983   */\n      0x20\n        /* \"#utility.yul\":15969:15979   */\n      dup6\n        /* \"#utility.yul\":15966:15984   */\n      lt\n        /* \"#utility.yul\":15963:16012   */\n      iszero\n      tag_285\n      jumpi\n        /* \"#utility.yul\":16002:16010   */\n      dup2\n        /* \"#utility.yul\":15987:16010   */\n      swap1\n      pop\n        /* \"#utility.yul\":15963:16012   */\n    tag_285:\n        /* \"#utility.yul\":16025:16105   */\n      tag_286\n        /* \"#utility.yul\":16081:16103   */\n      tag_287\n        /* \"#utility.yul\":16099:16102   */\n      dup6\n        /* \"#utility.yul\":16081:16103   */\n      tag_111\n      jump\t// in\n    tag_287:\n        /* \"#utility.yul\":16071:16079   */\n      dup4\n        /* \"#utility.yul\":16067:16104   */\n      add\n        /* \"#utility.yul\":16054:16065   */\n      dup3\n        /* \"#utility.yul\":16025:16105   */\n      tag_120\n      jump\t// in\n    tag_286:\n        /* \"#utility.yul\":15684:16115   */\n      pop\n      pop\n        /* \"#utility.yul\":15669:16115   */\n    tag_282:\n        /* \"#utility.yul\":15579:16122   */\n      pop\n      pop\n      pop\n      jump\t// out\n        /* \"#utility.yul\":16128:16245   */\n    tag_122:\n        /* \"#utility.yul\":16182:16190   */\n      0x00\n        /* \"#utility.yul\":16232:16237   */\n      dup3\n        /* \"#utility.yul\":16226:16230   */\n      dup3\n        /* \"#utility.yul\":16222:16238   */\n      shr\n        /* \"#utility.yul\":16201:16238   */\n      swap1\n      pop\n        /* \"#utility.yul\":16128:16245   */\n      swap3\n      swap2\n      pop\n      pop\n      jump\t// out\n        /* \"#utility.yul\":16251:16420   */\n    tag_123:\n        /* \"#utility.yul\":16295:16301   */\n      0x00\n        /* \"#utility.yul\":16328:16379   */\n      tag_290\n        /* \"#utility.yul\":16376:16377   */\n      0x00\n        /* \"#utility.yul\":16372:16378   */\n      not\n        /* \"#utility.yul\":16364:16369   */\n      dup5\n        /* \"#utility.yul\":16361:16362   */\n      0x08\n        /* \"#utility.yul\":16357:16370   */\n      mul\n        /* \"#utility.yul\":16328:16379   */\n      tag_122\n      jump\t// in\n    tag_290:\n        /* \"#utility.yul\":16324:16380   */\n      not\n        /* \"#utility.yul\":16409:16413   */\n      dup1\n        /* \"#utility.yul\":16403:16407   */\n      dup4\n        /* \"#utility.yul\":16399:16414   */\n      and\n        /* \"#utility.yul\":16389:16414   */\n      swap2\n      pop\n        /* \"#utility.yul\":16302:16420   */\n      pop\n        /* \"#utility.yul\":16251:16420   */\n      swap3\n      swap2\n      pop\n      pop\n      jump\t// out\n        /* \"#utility.yul\":16425:16720   */\n    tag_124:\n        /* \"#utility.yul\":16501:16505   */\n      0x00\n        /* \"#utility.yul\":16647:16676   */\n      tag_292\n        /* \"#utility.yul\":16672:16675   */\n      dup4\n        /* \"#utility.yul\":16666:16670   */\n      dup4\n        /* \"#utility.yul\":16647:16676   */\n      tag_123\n      jump\t// in\n    tag_292:\n        /* \"#utility.yul\":16639:16676   */\n      swap2\n      pop\n        /* \"#utility.yul\":16709:16712   */\n      dup3\n        /* \"#utility.yul\":16706:16707   */\n      0x02\n        /* \"#utility.yul\":16702:16713   */\n      mul\n        /* \"#utility.yul\":16696:16700   */\n      dup3\n        /* \"#utility.yul\":16693:16714   */\n      or\n        /* \"#utility.yul\":16685:16714   */\n      swap1\n      pop\n        /* \"#utility.yul\":16425:16720   */\n      swap3\n      swap2\n      pop\n      pop\n      jump\t// out\n        /* \"#utility.yul\":16725:18120   */\n    tag_61:\n        /* \"#utility.yul\":16842:16879   */\n      tag_294\n        /* \"#utility.yul\":16875:16878   */\n      dup3\n        /* \"#utility.yul\":16842:16879   */\n      tag_83\n      jump\t// in\n    tag_294:\n        /* \"#utility.yul\":16944:16962   */\n      0xffffffffffffffff\n        /* \"#utility.yul\":16936:16942   */\n      dup2\n        /* \"#utility.yul\":16933:16963   */\n      gt\n        /* \"#utility.yul\":16930:16986   */\n      iszero\n      tag_295\n      jumpi\n        /* \"#utility.yul\":16966:16984   */\n      tag_296\n      tag_94\n      jump\t// in\n    tag_296:\n        /* \"#utility.yul\":16930:16986   */\n    tag_295:\n        /* \"#utility.yul\":17010:17048   */\n      tag_297\n        /* \"#utility.yul\":17042:17046   */\n      dup3\n        /* \"#utility.yul\":17036:17047   */\n      sload\n        /* \"#utility.yul\":17010:17048   */\n      tag_35\n      jump\t// in\n    tag_297:\n        /* \"#utility.yul\":17095:17162   */\n      tag_298\n        /* \"#utility.yul\":17155:17161   */\n      dup3\n        /* \"#utility.yul\":17147:17153   */\n      dup3\n        /* \"#utility.yul\":17141:17145   */\n      dup6\n        /* \"#utility.yul\":17095:17162   */\n      tag_121\n      jump\t// in\n    tag_298:\n        /* \"#utility.yul\":17189:17190   */\n      0x00\n        /* \"#utility.yul\":17213:17217   */\n      0x20\n        /* \"#utility.yul\":17200:17217   */\n      swap1\n      pop\n        /* \"#utility.yul\":17245:17247   */\n      0x1f\n        /* \"#utility.yul\":17237:17243   */\n      dup4\n        /* \"#utility.yul\":17234:17248   */\n      gt\n        /* \"#utility.yul\":17262:17263   */\n      0x01\n        /* \"#utility.yul\":17257:17875   */\n      dup2\n      eq\n      tag_300\n      jumpi\n        /* \"#utility.yul\":17919:17920   */\n      0x00\n        /* \"#utility.yul\":17936:17942   */\n      dup5\n        /* \"#utility.yul\":17933:18010   */\n      iszero\n      tag_301\n      jumpi\n        /* \"#utility.yul\":17985:17994   */\n      dup3\n        /* \"#utility.yul\":17980:17983   */\n      dup8\n        /* \"#utility.yul\":17976:17995   */\n      add\n        /* \"#utility.yul\":17970:17996   */\n      mload\n        /* \"#utility.yul\":17961:17996   */\n      swap1\n      pop\n        /* \"#utility.yul\":17933:18010   */\n    tag_301:\n        /* \"#utility.yul\":18036:18103   */\n      tag_302\n        /* \"#utility.yul\":18096:18102   */\n      dup6\n        /* \"#utility.yul\":18089:18094   */\n      dup3\n        /* \"#utility.yul\":18036:18103   */\n      tag_124\n      jump\t// in\n    tag_302:\n        /* \"#utility.yul\":18030:18034   */\n      dup7\n        /* \"#utility.yul\":18023:18104   */\n      sstore\n        /* \"#utility.yul\":17892:18114   */\n      pop\n        /* \"#utility.yul\":17227:18114   */\n      jump(tag_299)\n        /* \"#utility.yul\":17257:17875   */\n    tag_300:\n        /* \"#utility.yul\":17309:17313   */\n      0x1f\n        /* \"#utility.yul\":17305:17314   */\n      not\n        /* \"#utility.yul\":17297:17303   */\n      dup5\n        /* \"#utility.yul\":17293:17315   */\n      and\n        /* \"#utility.yul\":17343:17380   */\n      tag_303\n        /* \"#utility.yul\":17375:17379   */\n      dup7\n        /* \"#utility.yul\":17343:17380   */\n      tag_110\n      jump\t// in\n    tag_303:\n        /* \"#utility.yul\":17402:17403   */\n      0x00\n        /* \"#utility.yul\":17416:17624   */\n    tag_304:\n        /* \"#utility.yul\":17430:17437   */\n      dup3\n        /* \"#utility.yul\":17427:17428   */\n      dup2\n        /* \"#utility.yul\":17424:17438   */\n      lt\n        /* \"#utility.yul\":17416:17624   */\n      iszero\n      tag_306\n      jumpi\n        /* \"#utility.yul\":17509:17518   */\n      dup5\n        /* \"#utility.yul\":17504:17507   */\n      dup10\n        /* \"#utility.yul\":17500:17519   */\n      add\n        /* \"#utility.yul\":17494:17520   */\n      mload\n        /* \"#utility.yul\":17486:17492   */\n      dup3\n        /* \"#utility.yul\":17479:17521   */\n      sstore\n        /* \"#utility.yul\":17560:17561   */\n      0x01\n        /* \"#utility.yul\":17552:17558   */\n      dup3\n        /* \"#utility.yul\":17548:17562   */\n      add\n        /* \"#utility.yul\":17538:17562   */\n      swap2\n      pop\n        /* \"#utility.yul\":17607:17609   */\n      0x20\n        /* \"#utility.yul\":17596:17605   */\n      dup6\n        /* \"#utility.yul\":17592:17610   */\n      add\n        /* \"#utility.yul\":17579:17610   */\n      swap5\n      pop\n        /* \"#utility.yul\":17453:17457   */\n      0x20\n        /* \"#utility.yul\":17450:17451   */\n      dup2\n        /* \"#utility.yul\":17446:17458   */\n      add\n        /* \"#utility.yul\":17441:17458   */\n      swap1\n      pop\n        /* \"#utility.yul\":17416:17624   */\n      jump(tag_304)\n    tag_306:\n        /* \"#utility.yul\":17652:17658   */\n      dup7\n        /* \"#utility.yul\":17643:17650   */\n      dup4\n        /* \"#utility.yul\":17640:17659   */\n      lt\n        /* \"#utility.yul\":17637:17816   */\n      iszero\n      tag_307\n      jumpi\n        /* \"#utility.yul\":17710:17719   */\n      dup5\n        /* \"#utility.yul\":17705:17708   */\n      dup10\n        /* \"#utility.yul\":17701:17720   */\n      add\n        /* \"#utility.yul\":17695:17721   */\n      mload\n        /* \"#utility.yul\":17753:17801   */\n      tag_308\n        /* \"#utility.yul\":17795:17799   */\n      0x1f\n        /* \"#utility.yul\":17787:17793   */\n      dup10\n        /* \"#utility.yul\":17783:17800   */\n      and\n        /* \"#utility.yul\":17772:17781   */\n      dup3\n        /* \"#utility.yul\":17753:17801   */\n      tag_123\n      jump\t// in\n    tag_308:\n        /* \"#utility.yul\":17745:17751   */\n      dup4\n        /* \"#utility.yul\":17738:17802   */\n      sstore\n        /* \"#utility.yul\":17660:17816   */\n      pop\n        /* \"#utility.yul\":17637:17816   */\n    tag_307:\n        /* \"#utility.yul\":17862:17863   */\n      0x01\n        /* \"#utility.yul\":17858:17859   */\n      0x02\n        /* \"#utility.yul\":17850:17856   */\n      dup9\n        /* \"#utility.yul\":17846:17860   */\n      mul\n        /* \"#utility.yul\":17842:17864   */\n      add\n        /* \"#utility.yul\":17836:17840   */\n      dup9\n        /* \"#utility.yul\":17829:17865   */\n      sstore\n        /* \"#utility.yul\":17264:17875   */\n      pop\n      pop\n      pop\n        /* \"#utility.yul\":17227:18114   */\n    tag_299:\n      pop\n        /* \"#utility.yul\":16817:18120   */\n      pop\n      pop\n      pop\n        /* \"#utility.yul\":16725:18120   */\n      pop\n      pop\n      jump\t// out\n        /* \"#utility.yul\":18126:18244   */\n    tag_125:\n        /* \"#utility.yul\":18213:18237   */\n      tag_310\n        /* \"#utility.yul\":18231:18236   */\n      dup2\n        /* \"#utility.yul\":18213:18237   */\n      tag_76\n      jump\t// in\n    tag_310:\n        /* \"#utility.yul\":18208:18211   */\n      dup3\n        /* \"#utility.yul\":18201:18238   */\n      mstore\n        /* \"#utility.yul\":18126:18244   */\n      pop\n      pop\n      jump\t// out\n        /* \"#utility.yul\":18250:18627   */\n    tag_126:\n        /* \"#utility.yul\":18338:18341   */\n      0x00\n        /* \"#utility.yul\":18366:18405   */\n      tag_312\n        /* \"#utility.yul\":18399:18404   */\n      dup3\n        /* \"#utility.yul\":18366:18405   */\n      tag_83\n      jump\t// in\n    tag_312:\n        /* \"#utility.yul\":18421:18492   */\n      tag_313\n        /* \"#utility.yul\":18485:18491   */\n      dup2\n        /* \"#utility.yul\":18480:18483   */\n      dup6\n        /* \"#utility.yul\":18421:18492   */\n      tag_103\n      jump\t// in\n    tag_313:\n        /* \"#utility.yul\":18414:18492   */\n      swap4\n      pop\n        /* \"#utility.yul\":18501:18566   */\n      tag_314\n        /* \"#utility.yul\":18559:18565   */\n      dup2\n        /* \"#utility.yul\":18554:18557   */\n      dup6\n        /* \"#utility.yul\":18547:18551   */\n      0x20\n        /* \"#utility.yul\":18540:18545   */\n      dup7\n        /* \"#utility.yul\":18536:18552   */\n      add\n        /* \"#utility.yul\":18501:18566   */\n      tag_85\n      jump\t// in\n    tag_314:\n        /* \"#utility.yul\":18591:18620   */\n      tag_315\n        /* \"#utility.yul\":18613:18619   */\n      dup2\n        /* \"#utility.yul\":18591:18620   */\n      tag_86\n      jump\t// in\n    tag_315:\n        /* \"#utility.yul\":18586:18589   */\n      dup5\n        /* \"#utility.yul\":18582:18621   */\n      add\n        /* \"#utility.yul\":18575:18621   */\n      swap2\n      pop\n        /* \"#utility.yul\":18342:18627   */\n      pop\n        /* \"#utility.yul\":18250:18627   */\n      swap3\n      swap2\n      pop\n      pop\n      jump\t// out\n        /* \"#utility.yul\":18633:19056   */\n    tag_65:\n        /* \"#utility.yul\":18774:18778   */\n      0x00\n        /* \"#utility.yul\":18812:18814   */\n      0x40\n        /* \"#utility.yul\":18801:18810   */\n      dup3\n        /* \"#utility.yul\":18797:18815   */\n      add\n        /* \"#utility.yul\":18789:18815   */\n      swap1\n      pop\n        /* \"#utility.yul\":18825:18896   */\n      tag_317\n        /* \"#utility.yul\":18893:18894   */\n      0x00\n        /* \"#utility.yul\":18882:18891   */\n      dup4\n        /* \"#utility.yul\":18878:18895   */\n      add\n        /* \"#utility.yul\":18869:18875   */\n      dup6\n        /* \"#utility.yul\":18825:18896   */\n      tag_125\n      jump\t// in\n    tag_317:\n        /* \"#utility.yul\":18943:18952   */\n      dup2\n        /* \"#utility.yul\":18937:18941   */\n      dup2\n        /* \"#utility.yul\":18933:18953   */\n      sub\n        /* \"#utility.yul\":18928:18930   */\n      0x20\n        /* \"#utility.yul\":18917:18926   */\n      dup4\n        /* \"#utility.yul\":18913:18931   */\n      add\n        /* \"#utility.yul\":18906:18954   */\n      mstore\n        /* \"#utility.yul\":18971:19049   */\n      tag_318\n        /* \"#utility.yul\":19044:19048   */\n      dup2\n        /* \"#utility.yul\":19035:19041   */\n      dup5\n        /* \"#utility.yul\":18971:19049   */\n      tag_126\n      jump\t// in\n    tag_318:\n        /* \"#utility.yul\":18963:19049   */\n      swap1\n      pop\n        /* \"#utility.yul\":18633:19056   */\n      swap4\n      swap3\n      pop\n      pop\n      pop\n      jump\t// out\n\n    auxdata: 0xa2646970667358221220c9454ab092891d51b1fab6fdeda7315899e598174c396e849ec00461d3f49d0c64736f6c634300081a0033\n}\n",
				"bytecode": {
					"linkReferences": {},
					"object": "6080604052348015600e575f80fd5b50335f806101000a81548173ffffffffffffffffffffffffffffffffffffffff021916908373ffffffffffffffffffffffffffffffffffffffff1602179055506110448061005b5f395ff3fe608060405234801561000f575f80fd5b506004361061004a575f3560e01c80630617b2f71461004e578063a2c0f8741461006c578063cdd69f001461009c578063ddcc2dfa146100b8575b5f80fd5b6100566100d4565b604051610063919061069b565b60405180910390f35b610086600480360381019061008191906106f8565b6100fb565b60405161009391906108de565b60405180910390f35b6100b660048036038101906100b19190610a2a565b6103b4565b005b6100d260048036038101906100cd9190610af8565b610577565b005b5f805f9054906101000a900473ffffffffffffffffffffffffffffffffffffffff16905090565b606060035f3373ffffffffffffffffffffffffffffffffffffffff1673ffffffffffffffffffffffffffffffffffffffff1681526020019081526020015f205f9054906101000a900460ff16610186576040517f08c379a000000000000000000000000000000000000000000000000000000000815260040161017d90610b7d565b60405180910390fd5b60025f8381526020019081526020015f20805480602002602001604051908101604052809291908181526020015f905b828210156103a9578382905f5260205f2090600502016040518060a00160405290815f82015481526020016001820180546101f090610bc8565b80601f016020809104026020016040519081016040528092919081815260200182805461021c90610bc8565b80156102675780601f1061023e57610100808354040283529160200191610267565b820191905f5260205f20905b81548152906001019060200180831161024a57829003601f168201915b5050505050815260200160028201805461028090610bc8565b80601f01602080910402602001604051908101604052809291908181526020018280546102ac90610bc8565b80156102f75780601f106102ce576101008083540402835291602001916102f7565b820191905f5260205f20905b8154815290600101906020018083116102da57829003601f168201915b5050505050815260200160038201805461031090610bc8565b80601f016020809104026020016040519081016040528092919081815260200182805461033c90610bc8565b80156103875780601f1061035e57610100808354040283529160200191610387565b820191905f5260205f20905b81548152906001019060200180831161036a57829003601f168201915b50505050508152602001600482015481525050815260200190600101906101b6565b505050509050919050565b5f8054906101000a900473ffffffffffffffffffffffffffffffffffffffff1673ffffffffffffffffffffffffffffffffffffffff163373ffffffffffffffffffffffffffffffffffffffff1614610441576040517f08c379a000000000000000000000000000000000000000000000000000000000815260040161043890610c68565b60405180910390fd5b60015f81548092919061045390610cb3565b91905055505f60015490505f600160025f8481526020019081526020015f20805490506104809190610cfa565b905060025f8381526020019081526020015f206040518060a0016040528083815260200187815260200186815260200185815260200142815250908060018154018082558091505060019003905f5260205f2090600502015f909190919091505f820151815f015560208201518160010190816104fd9190610eca565b5060408201518160020190816105139190610eca565b5060608201518160030190816105299190610eca565b50608082015181600401555050817f6022b62948223003839d9bc962fc10198e233c9ed6154d8e949b2b751b1f96b28287604051610568929190610fe0565b60405180910390a25050505050565b5f8054906101000a900473ffffffffffffffffffffffffffffffffffffffff1673ffffffffffffffffffffffffffffffffffffffff163373ffffffffffffffffffffffffffffffffffffffff1614610604576040517f08c379a00000000000000000000000000000000000000000000000000000000081526004016105fb90610c68565b60405180910390fd5b600160035f8373ffffffffffffffffffffffffffffffffffffffff1673ffffffffffffffffffffffffffffffffffffffff1681526020019081526020015f205f6101000a81548160ff02191690831515021790555050565b5f73ffffffffffffffffffffffffffffffffffffffff82169050919050565b5f6106858261065c565b9050919050565b6106958161067b565b82525050565b5f6020820190506106ae5f83018461068c565b92915050565b5f604051905090565b5f80fd5b5f80fd5b5f819050919050565b6106d7816106c5565b81146106e1575f80fd5b50565b5f813590506106f2816106ce565b92915050565b5f6020828403121561070d5761070c6106bd565b5b5f61071a848285016106e4565b91505092915050565b5f81519050919050565b5f82825260208201905092915050565b5f819050602082019050919050565b610755816106c5565b82525050565b5f81519050919050565b5f82825260208201905092915050565b8281835e5f83830152505050565b5f601f19601f8301169050919050565b5f61079d8261075b565b6107a78185610765565b93506107b7818560208601610775565b6107c081610783565b840191505092915050565b5f60a083015f8301516107e05f86018261074c565b50602083015184820360208601526107f88282610793565b915050604083015184820360408601526108128282610793565b9150506060830151848203606086015261082c8282610793565b9150506080830151610841608086018261074c565b508091505092915050565b5f61085783836107cb565b905092915050565b5f602082019050919050565b5f61087582610723565b61087f818561072d565b9350836020820285016108918561073d565b805f5b858110156108cc57848403895281516108ad858261084c565b94506108b88361085f565b925060208a01995050600181019050610894565b50829750879550505050505092915050565b5f6020820190508181035f8301526108f6818461086b565b905092915050565b5f80fd5b5f80fd5b7f4e487b71000000000000000000000000000000000000000000000000000000005f52604160045260245ffd5b61093c82610783565b810181811067ffffffffffffffff8211171561095b5761095a610906565b5b80604052505050565b5f61096d6106b4565b90506109798282610933565b919050565b5f67ffffffffffffffff82111561099857610997610906565b5b6109a182610783565b9050602081019050919050565b828183375f83830152505050565b5f6109ce6109c98461097e565b610964565b9050828152602081018484840111156109ea576109e9610902565b5b6109f58482856109ae565b509392505050565b5f82601f830112610a1157610a106108fe565b5b8135610a218482602086016109bc565b91505092915050565b5f805f60608486031215610a4157610a406106bd565b5b5f84013567ffffffffffffffff811115610a5e57610a5d6106c1565b5b610a6a868287016109fd565b935050602084013567ffffffffffffffff811115610a8b57610a8a6106c1565b5b610a97868287016109fd565b925050604084013567ffffffffffffffff811115610ab857610ab76106c1565b5b610ac4868287016109fd565b9150509250925092565b610ad78161067b565b8114610ae1575f80fd5b50565b5f81359050610af281610ace565b92915050565b5f60208284031215610b0d57610b0c6106bd565b5b5f610b1a84828501610ae4565b91505092915050565b5f82825260208201905092915050565b7f50726f7665646f72206e616f206175746f72697a61646f0000000000000000005f82015250565b5f610b67601783610b23565b9150610b7282610b33565b602082019050919050565b5f6020820190508181035f830152610b9481610b5b565b9050919050565b7f4e487b71000000000000000000000000000000000000000000000000000000005f52602260045260245ffd5b5f6002820490506001821680610bdf57607f821691505b602082108103610bf257610bf1610b9b565b5b50919050565b7f536f6d656e7465206f2070726f70726965746172696f20706f6465207574696c5f8201527f697a617220657373612066756e63616f00000000000000000000000000000000602082015250565b5f610c52603083610b23565b9150610c5d82610bf8565b604082019050919050565b5f6020820190508181035f830152610c7f81610c46565b9050919050565b7f4e487b71000000000000000000000000000000000000000000000000000000005f52601160045260245ffd5b5f610cbd826106c5565b91507fffffffffffffffffffffffffffffffffffffffffffffffffffffffffffffffff8203610cef57610cee610c86565b5b600182019050919050565b5f610d04826106c5565b9150610d0f836106c5565b9250828201905080821115610d2757610d26610c86565b5b92915050565b5f819050815f5260205f209050919050565b5f6020601f8301049050919050565b5f82821b905092915050565b5f60088302610d897fffffffffffffffffffffffffffffffffffffffffffffffffffffffffffffffff82610d4e565b610d938683610d4e565b95508019841693508086168417925050509392505050565b5f819050919050565b5f610dce610dc9610dc4846106c5565b610dab565b6106c5565b9050919050565b5f819050919050565b610de783610db4565b610dfb610df382610dd5565b848454610d5a565b825550505050565b5f90565b610e0f610e03565b610e1a818484610dde565b505050565b5b81811015610e3d57610e325f82610e07565b600181019050610e20565b5050565b601f821115610e8257610e5381610d2d565b610e5c84610d3f565b81016020851015610e6b578190505b610e7f610e7785610d3f565b830182610e1f565b50505b505050565b5f82821c905092915050565b5f610ea25f1984600802610e87565b1980831691505092915050565b5f610eba8383610e93565b9150826002028217905092915050565b610ed38261075b565b67ffffffffffffffff811115610eec57610eeb610906565b5b610ef68254610bc8565b610f01828285610e41565b5f60209050601f831160018114610f32575f8415610f20578287015190505b610f2a8582610eaf565b865550610f91565b601f198416610f4086610d2d565b5f5b82811015610f6757848901518255600182019150602085019450602081019050610f42565b86831015610f845784890151610f80601f891682610e93565b8355505b6001600288020188555050505b505050505050565b610fa2816106c5565b82525050565b5f610fb28261075b565b610fbc8185610b23565b9350610fcc818560208601610775565b610fd581610783565b840191505092915050565b5f604082019050610ff35f830185610f99565b81810360208301526110058184610fa8565b9050939250505056fea2646970667358221220c9454ab092891d51b1fab6fdeda7315899e598174c396e849ec00461d3f49d0c64736f6c634300081a0033",
					"opcodes": "PUSH1 0x80 PUSH1 0x40 MSTORE CALLVALUE DUP1 ISZERO PUSH1 0xE JUMPI PUSH0 DUP1 REVERT JUMPDEST POP CALLER PUSH0 DUP1 PUSH2 0x100 EXP DUP2 SLOAD DUP2 PUSH20 0xFFFFFFFFFFFFFFFFFFFFFFFFFFFFFFFFFFFFFFFF MUL NOT AND SWAP1 DUP4 PUSH20 0xFFFFFFFFFFFFFFFFFFFFFFFFFFFFFFFFFFFFFFFF AND MUL OR SWAP1 SSTORE POP PUSH2 0x1044 DUP1 PUSH2 0x5B PUSH0 CODECOPY PUSH0 RETURN INVALID PUSH1 0x80 PUSH1 0x40 MSTORE CALLVALUE DUP1 ISZERO PUSH2 0xF JUMPI PUSH0 DUP1 REVERT JUMPDEST POP PUSH1 0x4 CALLDATASIZE LT PUSH2 0x4A JUMPI PUSH0 CALLDATALOAD PUSH1 0xE0 SHR DUP1 PUSH4 0x617B2F7 EQ PUSH2 0x4E JUMPI DUP1 PUSH4 0xA2C0F874 EQ PUSH2 0x6C JUMPI DUP1 PUSH4 0xCDD69F00 EQ PUSH2 0x9C JUMPI DUP1 PUSH4 0xDDCC2DFA EQ PUSH2 0xB8 JUMPI JUMPDEST PUSH0 DUP1 REVERT JUMPDEST PUSH2 0x56 PUSH2 0xD4 JUMP JUMPDEST PUSH1 0x40 MLOAD PUSH2 0x63 SWAP2 SWAP1 PUSH2 0x69B JUMP JUMPDEST PUSH1 0x40 MLOAD DUP1 SWAP2 SUB SWAP1 RETURN JUMPDEST PUSH2 0x86 PUSH1 0x4 DUP1 CALLDATASIZE SUB DUP2 ADD SWAP1 PUSH2 0x81 SWAP2 SWAP1 PUSH2 0x6F8 JUMP JUMPDEST PUSH2 0xFB JUMP JUMPDEST PUSH1 0x40 MLOAD PUSH2 0x93 SWAP2 SWAP1 PUSH2 0x8DE JUMP JUMPDEST PUSH1 0x40 MLOAD DUP1 SWAP2 SUB SWAP1 RETURN JUMPDEST PUSH2 0xB6 PUSH1 0x4 DUP1 CALLDATASIZE SUB DUP2 ADD SWAP1 PUSH2 0xB1 SWAP2 SWAP1 PUSH2 0xA2A JUMP JUMPDEST PUSH2 0x3B4 JUMP JUMPDEST STOP JUMPDEST PUSH2 0xD2 PUSH1 0x4 DUP1 CALLDATASIZE SUB DUP2 ADD SWAP1 PUSH2 0xCD SWAP2 SWAP1 PUSH2 0xAF8 JUMP JUMPDEST PUSH2 0x577 JUMP JUMPDEST STOP JUMPDEST PUSH0 DUP1 PUSH0 SWAP1 SLOAD SWAP1 PUSH2 0x100 EXP SWAP1 DIV PUSH20 0xFFFFFFFFFFFFFFFFFFFFFFFFFFFFFFFFFFFFFFFF AND SWAP1 POP SWAP1 JUMP JUMPDEST PUSH1 0x60 PUSH1 0x3 PUSH0 CALLER PUSH20 0xFFFFFFFFFFFFFFFFFFFFFFFFFFFFFFFFFFFFFFFF AND PUSH20 0xFFFFFFFFFFFFFFFFFFFFFFFFFFFFFFFFFFFFFFFF AND DUP2 MSTORE PUSH1 0x20 ADD SWAP1 DUP2 MSTORE PUSH1 0x20 ADD PUSH0 KECCAK256 PUSH0 SWAP1 SLOAD SWAP1 PUSH2 0x100 EXP SWAP1 DIV PUSH1 0xFF AND PUSH2 0x186 JUMPI PUSH1 0x40 MLOAD PUSH32 0x8C379A000000000000000000000000000000000000000000000000000000000 DUP2 MSTORE PUSH1 0x4 ADD PUSH2 0x17D SWAP1 PUSH2 0xB7D JUMP JUMPDEST PUSH1 0x40 MLOAD DUP1 SWAP2 SUB SWAP1 REVERT JUMPDEST PUSH1 0x2 PUSH0 DUP4 DUP2 MSTORE PUSH1 0x20 ADD SWAP1 DUP2 MSTORE PUSH1 0x20 ADD PUSH0 KECCAK256 DUP1 SLOAD DUP1 PUSH1 0x20 MUL PUSH1 0x20 ADD PUSH1 0x40 MLOAD SWAP1 DUP2 ADD PUSH1 0x40 MSTORE DUP1 SWAP3 SWAP2 SWAP1 DUP2 DUP2 MSTORE PUSH1 0x20 ADD PUSH0 SWAP1 JUMPDEST DUP3 DUP3 LT ISZERO PUSH2 0x3A9 JUMPI DUP4 DUP3 SWAP1 PUSH0 MSTORE PUSH1 0x20 PUSH0 KECCAK256 SWAP1 PUSH1 0x5 MUL ADD PUSH1 0x40 MLOAD DUP1 PUSH1 0xA0 ADD PUSH1 0x40 MSTORE SWAP1 DUP2 PUSH0 DUP3 ADD SLOAD DUP2 MSTORE PUSH1 0x20 ADD PUSH1 0x1 DUP3 ADD DUP1 SLOAD PUSH2 0x1F0 SWAP1 PUSH2 0xBC8 JUMP JUMPDEST DUP1 PUSH1 0x1F ADD PUSH1 0x20 DUP1 SWAP2 DIV MUL PUSH1 0x20 ADD PUSH1 0x40 MLOAD SWAP1 DUP2 ADD PUSH1 0x40 MSTORE DUP1 SWAP3 SWAP2 SWAP1 DUP2 DUP2 MSTORE PUSH1 0x20 ADD DUP3 DUP1 SLOAD PUSH2 0x21C SWAP1 PUSH2 0xBC8 JUMP JUMPDEST DUP1 ISZERO PUSH2 0x267 JUMPI DUP1 PUSH1 0x1F LT PUSH2 0x23E JUMPI PUSH2 0x100 DUP1 DUP4 SLOAD DIV MUL DUP4 MSTORE SWAP2 PUSH1 0x20 ADD SWAP2 PUSH2 0x267 JUMP JUMPDEST DUP3 ADD SWAP2 SWAP1 PUSH0 MSTORE PUSH1 0x20 PUSH0 KECCAK256 SWAP1 JUMPDEST DUP2 SLOAD DUP2 MSTORE SWAP1 PUSH1 0x1 ADD SWAP1 PUSH1 0x20 ADD DUP1 DUP4 GT PUSH2 0x24A JUMPI DUP3 SWAP1 SUB PUSH1 0x1F AND DUP3 ADD SWAP2 JUMPDEST POP POP POP POP POP DUP2 MSTORE PUSH1 0x20 ADD PUSH1 0x2 DUP3 ADD DUP1 SLOAD PUSH2 0x280 SWAP1 PUSH2 0xBC8 JUMP JUMPDEST DUP1 PUSH1 0x1F ADD PUSH1 0x20 DUP1 SWAP2 DIV MUL PUSH1 0x20 ADD PUSH1 0x40 MLOAD SWAP1 DUP2 ADD PUSH1 0x40 MSTORE DUP1 SWAP3 SWAP2 SWAP1 DUP2 DUP2 MSTORE PUSH1 0x20 ADD DUP3 DUP1 SLOAD PUSH2 0x2AC SWAP1 PUSH2 0xBC8 JUMP JUMPDEST DUP1 ISZERO PUSH2 0x2F7 JUMPI DUP1 PUSH1 0x1F LT PUSH2 0x2CE JUMPI PUSH2 0x100 DUP1 DUP4 SLOAD DIV MUL DUP4 MSTORE SWAP2 PUSH1 0x20 ADD SWAP2 PUSH2 0x2F7 JUMP JUMPDEST DUP3 ADD SWAP2 SWAP1 PUSH0 MSTORE PUSH1 0x20 PUSH0 KECCAK256 SWAP1 JUMPDEST DUP2 SLOAD DUP2 MSTORE SWAP1 PUSH1 0x1 ADD SWAP1 PUSH1 0x20 ADD DUP1 DUP4 GT PUSH2 0x2DA JUMPI DUP3 SWAP1 SUB PUSH1 0x1F AND DUP3 ADD SWAP2 JUMPDEST POP POP POP POP POP DUP2 MSTORE PUSH1 0x20 ADD PUSH1 0x3 DUP3 ADD DUP1 SLOAD PUSH2 0x310 SWAP1 PUSH2 0xBC8 JUMP JUMPDEST DUP1 PUSH1 0x1F ADD PUSH1 0x20 DUP1 SWAP2 DIV MUL PUSH1 0x20 ADD PUSH1 0x40 MLOAD SWAP1 DUP2 ADD PUSH1 0x40 MSTORE DUP1 SWAP3 SWAP2 SWAP1 DUP2 DUP2 MSTORE PUSH1 0x20 ADD DUP3 DUP1 SLOAD PUSH2 0x33C SWAP1 PUSH2 0xBC8 JUMP JUMPDEST DUP1 ISZERO PUSH2 0x387 JUMPI DUP1 PUSH1 0x1F LT PUSH2 0x35E JUMPI PUSH2 0x100 DUP1 DUP4 SLOAD DIV MUL DUP4 MSTORE SWAP2 PUSH1 0x20 ADD SWAP2 PUSH2 0x387 JUMP JUMPDEST DUP3 ADD SWAP2 SWAP1 PUSH0 MSTORE PUSH1 0x20 PUSH0 KECCAK256 SWAP1 JUMPDEST DUP2 SLOAD DUP2 MSTORE SWAP1 PUSH1 0x1 ADD SWAP1 PUSH1 0x20 ADD DUP1 DUP4 GT PUSH2 0x36A JUMPI DUP3 SWAP1 SUB PUSH1 0x1F AND DUP3 ADD SWAP2 JUMPDEST POP POP POP POP POP DUP2 MSTORE PUSH1 0x20 ADD PUSH1 0x4 DUP3 ADD SLOAD DUP2 MSTORE POP POP DUP2 MSTORE PUSH1 0x20 ADD SWAP1 PUSH1 0x1 ADD SWAP1 PUSH2 0x1B6 JUMP JUMPDEST POP POP POP POP SWAP1 POP SWAP2 SWAP1 POP JUMP JUMPDEST PUSH0 DUP1 SLOAD SWAP1 PUSH2 0x100 EXP SWAP1 DIV PUSH20 0xFFFFFFFFFFFFFFFFFFFFFFFFFFFFFFFFFFFFFFFF AND PUSH20 0xFFFFFFFFFFFFFFFFFFFFFFFFFFFFFFFFFFFFFFFF AND CALLER PUSH20 0xFFFFFFFFFFFFFFFFFFFFFFFFFFFFFFFFFFFFFFFF AND EQ PUSH2 0x441 JUMPI PUSH1 0x40 MLOAD PUSH32 0x8C379A000000000000000000000000000000000000000000000000000000000 DUP2 MSTORE PUSH1 0x4 ADD PUSH2 0x438 SWAP1 PUSH2 0xC68 JUMP JUMPDEST PUSH1 0x40 MLOAD DUP1 SWAP2 SUB SWAP1 REVERT JUMPDEST PUSH1 0x1 PUSH0 DUP2 SLOAD DUP1 SWAP3 SWAP2 SWAP1 PUSH2 0x453 SWAP1 PUSH2 0xCB3 JUMP JUMPDEST SWAP2 SWAP1 POP SSTORE POP PUSH0 PUSH1 0x1 SLOAD SWAP1 POP PUSH0 PUSH1 0x1 PUSH1 0x2 PUSH0 DUP5 DUP2 MSTORE PUSH1 0x20 ADD SWAP1 DUP2 MSTORE PUSH1 0x20 ADD PUSH0 KECCAK256 DUP1 SLOAD SWAP1 POP PUSH2 0x480 SWAP2 SWAP1 PUSH2 0xCFA JUMP JUMPDEST SWAP1 POP PUSH1 0x2 PUSH0 DUP4 DUP2 MSTORE PUSH1 0x20 ADD SWAP1 DUP2 MSTORE PUSH1 0x20 ADD PUSH0 KECCAK256 PUSH1 0x40 MLOAD DUP1 PUSH1 0xA0 ADD PUSH1 0x40 MSTORE DUP1 DUP4 DUP2 MSTORE PUSH1 0x20 ADD DUP8 DUP2 MSTORE PUSH1 0x20 ADD DUP7 DUP2 MSTORE PUSH1 0x20 ADD DUP6 DUP2 MSTORE PUSH1 0x20 ADD TIMESTAMP DUP2 MSTORE POP SWAP1 DUP1 PUSH1 0x1 DUP2 SLOAD ADD DUP1 DUP3 SSTORE DUP1 SWAP2 POP POP PUSH1 0x1 SWAP1 SUB SWAP1 PUSH0 MSTORE PUSH1 0x20 PUSH0 KECCAK256 SWAP1 PUSH1 0x5 MUL ADD PUSH0 SWAP1 SWAP2 SWAP1 SWAP2 SWAP1 SWAP2 POP PUSH0 DUP3 ADD MLOAD DUP2 PUSH0 ADD SSTORE PUSH1 0x20 DUP3 ADD MLOAD DUP2 PUSH1 0x1 ADD SWAP1 DUP2 PUSH2 0x4FD SWAP2 SWAP1 PUSH2 0xECA JUMP JUMPDEST POP PUSH1 0x40 DUP3 ADD MLOAD DUP2 PUSH1 0x2 ADD SWAP1 DUP2 PUSH2 0x513 SWAP2 SWAP1 PUSH2 0xECA JUMP JUMPDEST POP PUSH1 0x60 DUP3 ADD MLOAD DUP2 PUSH1 0x3 ADD SWAP1 DUP2 PUSH2 0x529 SWAP2 SWAP1 PUSH2 0xECA JUMP JUMPDEST POP PUSH1 0x80 DUP3 ADD MLOAD DUP2 PUSH1 0x4 ADD SSTORE POP POP DUP2 PUSH32 0x6022B62948223003839D9BC962FC10198E233C9ED6154D8E949B2B751B1F96B2 DUP3 DUP8 PUSH1 0x40 MLOAD PUSH2 0x568 SWAP3 SWAP2 SWAP1 PUSH2 0xFE0 JUMP JUMPDEST PUSH1 0x40 MLOAD DUP1 SWAP2 SUB SWAP1 LOG2 POP POP POP POP POP JUMP JUMPDEST PUSH0 DUP1 SLOAD SWAP1 PUSH2 0x100 EXP SWAP1 DIV PUSH20 0xFFFFFFFFFFFFFFFFFFFFFFFFFFFFFFFFFFFFFFFF AND PUSH20 0xFFFFFFFFFFFFFFFFFFFFFFFFFFFFFFFFFFFFFFFF AND CALLER PUSH20 0xFFFFFFFFFFFFFFFFFFFFFFFFFFFFFFFFFFFFFFFF AND EQ PUSH2 0x604 JUMPI PUSH1 0x40 MLOAD PUSH32 0x8C379A000000000000000000000000000000000000000000000000000000000 DUP2 MSTORE PUSH1 0x4 ADD PUSH2 0x5FB SWAP1 PUSH2 0xC68 JUMP JUMPDEST PUSH1 0x40 MLOAD DUP1 SWAP2 SUB SWAP1 REVERT JUMPDEST PUSH1 0x1 PUSH1 0x3 PUSH0 DUP4 PUSH20 0xFFFFFFFFFFFFFFFFFFFFFFFFFFFFFFFFFFFFFFFF AND PUSH20 0xFFFFFFFFFFFFFFFFFFFFFFFFFFFFFFFFFFFFFFFF AND DUP2 MSTORE PUSH1 0x20 ADD SWAP1 DUP2 MSTORE PUSH1 0x20 ADD PUSH0 KECCAK256 PUSH0 PUSH2 0x100 EXP DUP2 SLOAD DUP2 PUSH1 0xFF MUL NOT AND SWAP1 DUP4 ISZERO ISZERO MUL OR SWAP1 SSTORE POP POP JUMP JUMPDEST PUSH0 PUSH20 0xFFFFFFFFFFFFFFFFFFFFFFFFFFFFFFFFFFFFFFFF DUP3 AND SWAP1 POP SWAP2 SWAP1 POP JUMP JUMPDEST PUSH0 PUSH2 0x685 DUP3 PUSH2 0x65C JUMP JUMPDEST SWAP1 POP SWAP2 SWAP1 POP JUMP JUMPDEST PUSH2 0x695 DUP2 PUSH2 0x67B JUMP JUMPDEST DUP3 MSTORE POP POP JUMP JUMPDEST PUSH0 PUSH1 0x20 DUP3 ADD SWAP1 POP PUSH2 0x6AE PUSH0 DUP4 ADD DUP5 PUSH2 0x68C JUMP JUMPDEST SWAP3 SWAP2 POP POP JUMP JUMPDEST PUSH0 PUSH1 0x40 MLOAD SWAP1 POP SWAP1 JUMP JUMPDEST PUSH0 DUP1 REVERT JUMPDEST PUSH0 DUP1 REVERT JUMPDEST PUSH0 DUP2 SWAP1 POP SWAP2 SWAP1 POP JUMP JUMPDEST PUSH2 0x6D7 DUP2 PUSH2 0x6C5 JUMP JUMPDEST DUP2 EQ PUSH2 0x6E1 JUMPI PUSH0 DUP1 REVERT JUMPDEST POP JUMP JUMPDEST PUSH0 DUP2 CALLDATALOAD SWAP1 POP PUSH2 0x6F2 DUP2 PUSH2 0x6CE JUMP JUMPDEST SWAP3 SWAP2 POP POP JUMP JUMPDEST PUSH0 PUSH1 0x20 DUP3 DUP5 SUB SLT ISZERO PUSH2 0x70D JUMPI PUSH2 0x70C PUSH2 0x6BD JUMP JUMPDEST JUMPDEST PUSH0 PUSH2 0x71A DUP5 DUP3 DUP6 ADD PUSH2 0x6E4 JUMP JUMPDEST SWAP2 POP POP SWAP3 SWAP2 POP POP JUMP JUMPDEST PUSH0 DUP2 MLOAD SWAP1 POP SWAP2 SWAP1 POP JUMP JUMPDEST PUSH0 DUP3 DUP3 MSTORE PUSH1 0x20 DUP3 ADD SWAP1 POP SWAP3 SWAP2 POP POP JUMP JUMPDEST PUSH0 DUP2 SWAP1 POP PUSH1 0x20 DUP3 ADD SWAP1 POP SWAP2 SWAP1 POP JUMP JUMPDEST PUSH2 0x755 DUP2 PUSH2 0x6C5 JUMP JUMPDEST DUP3 MSTORE POP POP JUMP JUMPDEST PUSH0 DUP2 MLOAD SWAP1 POP SWAP2 SWAP1 POP JUMP JUMPDEST PUSH0 DUP3 DUP3 MSTORE PUSH1 0x20 DUP3 ADD SWAP1 POP SWAP3 SWAP2 POP POP JUMP JUMPDEST DUP3 DUP2 DUP4 MCOPY PUSH0 DUP4 DUP4 ADD MSTORE POP POP POP JUMP JUMPDEST PUSH0 PUSH1 0x1F NOT PUSH1 0x1F DUP4 ADD AND SWAP1 POP SWAP2 SWAP1 POP JUMP JUMPDEST PUSH0 PUSH2 0x79D DUP3 PUSH2 0x75B JUMP JUMPDEST PUSH2 0x7A7 DUP2 DUP6 PUSH2 0x765 JUMP JUMPDEST SWAP4 POP PUSH2 0x7B7 DUP2 DUP6 PUSH1 0x20 DUP7 ADD PUSH2 0x775 JUMP JUMPDEST PUSH2 0x7C0 DUP2 PUSH2 0x783 JUMP JUMPDEST DUP5 ADD SWAP2 POP POP SWAP3 SWAP2 POP POP JUMP JUMPDEST PUSH0 PUSH1 0xA0 DUP4 ADD PUSH0 DUP4 ADD MLOAD PUSH2 0x7E0 PUSH0 DUP7 ADD DUP3 PUSH2 0x74C JUMP JUMPDEST POP PUSH1 0x20 DUP4 ADD MLOAD DUP5 DUP3 SUB PUSH1 0x20 DUP7 ADD MSTORE PUSH2 0x7F8 DUP3 DUP3 PUSH2 0x793 JUMP JUMPDEST SWAP2 POP POP PUSH1 0x40 DUP4 ADD MLOAD DUP5 DUP3 SUB PUSH1 0x40 DUP7 ADD MSTORE PUSH2 0x812 DUP3 DUP3 PUSH2 0x793 JUMP JUMPDEST SWAP2 POP POP PUSH1 0x60 DUP4 ADD MLOAD DUP5 DUP3 SUB PUSH1 0x60 DUP7 ADD MSTORE PUSH2 0x82C DUP3 DUP3 PUSH2 0x793 JUMP JUMPDEST SWAP2 POP POP PUSH1 0x80 DUP4 ADD MLOAD PUSH2 0x841 PUSH1 0x80 DUP7 ADD DUP3 PUSH2 0x74C JUMP JUMPDEST POP DUP1 SWAP2 POP POP SWAP3 SWAP2 POP POP JUMP JUMPDEST PUSH0 PUSH2 0x857 DUP4 DUP4 PUSH2 0x7CB JUMP JUMPDEST SWAP1 POP SWAP3 SWAP2 POP POP JUMP JUMPDEST PUSH0 PUSH1 0x20 DUP3 ADD SWAP1 POP SWAP2 SWAP1 POP JUMP JUMPDEST PUSH0 PUSH2 0x875 DUP3 PUSH2 0x723 JUMP JUMPDEST PUSH2 0x87F DUP2 DUP6 PUSH2 0x72D JUMP JUMPDEST SWAP4 POP DUP4 PUSH1 0x20 DUP3 MUL DUP6 ADD PUSH2 0x891 DUP6 PUSH2 0x73D JUMP JUMPDEST DUP1 PUSH0 JUMPDEST DUP6 DUP2 LT ISZERO PUSH2 0x8CC JUMPI DUP5 DUP5 SUB DUP10 MSTORE DUP2 MLOAD PUSH2 0x8AD DUP6 DUP3 PUSH2 0x84C JUMP JUMPDEST SWAP5 POP PUSH2 0x8B8 DUP4 PUSH2 0x85F JUMP JUMPDEST SWAP3 POP PUSH1 0x20 DUP11 ADD SWAP10 POP POP PUSH1 0x1 DUP2 ADD SWAP1 POP PUSH2 0x894 JUMP JUMPDEST POP DUP3 SWAP8 POP DUP8 SWAP6 POP POP POP POP POP POP SWAP3 SWAP2 POP POP JUMP JUMPDEST PUSH0 PUSH1 0x20 DUP3 ADD SWAP1 POP DUP2 DUP2 SUB PUSH0 DUP4 ADD MSTORE PUSH2 0x8F6 DUP2 DUP5 PUSH2 0x86B JUMP JUMPDEST SWAP1 POP SWAP3 SWAP2 POP POP JUMP JUMPDEST PUSH0 DUP1 REVERT JUMPDEST PUSH0 DUP1 REVERT JUMPDEST PUSH32 0x4E487B7100000000000000000000000000000000000000000000000000000000 PUSH0 MSTORE PUSH1 0x41 PUSH1 0x4 MSTORE PUSH1 0x24 PUSH0 REVERT JUMPDEST PUSH2 0x93C DUP3 PUSH2 0x783 JUMP JUMPDEST DUP2 ADD DUP2 DUP2 LT PUSH8 0xFFFFFFFFFFFFFFFF DUP3 GT OR ISZERO PUSH2 0x95B JUMPI PUSH2 0x95A PUSH2 0x906 JUMP JUMPDEST JUMPDEST DUP1 PUSH1 0x40 MSTORE POP POP POP JUMP JUMPDEST PUSH0 PUSH2 0x96D PUSH2 0x6B4 JUMP JUMPDEST SWAP1 POP PUSH2 0x979 DUP3 DUP3 PUSH2 0x933 JUMP JUMPDEST SWAP2 SWAP1 POP JUMP JUMPDEST PUSH0 PUSH8 0xFFFFFFFFFFFFFFFF DUP3 GT ISZERO PUSH2 0x998 JUMPI PUSH2 0x997 PUSH2 0x906 JUMP JUMPDEST JUMPDEST PUSH2 0x9A1 DUP3 PUSH2 0x783 JUMP JUMPDEST SWAP1 POP PUSH1 0x20 DUP2 ADD SWAP1 POP SWAP2 SWAP1 POP JUMP JUMPDEST DUP3 DUP2 DUP4 CALLDATACOPY PUSH0 DUP4 DUP4 ADD MSTORE POP POP POP JUMP JUMPDEST PUSH0 PUSH2 0x9CE PUSH2 0x9C9 DUP5 PUSH2 0x97E JUMP JUMPDEST PUSH2 0x964 JUMP JUMPDEST SWAP1 POP DUP3 DUP2 MSTORE PUSH1 0x20 DUP2 ADD DUP5 DUP5 DUP5 ADD GT ISZERO PUSH2 0x9EA JUMPI PUSH2 0x9E9 PUSH2 0x902 JUMP JUMPDEST JUMPDEST PUSH2 0x9F5 DUP5 DUP3 DUP6 PUSH2 0x9AE JUMP JUMPDEST POP SWAP4 SWAP3 POP POP POP JUMP JUMPDEST PUSH0 DUP3 PUSH1 0x1F DUP4 ADD SLT PUSH2 0xA11 JUMPI PUSH2 0xA10 PUSH2 0x8FE JUMP JUMPDEST JUMPDEST DUP2 CALLDATALOAD PUSH2 0xA21 DUP5 DUP3 PUSH1 0x20 DUP7 ADD PUSH2 0x9BC JUMP JUMPDEST SWAP2 POP POP SWAP3 SWAP2 POP POP JUMP JUMPDEST PUSH0 DUP1 PUSH0 PUSH1 0x60 DUP5 DUP7 SUB SLT ISZERO PUSH2 0xA41 JUMPI PUSH2 0xA40 PUSH2 0x6BD JUMP JUMPDEST JUMPDEST PUSH0 DUP5 ADD CALLDATALOAD PUSH8 0xFFFFFFFFFFFFFFFF DUP2 GT ISZERO PUSH2 0xA5E JUMPI PUSH2 0xA5D PUSH2 0x6C1 JUMP JUMPDEST JUMPDEST PUSH2 0xA6A DUP7 DUP3 DUP8 ADD PUSH2 0x9FD JUMP JUMPDEST SWAP4 POP POP PUSH1 0x20 DUP5 ADD CALLDATALOAD PUSH8 0xFFFFFFFFFFFFFFFF DUP2 GT ISZERO PUSH2 0xA8B JUMPI PUSH2 0xA8A PUSH2 0x6C1 JUMP JUMPDEST JUMPDEST PUSH2 0xA97 DUP7 DUP3 DUP8 ADD PUSH2 0x9FD JUMP JUMPDEST SWAP3 POP POP PUSH1 0x40 DUP5 ADD CALLDATALOAD PUSH8 0xFFFFFFFFFFFFFFFF DUP2 GT ISZERO PUSH2 0xAB8 JUMPI PUSH2 0xAB7 PUSH2 0x6C1 JUMP JUMPDEST JUMPDEST PUSH2 0xAC4 DUP7 DUP3 DUP8 ADD PUSH2 0x9FD JUMP JUMPDEST SWAP2 POP POP SWAP3 POP SWAP3 POP SWAP3 JUMP JUMPDEST PUSH2 0xAD7 DUP2 PUSH2 0x67B JUMP JUMPDEST DUP2 EQ PUSH2 0xAE1 JUMPI PUSH0 DUP1 REVERT JUMPDEST POP JUMP JUMPDEST PUSH0 DUP2 CALLDATALOAD SWAP1 POP PUSH2 0xAF2 DUP2 PUSH2 0xACE JUMP JUMPDEST SWAP3 SWAP2 POP POP JUMP JUMPDEST PUSH0 PUSH1 0x20 DUP3 DUP5 SUB SLT ISZERO PUSH2 0xB0D JUMPI PUSH2 0xB0C PUSH2 0x6BD JUMP JUMPDEST JUMPDEST PUSH0 PUSH2 0xB1A DUP5 DUP3 DUP6 ADD PUSH2 0xAE4 JUMP JUMPDEST SWAP2 POP POP SWAP3 SWAP2 POP POP JUMP JUMPDEST PUSH0 DUP3 DUP3 MSTORE PUSH1 0x20 DUP3 ADD SWAP1 POP SWAP3 SWAP2 POP POP JUMP JUMPDEST PUSH32 0x50726F7665646F72206E616F206175746F72697A61646F000000000000000000 PUSH0 DUP3 ADD MSTORE POP JUMP JUMPDEST PUSH0 PUSH2 0xB67 PUSH1 0x17 DUP4 PUSH2 0xB23 JUMP JUMPDEST SWAP2 POP PUSH2 0xB72 DUP3 PUSH2 0xB33 JUMP JUMPDEST PUSH1 0x20 DUP3 ADD SWAP1 POP SWAP2 SWAP1 POP JUMP JUMPDEST PUSH0 PUSH1 0x20 DUP3 ADD SWAP1 POP DUP2 DUP2 SUB PUSH0 DUP4 ADD MSTORE PUSH2 0xB94 DUP2 PUSH2 0xB5B JUMP JUMPDEST SWAP1 POP SWAP2 SWAP1 POP JUMP JUMPDEST PUSH32 0x4E487B7100000000000000000000000000000000000000000000000000000000 PUSH0 MSTORE PUSH1 0x22 PUSH1 0x4 MSTORE PUSH1 0x24 PUSH0 REVERT JUMPDEST PUSH0 PUSH1 0x2 DUP3 DIV SWAP1 POP PUSH1 0x1 DUP3 AND DUP1 PUSH2 0xBDF JUMPI PUSH1 0x7F DUP3 AND SWAP2 POP JUMPDEST PUSH1 0x20 DUP3 LT DUP2 SUB PUSH2 0xBF2 JUMPI PUSH2 0xBF1 PUSH2 0xB9B JUMP JUMPDEST JUMPDEST POP SWAP2 SWAP1 POP JUMP JUMPDEST PUSH32 0x536F6D656E7465206F2070726F70726965746172696F20706F6465207574696C PUSH0 DUP3 ADD MSTORE PUSH32 0x697A617220657373612066756E63616F00000000000000000000000000000000 PUSH1 0x20 DUP3 ADD MSTORE POP JUMP JUMPDEST PUSH0 PUSH2 0xC52 PUSH1 0x30 DUP4 PUSH2 0xB23 JUMP JUMPDEST SWAP2 POP PUSH2 0xC5D DUP3 PUSH2 0xBF8 JUMP JUMPDEST PUSH1 0x40 DUP3 ADD SWAP1 POP SWAP2 SWAP1 POP JUMP JUMPDEST PUSH0 PUSH1 0x20 DUP3 ADD SWAP1 POP DUP2 DUP2 SUB PUSH0 DUP4 ADD MSTORE PUSH2 0xC7F DUP2 PUSH2 0xC46 JUMP JUMPDEST SWAP1 POP SWAP2 SWAP1 POP JUMP JUMPDEST PUSH32 0x4E487B7100000000000000000000000000000000000000000000000000000000 PUSH0 MSTORE PUSH1 0x11 PUSH1 0x4 MSTORE PUSH1 0x24 PUSH0 REVERT JUMPDEST PUSH0 PUSH2 0xCBD DUP3 PUSH2 0x6C5 JUMP JUMPDEST SWAP2 POP PUSH32 0xFFFFFFFFFFFFFFFFFFFFFFFFFFFFFFFFFFFFFFFFFFFFFFFFFFFFFFFFFFFFFFFF DUP3 SUB PUSH2 0xCEF JUMPI PUSH2 0xCEE PUSH2 0xC86 JUMP JUMPDEST JUMPDEST PUSH1 0x1 DUP3 ADD SWAP1 POP SWAP2 SWAP1 POP JUMP JUMPDEST PUSH0 PUSH2 0xD04 DUP3 PUSH2 0x6C5 JUMP JUMPDEST SWAP2 POP PUSH2 0xD0F DUP4 PUSH2 0x6C5 JUMP JUMPDEST SWAP3 POP DUP3 DUP3 ADD SWAP1 POP DUP1 DUP3 GT ISZERO PUSH2 0xD27 JUMPI PUSH2 0xD26 PUSH2 0xC86 JUMP JUMPDEST JUMPDEST SWAP3 SWAP2 POP POP JUMP JUMPDEST PUSH0 DUP2 SWAP1 POP DUP2 PUSH0 MSTORE PUSH1 0x20 PUSH0 KECCAK256 SWAP1 POP SWAP2 SWAP1 POP JUMP JUMPDEST PUSH0 PUSH1 0x20 PUSH1 0x1F DUP4 ADD DIV SWAP1 POP SWAP2 SWAP1 POP JUMP JUMPDEST PUSH0 DUP3 DUP3 SHL SWAP1 POP SWAP3 SWAP2 POP POP JUMP JUMPDEST PUSH0 PUSH1 0x8 DUP4 MUL PUSH2 0xD89 PUSH32 0xFFFFFFFFFFFFFFFFFFFFFFFFFFFFFFFFFFFFFFFFFFFFFFFFFFFFFFFFFFFFFFFF DUP3 PUSH2 0xD4E JUMP JUMPDEST PUSH2 0xD93 DUP7 DUP4 PUSH2 0xD4E JUMP JUMPDEST SWAP6 POP DUP1 NOT DUP5 AND SWAP4 POP DUP1 DUP7 AND DUP5 OR SWAP3 POP POP POP SWAP4 SWAP3 POP POP POP JUMP JUMPDEST PUSH0 DUP2 SWAP1 POP SWAP2 SWAP1 POP JUMP JUMPDEST PUSH0 PUSH2 0xDCE PUSH2 0xDC9 PUSH2 0xDC4 DUP5 PUSH2 0x6C5 JUMP JUMPDEST PUSH2 0xDAB JUMP JUMPDEST PUSH2 0x6C5 JUMP JUMPDEST SWAP1 POP SWAP2 SWAP1 POP JUMP JUMPDEST PUSH0 DUP2 SWAP1 POP SWAP2 SWAP1 POP JUMP JUMPDEST PUSH2 0xDE7 DUP4 PUSH2 0xDB4 JUMP JUMPDEST PUSH2 0xDFB PUSH2 0xDF3 DUP3 PUSH2 0xDD5 JUMP JUMPDEST DUP5 DUP5 SLOAD PUSH2 0xD5A JUMP JUMPDEST DUP3 SSTORE POP POP POP POP JUMP JUMPDEST PUSH0 SWAP1 JUMP JUMPDEST PUSH2 0xE0F PUSH2 0xE03 JUMP JUMPDEST PUSH2 0xE1A DUP2 DUP5 DUP5 PUSH2 0xDDE JUMP JUMPDEST POP POP POP JUMP JUMPDEST JUMPDEST DUP2 DUP2 LT ISZERO PUSH2 0xE3D JUMPI PUSH2 0xE32 PUSH0 DUP3 PUSH2 0xE07 JUMP JUMPDEST PUSH1 0x1 DUP2 ADD SWAP1 POP PUSH2 0xE20 JUMP JUMPDEST POP POP JUMP JUMPDEST PUSH1 0x1F DUP3 GT ISZERO PUSH2 0xE82 JUMPI PUSH2 0xE53 DUP2 PUSH2 0xD2D JUMP JUMPDEST PUSH2 0xE5C DUP5 PUSH2 0xD3F JUMP JUMPDEST DUP2 ADD PUSH1 0x20 DUP6 LT ISZERO PUSH2 0xE6B JUMPI DUP2 SWAP1 POP JUMPDEST PUSH2 0xE7F PUSH2 0xE77 DUP6 PUSH2 0xD3F JUMP JUMPDEST DUP4 ADD DUP3 PUSH2 0xE1F JUMP JUMPDEST POP POP JUMPDEST POP POP POP JUMP JUMPDEST PUSH0 DUP3 DUP3 SHR SWAP1 POP SWAP3 SWAP2 POP POP JUMP JUMPDEST PUSH0 PUSH2 0xEA2 PUSH0 NOT DUP5 PUSH1 0x8 MUL PUSH2 0xE87 JUMP JUMPDEST NOT DUP1 DUP4 AND SWAP2 POP POP SWAP3 SWAP2 POP POP JUMP JUMPDEST PUSH0 PUSH2 0xEBA DUP4 DUP4 PUSH2 0xE93 JUMP JUMPDEST SWAP2 POP DUP3 PUSH1 0x2 MUL DUP3 OR SWAP1 POP SWAP3 SWAP2 POP POP JUMP JUMPDEST PUSH2 0xED3 DUP3 PUSH2 0x75B JUMP JUMPDEST PUSH8 0xFFFFFFFFFFFFFFFF DUP2 GT ISZERO PUSH2 0xEEC JUMPI PUSH2 0xEEB PUSH2 0x906 JUMP JUMPDEST JUMPDEST PUSH2 0xEF6 DUP3 SLOAD PUSH2 0xBC8 JUMP JUMPDEST PUSH2 0xF01 DUP3 DUP3 DUP6 PUSH2 0xE41 JUMP JUMPDEST PUSH0 PUSH1 0x20 SWAP1 POP PUSH1 0x1F DUP4 GT PUSH1 0x1 DUP2 EQ PUSH2 0xF32 JUMPI PUSH0 DUP5 ISZERO PUSH2 0xF20 JUMPI DUP3 DUP8 ADD MLOAD SWAP1 POP JUMPDEST PUSH2 0xF2A DUP6 DUP3 PUSH2 0xEAF JUMP JUMPDEST DUP7 SSTORE POP PUSH2 0xF91 JUMP JUMPDEST PUSH1 0x1F NOT DUP5 AND PUSH2 0xF40 DUP7 PUSH2 0xD2D JUMP JUMPDEST PUSH0 JUMPDEST DUP3 DUP2 LT ISZERO PUSH2 0xF67 JUMPI DUP5 DUP10 ADD MLOAD DUP3 SSTORE PUSH1 0x1 DUP3 ADD SWAP2 POP PUSH1 0x20 DUP6 ADD SWAP5 POP PUSH1 0x20 DUP2 ADD SWAP1 POP PUSH2 0xF42 JUMP JUMPDEST DUP7 DUP4 LT ISZERO PUSH2 0xF84 JUMPI DUP5 DUP10 ADD MLOAD PUSH2 0xF80 PUSH1 0x1F DUP10 AND DUP3 PUSH2 0xE93 JUMP JUMPDEST DUP4 SSTORE POP JUMPDEST PUSH1 0x1 PUSH1 0x2 DUP9 MUL ADD DUP9 SSTORE POP POP POP JUMPDEST POP POP POP POP POP POP JUMP JUMPDEST PUSH2 0xFA2 DUP2 PUSH2 0x6C5 JUMP JUMPDEST DUP3 MSTORE POP POP JUMP JUMPDEST PUSH0 PUSH2 0xFB2 DUP3 PUSH2 0x75B JUMP JUMPDEST PUSH2 0xFBC DUP2 DUP6 PUSH2 0xB23 JUMP JUMPDEST SWAP4 POP PUSH2 0xFCC DUP2 DUP6 PUSH1 0x20 DUP7 ADD PUSH2 0x775 JUMP JUMPDEST PUSH2 0xFD5 DUP2 PUSH2 0x783 JUMP JUMPDEST DUP5 ADD SWAP2 POP POP SWAP3 SWAP2 POP POP JUMP JUMPDEST PUSH0 PUSH1 0x40 DUP3 ADD SWAP1 POP PUSH2 0xFF3 PUSH0 DUP4 ADD DUP6 PUSH2 0xF99 JUMP JUMPDEST DUP2 DUP2 SUB PUSH1 0x20 DUP4 ADD MSTORE PUSH2 0x1005 DUP2 DUP5 PUSH2 0xFA8 JUMP JUMPDEST SWAP1 POP SWAP4 SWAP3 POP POP POP JUMP INVALID LOG2 PUSH5 0x6970667358 0x22 SLT KECCAK256 0xC9 GASLIMIT BLOBBASEFEE 0xB0 SWAP3 DUP10 SAR MLOAD 0xB1 STATICCALL 0xB6 REVERT 0xED 0xA7 BALANCE PC SWAP10 0xE5 SWAP9 OR 0x4C CODECOPY PUSH15 0x849EC00461D3F49D0C64736F6C6343 STOP ADDMOD BYTE STOP CALLER "
				},
				"gasEstimates": {
					"creation": {
						"codeDepositCost": "832800",
						"executionCost": "25133",
						"totalCost": "857933"
					},
					"external": {
						"addRegistro(string,string,string)": "infinite",
						"autorizarProvedor(address)": "27013",
						"getProprietario()": "2493",
						"getRegistroPaciente(uint256)": "infinite"
					}
				},
				"methodIdentifiers": {
					"addRegistro(string,string,string)": "cdd69f00",
					"autorizarProvedor(address)": "ddcc2dfa",
					"getProprietario()": "0617b2f7",
					"getRegistroPaciente(uint256)": "a2c0f874"
				}
			},
			"storageLayout": {
				"storage": [
					{
						"astId": 3,
						"contract": "contracts/RegistroMedico.sol:HealthcareRegistro",
						"label": "proprietario",
						"offset": 0,
						"slot": "0",
						"type": "t_address"
					},
					{
						"astId": 16,
						"contract": "contracts/RegistroMedico.sol:HealthcareRegistro",
						"label": "contadorPacienteID",
						"offset": 0,
						"slot": "1",
						"type": "t_uint256"
					},
					{
						"astId": 22,
						"contract": "contracts/RegistroMedico.sol:HealthcareRegistro",
						"label": "registroPaciente",
						"offset": 0,
						"slot": "2",
						"type": "t_mapping(t_uint256,t_array(t_struct(Registro)14_storage)dyn_storage)"
					},
					{
						"astId": 26,
						"contract": "contracts/RegistroMedico.sol:HealthcareRegistro",
						"label": "provedorAutorizado",
						"offset": 0,
						"slot": "3",
						"type": "t_mapping(t_address,t_bool)"
					}
				],
				"types": {
					"t_address": {
						"encoding": "inplace",
						"label": "address",
						"numberOfBytes": "20"
					},
					"t_array(t_struct(Registro)14_storage)dyn_storage": {
						"base": "t_struct(Registro)14_storage",
						"encoding": "dynamic_array",
						"label": "struct HealthcareRegistro.Registro[]",
						"numberOfBytes": "32"
					},
					"t_bool": {
						"encoding": "inplace",
						"label": "bool",
						"numberOfBytes": "1"
					},
					"t_mapping(t_address,t_bool)": {
						"encoding": "mapping",
						"key": "t_address",
						"label": "mapping(address => bool)",
						"numberOfBytes": "32",
						"value": "t_bool"
					},
					"t_mapping(t_uint256,t_array(t_struct(Registro)14_storage)dyn_storage)": {
						"encoding": "mapping",
						"key": "t_uint256",
						"label": "mapping(uint256 => struct HealthcareRegistro.Registro[])",
						"numberOfBytes": "32",
						"value": "t_array(t_struct(Registro)14_storage)dyn_storage"
					},
					"t_string_storage": {
						"encoding": "bytes",
						"label": "string",
						"numberOfBytes": "32"
					},
					"t_struct(Registro)14_storage": {
						"encoding": "inplace",
						"label": "struct HealthcareRegistro.Registro",
						"members": [
							{
								"astId": 5,
								"contract": "contracts/RegistroMedico.sol:HealthcareRegistro",
								"label": "registroID",
								"offset": 0,
								"slot": "0",
								"type": "t_uint256"
							},
							{
								"astId": 7,
								"contract": "contracts/RegistroMedico.sol:HealthcareRegistro",
								"label": "pacienteNome",
								"offset": 0,
								"slot": "1",
								"type": "t_string_storage"
							},
							{
								"astId": 9,
								"contract": "contracts/RegistroMedico.sol:HealthcareRegistro",
								"label": "diagnostico",
								"offset": 0,
								"slot": "2",
								"type": "t_string_storage"
							},
							{
								"astId": 11,
								"contract": "contracts/RegistroMedico.sol:HealthcareRegistro",
								"label": "tratamento",
								"offset": 0,
								"slot": "3",
								"type": "t_string_storage"
							},
							{
								"astId": 13,
								"contract": "contracts/RegistroMedico.sol:HealthcareRegistro",
								"label": "timestamp",
								"offset": 0,
								"slot": "4",
								"type": "t_uint256"
							}
						],
						"numberOfBytes": "160"
					},
					"t_uint256": {
						"encoding": "inplace",
						"label": "uint256",
						"numberOfBytes": "32"
					}
				}
			},
			"userdoc": {
				"kind": "user",
				"methods": {},
				"version": 1
			}
		}
	}
}